:10000000008000100D0F00003D0F00003F0F0000AA
:10001000410F0000430F0000450F000000000000EA
:10002000000000000000000000000000470F00007A
:10003000490F0000000000004B0F00004D0F0000B2
:100040004F0F00004F0F00004F0F00004F0F000038
:100050004F0F00004F0F00004F0F00004F0F000028
:100060004F0F00004F0F00004F0F00004F0F000018
:100070004F0F00004F0F00004F0F00004F0F000008
:100080004F0F00004F0F00004F0F00004F0F0000F8
:100090004F0F00004F0F00004F0F00004F0F0000E8
:1000A0004F0F00004F0F00004F0F00004F0F0000D8
:1000B0004F0F00004F0F00004F0F00004F0F0000C8
:1000C0004F0F00004F0F00004F0F000010B5054C00
:1000D000237833B9044B13B10448AFF300800123F4
:1000E000237010BD4001001000000000401A000005
:1000F0000C4B43B10C4810B50C49AFF300800C48D1
:10010000036823B910BD0A48036833B97047094B27
:10011000002BF7D0BDE810401847064B002BF5D058
:10012000184700BF00000000401A00004401001002
:10013000400100100000000008B5074C074DE368BF
:10014000626828461A6000F0EDF823696268284664
:100150001A6000F0E7F8F2E75C010010CDCC4C3EED
:1001600010B5064C00212046182201F01FFA204647
:10017000BDE81040024900F052B800BF5C01001019
:1001800032C009200748084A08B5121A002101F0B8
:100190000DFA00F066FE01F0E5F900F069FE00F0EE
:1001A000A7FE00BF400100108C03001070B50E4682
:1001B0000446154600F046F9013609D020460021D4
:1001C00000F05AF929462046BDE8704000F051B9C8
:1001D00070BD38B504460D4643685AB1C268204622
:1001E0001360012100F048F929462046BDE8384057
:1001F00000F03FB90269F2E70322FFF7D7BF70B5FD
:100200000E460446154600F01DF9013606D02A4672
:100210002046BDE870400221FFF7DBBF70BD002221
:10022000FFF7EDBF014800F003B800BF5C18000005
:10023000036870B5DB680446984763685A682368AA
:100240001AB99B68BDE8704018475B681568984705
:100250006368281A00285A6807DC916859601B688F
:10026000002BEAD050689847E7E7236810681B69BD
:10027000BDE870401847000010B5044601300DD1AC
:1002800010BD9C4209D12046896800F06DFC2046D3
:10029000BDE81040022100F080BC0C310B685A1CF4
:1002A000EFD10248BDE8104000F080B8A918000066
:1002B000884208B508D0431C06D0013106D0044856
:1002C00000F074F84FF0FF31084608BD0146FBE727
:1002D000781800000B685A1C01D1184670478342F9
:1002E00001D1486870470C31F4E70000421C10B59A
:1002F000044607D0FFF7EEFF431C044602D1024834
:1003000000F054F8204610BD8918000038B50446A6
:1003100000F004FC054600F001FC401BA042FAD3AB
:1003200038BD000008B5044900F012FE00F060FF7F
:10033000BDE80840FFF7EABF002474494FF47A7320
:100340005843FFF7E3BF00F029B8EFF31080C04334
:1003500000F001007047000008B5FFF7F6FF72B625
:10036000064B1A6822B980F00100054AC0B210702D
:100370001A681A6801321A6008BD00BF80010010B7
:100380007C01001030B585B06D4618242046294602
:10039000ABBE0446204605B030BD0000024B1868D5
:1003A00000F00100704700BFF0ED00E00FB4012045
:1003B00008B500F09DFD000000B599B0FFF7CCFF37
:1003C00017496846FFF72BFF164906A8FFF727FFD6
:1003D00015490CA8FFF723FF144912A8FFF71FFFC8
:1003E000019A039B96201A60079A0A9B1A600D9A3D
:1003F000109B1A60139A159B1A60FFF79FFF019AD2
:10040000049B96201A60079A099B1A600D9A0F9B0D
:100410001A60139A169B1A60FFF790FFE0E700BF7F
:1004200032C0092034C0092035C0092037C0092056
:1004300010B50021044600F097FB012004F01F04D2
:10044000A04010BD38B505464B1C0C4629600FD0A6
:100450000846FFF7EDFF24F01F0404F11803EB60DA
:1004600004F11C032B6104F1140368606B61AC6040
:1004700038BD006800F091BB11B1012907D0704769
:1004800082684168136823EA010313607047826839
:10049000416813680B43F8E7012810B408D002281C
:1004A00008D010BC7047506820F00100506010E088
:1004B00003460EE038230F4803FB01035868013060
:1004C00006D018699C68046093F83630002BEAD097
:1004D0000023382251430748421840580028E0D0F2
:1004E0001BB992F83620002ADBD0034A194612685D
:1004F00010BC10478C01001084010010034A002139
:100500009068C0F34200FFF7C7BF00BF00C00040C3
:10051000034A01219068C0F34200FFF7BDBF00BF4E
:1005200000000140034A02219068C0F34200FFF737
:10053000B3BF00BF00800940034A03219068C0F3A5
:100540004200FFF7A9BF00BF00C0094070B50B46CD
:10055000066829498E4222D006DCA1F580418E42F0
:100560000CD000210C460BE024498E421AD001F534
:1005700080418E42F5D12249082401E00524214919
:100580009AB10125726805FA03F31343736020469C
:1005900000F030FB1C4B05FA04F41C6070BD1B49D5
:1005A0000624EDE71A490724EAE7012B0AD042683E
:1005B0003820184900FB021292F8361092F83520C4
:1005C000D14217D1012202FA03F0B3FA83F3716822
:1005D0005B0921EA00017160716802FA03F30B42C2
:1005E00008D1094B02FA04F4C3F88040BFF34F8FDF
:1005F000BFF36F8F70BD00BF000001400080094055
:1006000039050000FD04000000E100E011050000D4
:10061000250500008C0100102DE9F04F644B0468A3
:1006200087B09C4200F08D806ADCA3F580439C4239
:1006300079D0604B0801D3F800C0BCFBF0F293B254
:1006400000FB12C2002A00F0AA800125E646994666
:10065000AB464FF0000A0191039100264FEA4E038A
:100660000493DDF804804FEA8E03EFB20593F3B2F2
:100670000093049B002BABBF059BB3FBF8F3B3FBCC
:10068000F8F31B09A8BF5B090133C3F34F03002B29
:1006900000F0888016B1012B08BF0223A819584327
:1006A000C000BEFBF0F00130C1EB50000028B8BF25
:1006B00040420290029A0398824262DA91425AD1F1
:1006C0000F2D07D1BB469946DDF800A05F464B468B
:1006D000CDF800A0217B41F080012173C3F30721F5
:1006E000DBB221712370009B43EA0712D2B284F877
:1006F0002820237B03F07F03237307B0BDE8F08F2E
:100700002D4B9C4229D003F580439C4291D12B4B29
:10071000D3F8AC2122F44022C3F8AC21D3F8AC21A9
:1007200042F4802224E0254BD3F8A82122F0C00215
:10073000C3F8A821D3F8A82142F04002C3F8A821A9
:1007400077E71E4BD3F8A82122F44072C3F8A82102
:10075000D3F8A82142F48072F0E7184BD3F8AC210B
:1007600022F44032C3F8AC21D3F8AC2142F48032F9
:10077000C3F8AC215DE7BB469946029ADDF800A0BC
:1007800003920136F3B2BB428844FFF470AF0F2DE1
:100790009CD0019B01350B44E64401935DE70127A2
:1007A000009297E7002E0CBF0123022376E700BFDB
:1007B00000000140C80000100080094000C00F4048
:1007C00010B50268137DDB07FCD538244368084860
:1007D000117804FB03035868C9B2013006D0586988
:1007E0009B680360536843F001035360084610BDE3
:1007F0008C0100103821114A436801FB0323DA6998
:10080000013209D01A6B1B6A12681A4214D10368AC
:10081000187DC0F3801070470268127D920604D5DF
:100820000022012083F83420704793F834000F2809
:100830008CBF002001207047002070478C01001001
:1008400038B504460D462046FFF7D4FF0028FAD0FD
:1008500038212368EDB21D706368044A01FB03234D
:1008600093F83420013283F8342038BD8C01001015
:100870002DE9F84F9A463C4C03680546A34218BF41
:1008800000248946904647681CB1237C03F03F034F
:10089000237438234FF0FF32344E284603FB07639E
:1008A000DA615A60002283F835201146FFF74EFEC8
:1008B000B9F1000F55D02E494046FFF70BFD2D49E9
:1008C00083465046FFF706FDA9F10203012B1BD812
:1008D000BAF1FF3F0BD0244B98420DD164B1237C79
:1008E000244943F0800323745046FFF7C5FCB9F157
:1008F000030F0CD0BDE8F88F382000FB076051468D
:100900001C30FFF779FCF2E7B9F1010F29D1B8F1FA
:10091000FF3F01D1BDE8F88F07222B681A72124BF6
:100920009B450AD14CB1237C404643F040032374DD
:100930000F49BDE8F84FFFF79FBC382404FB076060
:10094000414600220430FFF75AFC01226B6828461A
:1009500004FB036686F835200021BDE8F84FFFF759
:10096000F5BDBDE8F88F00BF000001408C0100100C
:10097000E0180000BC1800002DE9F0410F460546C4
:10098000464938461646FFF7B1FC4549044630460D
:10099000FFF7ACFC01462046FFF78AFC414B0446BA
:1009A000984228605DD047D8A3F58043984250D044
:1009B00001234FF0000823724FF416512846C4F863
:1009C0000480FFF729FE03222B6834491A73384646
:1009D000FFF752FC32493046FFF74EFC7A1C03D039
:1009E0004146384600F0D9F8731C03D00021304648
:1009F00000F0D3F82B4B9C424BD03ED8A3F580435C
:100A00009C4243D038216A68274B284601FB0232BA
:100A10004FF0FF3300215360D3611A46FFF728FFE0
:100A2000224B9C4206D10122214B69681A6028683A
:100A3000204B03C3BDE8F0811F4B984217D003F54C
:100A400080439842B4D11D4AD2F8C43043F00073B9
:100A500004E01A4AD2F8C43043F00803C2F8C430A4
:100A6000A6E7164AD2F8C43043F01003F6E7134A5B
:100A7000D2F8C43043F08073F0E70F4B9C420AD0A9
:100A800003F580439C42BDD1032300E000236B604B
:100A9000B8E70123FBE70223F9E700BF7019000064
:100AA00004190000000001408C01001000C000404B
:100AB00088010010800300100080094000C00F4032
:100AC00008B5104B1868E0B901210F4A1960D2F837
:100AD000C43043F40003C2F8C430A2F5D02210673A
:100AE00002200A4B1B6850600948B3FBF0F3013B3E
:100AF000D36004205160074900F07CF81022064BB7
:100B00001A6008BD6C02001000C00F40C800001041
:100B100000093D002502000000E100E008B5044B9B
:100B20001B680BB9FFF7CCFF024B986808BD00BFEC
:100B30006C02001000400940034B98615A6942F072
:100B400001025A61704700BF00400940024A5369E0
:100B500023F0010353617047004009400122014B1B
:100B60001A6070470040094010B5032400F160404E
:100B7000A0F51C2043000009800000F1804000F532
:100B80003030026803F01E039C4022EA0402026037
:100B9000026899401143016010BD00F16040A0F56A
:100BA0001C2043099B0003F1804303F5303330B52B
:100BB00000F01F029C6EC1F3800505FA02F224EAE0
:100BC00002049C669C6E22439A6695B903244300F6
:100BD0000009800000F1804000F53030026C03F025
:100BE0001E039C4022EA04020264026C99401143F5
:100BF000016430BD30B50C4CA268A4681346B4F152
:100C0000805F0CD2131F094C094A53F8045F42F865
:100C1000045FA242F9D14FF08053034A9360103031
:100C200043F8201030BD00BF00ED00E0C000001010
:100C3000FCFFFF0F2022264BC3F8A021D3F8A021F0
:100C4000920603D5D3F8A0215006FBD50222C3F8A3
:100C5000042100220120C3F8A821C3F8AC210B22F3
:100C6000C3F80C01AA21C3F884205522C3F88C10C4
:100C7000C3F88C20C3F88000C3F88C10C3F88C2014
:100C8000134B1A46D3F888104901FBD50321C3F84A
:100C90008010AA21C3F88C105521C3F88C10D2F80B
:100CA000883013F0407FFAD00523C2F80831094B91
:100CB000C2F8C4300023C2F8C831136823F470436B
:100CC00023F03A0343F4405343F03A031360704770
:100CD00000C00F40DE87280400F0BCBC00F06EBCF2
:100CE00008B5084B1B685BB907490848084AFFF775
:100CF00043FE4FF41651BDE808400448FFF78CBC92
:100D000008BD00BF8801001002C009208003001048
:100D100003C0092070470000022810B5044601DC1A
:100D2000002010BD00F08AFA092300220360094B5D
:100D3000033C53F8240043F8242040B103681B69A6
:100D40009847041EECDA00F079FA644204604FF030
:100D5000FF3010BD70020010F8B505460E4614466F
:100D600000F06CFA0923022D03600FDC124B1B68A4
:100D70000BB9FFF7B5FF35463719104EBD4215D0F8
:100D800015F8011B3046FFF75BFDF7E70C4B033D01
:100D900053F8250060B103682246DB683146984766
:100DA000041E03DA00F04AFA634203602046F8BDED
:100DB0004FF0FF34FAE700BF8801001080030010F5
:100DC0007002001070B504460D46164600F036FA63
:100DD0000923022C03600BDC0F4B1B680BB9FFF7D8
:100DE0007FFF0E48FFF7ECFC01242870204670BD01
:100DF0000B4B033C53F8240058B1036832469B6800
:100E000029469847041EF1DA00F018FA634203609D
:100E1000ECE74FF0FF34E9E7880100108003001091
:100E20007002001070B504460D46164600F006FA32
:100E30000923022C03600BDD084B033C53F824000C
:100E400040B1036832462946BDE87040DB69184767
:100E5000002070BD4FF0FF3070BD00BF7002001069
:100E6000704708B5FFF756FFFFF7FAFF08BD704758
:100E700008B5FFF7FCFFBDE80840FFF75DB90000CB
:100E80000C4A10B513681844EFF30881884205D363
:100E90000C22094B4FF0FF301A6010BD07490C6857
:100EA00024B10749096821448842F1D210601846EC
:100EB00010BD00BFCC0000108803001070030010AC
:100EC00074030010094C08B523680546986800F0C3
:100ED0006DFA2368D86800F069FAFFF734FA08B1B0
:100EE000FFF750FA0DB1FFF767FAFEE7D0000010E8
:100EF00008B5FFF7E7FF7047704708B5FFF7FBFF3E
:100F000008BD08B5FFF7F8FF08BD00000649074A0D
:100F1000074B9A42BEBF51F8040B42F8040BF8E7A6
:100F20000448804704480047441A0000C8000010E5
:100F300040010010350C000085010000FEE7FEE7CF
:100F4000FEE7FEE7FEE7FEE7FEE7FEE7FEE7FEE779
:100F50004FF0FF0C1CEAD0521EBF1CEAD15392EA9C
:100F60000C0F93EA0C0F6FD01A4480EA010C400278
:100F700018BF5FEA41211ED04FF0006343EA5010D2
:100F800043EA5111A0FB01310CF00040B1F5000F14
:100F90003EBF490041EAD3715B0040EA010062F1C3
:100FA0007F02FD2A1DD8B3F1004F40EBC25008BFAD
:100FB00020F00100704790F0000F0CF0004C08BFCB
:100FC00049024CEA502040EA51207F3AC2BFD2F198
:100FD000FF0340EAC250704740F400004FF00003A6
:100FE000013A5DDC12F1190FDCBF00F000407047E0
:100FF000C2F10002410021FA02F1C2F1200200FA1E
:1010000002FC5FEA310040F1000053EA4C0308BFE4
:1010100020EADC70704792F0000F00F0004C02BF35
:10102000400010F4000F013AF9D040EA0C0093F0B0
:10103000000F01F0004C02BF490011F4000F013B0A
:10104000F9D041EA0C018FE70CEAD15392EA0C0F78
:1010500018BF93EA0C0F0AD030F0004C18BF31F0E3
:10106000004CD8D180EA010000F00040704790F0B9
:10107000000F17BF90F0004F084691F0000F91F05D
:10108000004F14D092EA0C0F01D142020FD193EA23
:101090000C0F03D14B0218BF084608D180EA0100AB
:1010A00000F0004040F0FE4040F40000704740F087
:1010B000FE4040F4400070474FF0FF0C1CEAD05255
:1010C0001EBF1CEAD15392EA0C0F93EA0C0F69D0B1
:1010D000A2EB030280EA010C49024FEA402037D01C
:1010E0004FF0805343EA111143EA10130CF0004013
:1010F0008B4238BF5B0042F17D024FF4000C8B4203
:1011000024BF5B1A40EA0C00B3EB510F24BFA3EBE2
:10111000510340EA5C00B3EB910F24BFA3EB9103B2
:1011200040EA9C00B3EBD10F24BFA3EBD10340EA0C
:10113000DC001B0118BF5FEA1C1CE0D1FD2A3FF652
:1011400050AF8B4240EBC25008BF20F00100704707
:101150000CF0004C4CEA50207F32C2BFD2F1FF03AA
:1011600040EAC250704740F400004FF00003013ADB
:1011700037E792F0000F00F0004C02BF400010F47F
:10118000000F013AF9D040EA0C0093F0000F01F093
:10119000004C02BF490011F4000F013BF9D041EAB5
:1011A0000C0195E70CEAD15392EA0C0F08D14202E8
:1011B0007FF47DAF93EA0C0F7FF470AF084676E7BB
:1011C00093EA0C0F04D14B023FF44CAF08466EE794
:1011D00030F0004C18BF31F0004CCAD130F0004262
:1011E0007FF45CAF31F000437FF43CAF5FE700BFBA
:1011F0004FEA4002B2F1FE4F0FD34FF09E03B3EB24
:1012000012620DD94FEA002343F0004310F0004F63
:1012100023FA02F018BF404270474FF000007047B9
:1012200012F1610F01D1420205D110F0004008BF58
:101230006FF0004070474FF000007047014B186896
:10124000704700BFD00000108A892DE9F0410546A3
:1012500010070C465AD44B68002B05DC0B6C002B96
:1012600002DC0020BDE8F081E66A002EF9D0002300
:1012700012F480522F682B6033D0606DA3895A0717
:1012800005D56368C01A636B0BB1236CC01A0023C9
:101290000246E66A216A2846B047431CA38906D164
:1012A00029681D294BD82B4ACA40D60747D50022AA
:1012B00062602269D904226004D5421C01D12B68E6
:1012C00003B96065616B2F600029CAD004F1440343
:1012D000994202D02846FFF701FD00206063BDE877
:1012E000F081216A01232846B047411CC6D12B68F2
:1012F000002BC3D01D2B01D0162B01D12F60B0E7DE
:10130000A38943F04003A381BDE8F0810F69002F5A
:10131000A7D0930718BF00230E6808BF4B69A6EB40
:1013200007080F608B60B8F1000F9ADD43463A461C
:10133000216A2846A66AB047002807DCA38943F043
:101340004003A3814FF0FF30BDE8F0810744A8EBD4
:101350000008E8E70100402038B50B6905460C4657
:10136000DBB118B183690BB900F072F80C4B9C42E9
:1013700009D16C68B4F90C307BB121462846BDE830
:101380003840FFF761BF074B9C4201D1AC68F1E7E1
:10139000054B9C4208BFEC68ECE7002038BD00BF5D
:1013A000FC1900001C1A0000DC190000014620B9DD
:1013B000044B0549186800F0B7B8044B1868FFF7EC
:1013C000CBBF00BF3C1A000059130000D000001032
:1013D000014900F0A9B800BF59130000002310B55F
:1013E000044603604360836081814366C281036178
:1013F00043618361194608225C3000F0D7F8054B41
:1014000024626362044BA362044BE362044B2363D4
:1014100010BD00BF31170000531700008B170000EC
:10142000AF17000070B568254A1E55430E4605F1FA
:101430007401FFF751FC044640B1002180E84200EE
:101440000C30A06005F1680200F0B0F8204670BDD5
:10145000836910B5044633BB8364C3640365124BD0
:10146000124A1B688262984204BF0123836100F024
:101470001FF86060204600F01BF8A060204600F0D6
:1014800017F80022E06004216068FFF7A7FF01223F
:101490000921A068FFF7A2FF02221221E068FFF7EE
:1014A0009DFF0123A36110BD3C1A0000D113000071
:1014B000F8B51C4B07461E68B36913B93046FFF7F1
:1014C000C7FF4836B4687368013B03D5336833B14E
:1014D0003668F7E7B4F90C506DB16834F4E70421CD
:1014E0003846FFF79FFF30600028F1D10C230446F7
:1014F0003B602046F8BD4FF6FF73E381012365662C
:10150000A3812560A560656025616561A5610822EC
:10151000294604F15C0000F049F86563A563A56401
:10152000E564E6E73C1A00002DE9F8438046894669
:10153000002600F1480414B93046BDE8F883A568D8
:101540006768013F01D52468F5E7AB89012B07D90E
:10155000B5F90E30013303D029464046C84706434B
:101560006835EEE770B500250C4E0D4CA41BA41099
:10157000A54209D100F066F900250A4E0A4CA41BC9
:10158000A410A54205D170BD56F825309847013505
:10159000EEE756F8253098470135F2E734010010A0
:1015A00034010010340100103C01001003460244D5
:1015B000934200D1704703F8011BF9E738B505469F
:1015C000002943D051F8043C0C1F002BB8BFE4188D
:1015D000FFF793FC1E4A1368104633B9636014602A
:1015E0002846BDE83840FFF78CBCA3420BD92168E0
:1015F0006218934201BF1A685B68521822606360E8
:101600000460EDE713465A680AB1A242FAD9196894
:101610005818A0420BD12068014458188242196022
:10162000DED110685268014419605A60D8E702D9C7
:101630000C232B60D4E7206821188A4201BF11686F
:1016400052680918216062605C60C9E738BD00BF5C
:101650007803001070B5CD1C25F0030508350C2D5E
:1016600038BF0C25002D064601DBA94203D90C2307
:101670003360002070BDFFF740FC234A1468214608
:1016800091B9224C23681BB9304600F041F8206024
:101690002946304600F03CF8431C26D10C23304646
:1016A0003360FFF72EFCE4E70B685B1B1AD40B2BAF
:1016B0000FD90B60CC18CD503046FFF722FC04F157
:1016C0000B00231D20F00700C31A1BD05A42E25022
:1016D00070BD8C420BBF63684B681360636018BFBA
:1016E0000C46E9E70C464968CAE7C41C24F0030429
:1016F000A04205D0211A304600F00AF80130CDD0C2
:101700002560D9E770BD00BF780300107C0300108E
:1017100038B50023054C054608462360FFF7B0FBAB
:10172000431C02D1236803B12B6038BD880300102D
:1017300010B50C46B1F90E1000F072F80028ABBFDE
:10174000636DA3891B1823F48053ACBF6365A38129
:1017500010BD2DE9F0411F468B890546DB050C467F
:10176000164605D502230022B1F90E1000F046F806
:10177000A389324623F48053A381B4F90E103B466B
:101780002846BDE8F04100F017B810B50C46B1F995
:101790000E1000F033F8431CA38915BF606523F4D5
:1017A000805343F48053A38118BFA38110BDB1F9C6
:1017B0000E1000F013B8000038B505460846114673
:1017C0000022054C22601A46FFF7C6FA431C02D1DC
:1017D000236803B12B6038BD8803001038B500239F
:1017E000054C054608462360FFF796FA431C02D1D4
:1017F000236803B12B6038BD8803001038B5054657
:10180000084611460022054C22601A46FFF70AFBE3
:10181000431C02D1236803B12B6038BD880300103C
:1018200038B50546084611460022054C22601A4686
:10183000FFF7C8FA431C02D1236803B12B6038BDFF
:1018400088030010F8B500BFF8BC08BC9E4670477E
:10185000F8B500BFF8BC08BC9E467047641800008D
:1018600074010010C10A00001D0B00004D0B0000A8
:101870005D0B0000390B000070696E6D6170206DAA
:1018800069732D6D617463680070696E6D6170209D
:101890006E6F7420666F756E6420666F722070655F
:1018A000726970686572616C00636F756C64206E3C
:1018B0006F742070696E6F757400000011C009208C
:1018C000000001400100000042C00920000001406A
:1018D00002000000FFFFFFFFFFFFFFFF000000000E
:1018E00016C00920000001400100000047C0092087
:1018F0000000014002000000FFFFFFFFFFFFFFFFAD
:101900000000000001C0092000C0094002000000E2
:1019100003C0092000C00040010000000BC00920E6
:10192000008009400100000010C0092000000140B3
:10193000010000001AC0092000C009400300000097
:1019400041C00920000001400200000049C00920F8
:1019500000800940020000009DC0092000C009402D
:1019600003000000FFFFFFFFFFFFFFFF000000007C
:1019700000C0092000C009400200000002C0092088
:1019800000C00040010000000AC00920008009409A
:10199000010000000FC0092000000140010000000C
:1019A00019C0092000C009400300000040C0092000
:1019B000000001400200000048C0092000800940EA
:1019C000020000009CC0092000C009400300000084
:1019D000FFFFFFFFFFFFFFFF00000000000000000F
:1019E00000000000000000000000000000000000F7
:1019F00000000000000000000000000000000000E7
:101A000000000000000000000000000000000000D6
:101A100000000000000000000000000000000000C6
:101A200000000000000000000000000000000000B6
:101A3000000000000000000000000000D4000010C2
:041A400000000000A2
:101A440000D8B80590030010D40000100000000076
:101A5400FC1900001C1A0000DC1900000000000042
:101A64000000000000000000000000000000000072
:101A74000000000000000000000000000000000062
:101A84000000000000000000000000000000000052
:101A94000000000000000000000000000000000042
:101AA400000000000000000000000000F100000041
:081AB40061010000CD000000FB
:0400000300000F0DDD
:00000001FF
