:1000000000800010891C0000B91C0000BB1C00000F
:10001000BD1C0000BF1C0000C11C0000000000004F
:10002000000000000000000000000000C31C0000F1
:10003000C51C000000000000C71C0000C91C000017
:10004000CB1C0000CB1C0000CB1C0000CB1C000014
:10005000CB1C0000CB1C0000CB1C0000CB1C000004
:10006000CB1C0000CB1C0000CB1C0000CB1C0000F4
:10007000CB1C0000CB1C0000CB1C0000CB1C0000E4
:10008000CB1C0000CB1C0000CB1C0000CB1C0000D4
:10009000CB1C0000CB1C0000CB1C0000CB1C0000C4
:1000A000CB1C0000CB1C0000CB1C0000CB1C0000B4
:1000B000CB1C0000CB1C0000CB1C0000CB1C0000A4
:1000C000CB1C0000CB1C0000CB1C000010B5054C65
:1000D000237833B9044B13B10448AFF300800123F4
:1000E000237010BDB002001000000000806B000003
:1000F0000C4B43B10C4810B50C49AFF300800C48D1
:10010000036823B910BD0A48036833B97047094B27
:10011000002BF7D0BDE810401847064B002BF5D058
:10012000184700BF00000000806B0000B402001000
:10013000B002001000000000F8B504460C200E4686
:10014000174601F0B9FC05463A46314601F09AF8E7
:100150002846C4F8CC50024901F0AAF82046F8BD60
:10016000801A060010B50446D0F8CC0010B1036820
:10017000DB689847204610BD2DE9F04380461F46B6
:1001800001238946002489B008A800F8142D0246EE
:100190000093D8F8CC0004AE109D01F0B5F83B46B2
:1001A000009432464946D8F8CC0001F0CDF82346F9
:1001B000BB4203DAF25CEA540133F9E709B0BDE867
:1001C000F08390F84830032B06D8DFE803F00207ED
:1001D0000A0D4FF06253C364C06C70474FF0645314
:1001E000F9E74FF06653F6E74FF06853F3E71FB5B2
:1001F0000C4602AB00933B220623D021FFF7BCFF45
:100200009DF808209DF8093043EA022323809DF8D9
:100210000A209DF80B3043EA022363809DF80C20EE
:100220009DF80D3043EA0223A38004B010BD1FB532
:1002300003AB009341220223D021FFF79DFF9DF8DD
:100240000C309DF80D0040EA032000B205B05DF8C7
:1002500004FB000070B50546094B064645F80C3B0B
:100260005DB100F12C04AC4207D0103CE368002BD8
:10027000F9D09B6820469847F5E7304670BD00BF2F
:10028000B867000010B50446054B0360203340F802
:10029000303F01F019F92046FFF7DCFF204610BD82
:1002A00074660000A0F13000ECE700BF10B5044612
:1002B000FFF7D0FF204601F018FC204610BD0000DB
:1002C0002DE9F04F0FF2B809D9E900892E4E2F4CD5
:1002D00087B001AF39463046FFF789FF00250DF1A1
:1002E0000C0A37F9150002F0EDF983463046FFF7A6
:1002F00068FF0146584602F039FA4AF825000135F0
:10030000032DEED13046FFF792FF0546039801F02A
:1003100041FE02460B4620461D4901F0E7F80498CD
:1003200001F038FE02460B4620461A4901F0DEF87D
:10033000059801F02FFE02460B462046164901F0B3
:10034000D5F8284602F0BEF901F024FE42464B469D
:1003500001F09EFF0022114B01F0BEFC02F0A8F854
:1003600001F018FE02460B4620460D4901F0BEF88A
:100370000C49204601F0BAF80A2000F02CF9A8E751
:1003800052B81E85EBDD7440CC020010CC03001087
:1003900048640000526400005C64000000003540C6
:1003A000666400007A68000010B50446FFF76AFF33
:1003B000204601F09AFB204610BDA0F13000F3E783
:1003C00038B50D4C0D4D0E4A0E492046FFF7B4FED0
:1003D00020460D4C2A460D4901F05CFB4FF4E133F9
:1003E0000B4A0C49204600F021FF2A462046BDE872
:1003F0003840094901F04EBBCC020010C800001083
:1004000001C0092000C009209C0300106501000004
:1004100003C0092002C00920850200000748084ADD
:1004200008B5121A002102F06CFE01F0EDFA02F09C
:10043000B7FD01F0F0FA01F02FFB00BFB002001091
:100440001C060010022801DD01F090BA012070475F
:1004500008B5012001F020FB08B5FFF7F9FF70B5E2
:100460000E460446154600F039F9013609D02046FB
:10047000002100F04DF929462046BDE8704000F00B
:1004800044B970BD38B504460D4643685AB1C268D8
:1004900020461360012100F03BF929462046BDE8C3
:1004A000384000F032B90269F2E70322FFF7D7BF04
:1004B00070B50E460446154600F010F9013606D018
:1004C0002A462046BDE870400221FFF7DBBF70BD21
:1004D0000022FFF7EDBF0000014800F003B800BFA5
:1004E00074640000036870B5DB680446984763686D
:1004F0005A6823681AB99B68BDE8704018475B6862
:10050000156898476368281A00285A6807DC9168BC
:1005100059601B68002BEAD050689847E7E72368CA
:1005200010681B69BDE870401847000010B504460C
:1005300001300DD110BD9C4209D12046896800F0E0
:100540009EFD2046BDE81040022100F0B1BD0C31F7
:100550000B685A1CEFD10248BDE8104000F072B899
:10056000C1640000884208B508D0431C06D00131A0
:1005700006D0044800F066F84FF0FF31084608BD89
:100580000146FBE7906400000B685A1C01D1184635
:100590007047834201D1486870470C31F4E700008E
:1005A000421C10B5044607D0FFF7EEFF431C04467B
:1005B00002D1024800F046F8204610BDA1640000B8
:1005C00038B5044600F002FC054600F0FFFB401B76
:1005D000A042FAD338BD4FF47A735843FFF7F0BF07
:1005E00000F028B8EFF31080C04300F0010070471E
:1005F00008B5FFF7F7FF72B6064B1A6822B980F00C
:100600000100054AC0B210701A681A6801321A60F7
:1006100008BD00BFF0030010EC03001030B585B03A
:100620006D46182420462946ABBE0446204605B038
:1006300030BD0000024B186800F00100704700BF99
:10064000F0ED00E00FB4012008B501F025FA00003C
:1006500000B599B0FFF7CCFF17496846FFF738FFA0
:10066000164906A8FFF734FF15490CA8FFF730FF1D
:10067000144912A8FFF72CFF019A039B96201A60D9
:10068000079A0A9B1A600D9A109B1A60139A159B81
:100690001A60FFF7A0FF019A049B96201A60079A40
:1006A000099B1A600D9A0F9B1A60139A169B1A6089
:1006B000FFF791FFE0E700BF32C0092034C00920F6
:1006C00035C0092037C0092010B50021044600F0CC
:1006D000D6FC012004F01F04A04010BD38B505462B
:1006E0004B1C0C4629600FD00846FFF7EDFF24F0A5
:1006F0001F0404F11803EB6004F11C032B6104F1E7
:10070000140368606B61AC6038BD006800F0D0BC59
:1007100011B1012907D0704782684168136823EA44
:100720000103136070478268416813680B43F8E760
:10073000012810B408D0022808D010BC70475068B7
:1007400020F00100506010E003460EE038230F480F
:1007500003FB01035868013006D018699C680460E7
:1007600093F83630002BEAD0002338225143074853
:10077000421840580028E0D01BB992F83620002AD1
:10078000DBD0034A1946126810BC1047FC03001066
:10079000F4030010034A00219068C0F34200FFF701
:1007A000C7BF00BF00C00040034A01219068C0F3EA
:1007B0004200FFF7BDBF00BF00000140034A022115
:1007C0009068C0F34200FFF7B3BF00BF008009404C
:1007D000034A03219068C0F34200FFF7A9BF00BF9E
:1007E00000C0094070B50B46066829498E4222D0E8
:1007F00006DCA1F580418E420CD000210C460BE0B6
:1008000024498E421AD001F580418E42F5D1224909
:10081000082401E0052421499AB10125726805FAEE
:1008200003F313437360204600F070FC1C4B05FA81
:1008300004F41C6070BD1B490624EDE71A49072427
:10084000EAE7012B0AD042683820184900FB02125F
:1008500092F8361092F83520D14217D1012202FACF
:1008600003F0B3FA83F371685B0921EA0001716058
:10087000716802FA03F30B4208D1094B02FA04F43F
:10088000C3F88040BFF34F8FBFF36F8F70BD00BFC1
:100890000000014000800940D107000095070000DA
:1008A00000E100E0A9070000BD070000FC03001004
:1008B0002DE9F04F644B046887B09C4200F08D80B6
:1008C0006ADCA3F580439C4279D0604B0801D3F8E1
:1008D00000C0BCFBF0F293B200FB12C2002A00F091
:1008E000AA800125E6469946AB464FF0000A0191E1
:1008F000039100264FEA4E030493DDF804804FEA8B
:100900008E03EFB20593F3B20093049B002BABBFB1
:10091000059BB3FBF8F3B3FBF8F31B09A8BF5B0916
:100920000133C3F34F03002B00F0888016B1012B75
:1009300008BF0223A8195843C000BEFBF0F00130E5
:10094000C1EB50000028B8BF40420290029A0398C1
:10095000824262DA91425AD10F2D07D1BB469946A5
:10096000DDF800A05F464B46CDF800A0217B41F0AA
:1009700080012173C3F30721DBB221712370009B37
:1009800043EA0712D2B284F82820237B03F07F03C6
:10099000237307B0BDE8F08F2D4B9C4229D003F59F
:1009A00080439C4291D12B4BD3F8AC2122F44022BE
:1009B000C3F8AC21D3F8AC2142F4802224E0254BCB
:1009C000D3F8A82122F0C002C3F8A821D3F8A821A7
:1009D00042F04002C3F8A82177E71E4BD3F8A821C4
:1009E00022F44072C3F8A821D3F8A82142F48072FF
:1009F000F0E7184BD3F8AC2122F44032C3F8AC2115
:100A0000D3F8AC2142F48032C3F8AC215DE7BB4699
:100A10009946029ADDF800A003920136F3B2BB4278
:100A20008844FFF470AF0F2D9CD0019B01350B441F
:100A3000E64401935DE70127009297E7002E0CBF83
:100A40000123022376E700BF00000140CC00001024
:100A50000080094000C00F40034B196038234168F3
:100A60004B430249CA507047F4030010FC030010C6
:100A700010B50268137DDB07FCD5382443680848AD
:100A8000117804FB03035868C9B2013006D05869D5
:100A90009B680360536843F001035360084610BD30
:100AA000FC0300103821114A436801FB0323DA6973
:100AB000013209D01A6B1B6A12681A4214D10368FA
:100AC000187DC0F3801070470268127D920604D52D
:100AD0000022012083F83420704793F834000F2857
:100AE0008CBF00200120704700207047FC030010DD
:100AF00038B504460D462046FFF7D4FF0028FAD04B
:100B000038212368EDB21D706368044A01FB03239A
:100B100093F83420013283F8342038BDFC030010F0
:100B20002DE9F84F9A463C4C03680546A34218BF8E
:100B300000248946904647681CB1237C03F03F039C
:100B4000237438234FF0FF32344E284603FB0763EB
:100B5000DA615A60002283F835201146FFF742FE21
:100B6000B9F1000F55D02E494046FFF70DFD2D4934
:100B700083465046FFF708FDA9F10203012B1BD85D
:100B8000BAF1FF3F0BD0244B98420DD164B1237CC6
:100B9000244943F0800323745046FFF7C7FCB9F1A2
:100BA000030F0CD0BDE8F88F382000FB07605146DA
:100BB0001C30FFF77AFCF2E7B9F1010F29D1B8F147
:100BC000FF3F01D1BDE8F88F07222B681A72124B44
:100BD0009B450AD14CB1237C404643F0400323742B
:100BE0000F49BDE8F84FFFF7A1BC382404FB0760AC
:100BF000414600220430FFF75BFC01226B68284667
:100C000004FB036686F835200021BDE8F84FFFF7A6
:100C1000E9BDBDE8F88F00BF00000140FC030010F3
:100C2000F8640000D46400002DE9F0410F46054649
:100C3000464938461646FFF7B3FC45490446304658
:100C4000FFF7AEFC01462046FFF78CFC414B044603
:100C5000984228605DD047D8A3F58043984250D091
:100C600001234FF0000823724FF416512846C4F8B0
:100C70000480FFF71DFE03222B6834491A7338469F
:100C8000FFF754FC32493046FFF750FC7A1C03D082
:100C90004146384600F00CFA731C03D00021304660
:100CA00000F006FA2B4B9C424BD03ED8A3F5804374
:100CB0009C4243D038216A68274B284601FB023208
:100CC0004FF0FF3300215360D3611A46FFF728FF2E
:100CD000224B9C4206D10122214B69681A60286888
:100CE000204B03C3BDE8F0811F4B984217D003F59A
:100CF00080439842B4D11D4AD2F8C43043F0007307
:100D000004E01A4AD2F8C43043F00803C2F8C430F1
:100D1000A6E7164AD2F8C43043F01003F6E7134AA8
:100D2000D2F8C43043F08073F0E70F4B9C420AD0F6
:100D300003F580439C42BDD1032300E000236B6098
:100D4000B8E70123FBE70223F9E700BF886500004D
:100D50001C65000000000140FC03001000C00040C2
:100D6000F8030010100600100080094000C00F407A
:100D700008B5104B1868E0B901210F4A1960D2F884
:100D8000C43043F40003C2F8C430A2F5D022106787
:100D900002200A4B1B6850600948B3FBF0F3013B8B
:100DA000D36004205160074900F0B0F91022064BCF
:100DB0001A6008BDDC04001000C00F40CC00001019
:100DC00000093D00D904000000E100E008B5044B33
:100DD0001B680BB9FFF7CCFF024B986808BD00BF3A
:100DE000DC04001000400940034B98615A6942F04E
:100DF00001025A61704700BF00400940024A53692E
:100E000023F0010353617047004009400122014B68
:100E10001A607047004009400168054B0A681207D4
:100E200001D500207047013BF8D14FF0FF307047EB
:100E3000A18601003421036810B51A689961120770
:100E400048BF08224FF024010446196048BF9A6148
:100E5000FFF7E2FF2022236858689A6110BD000066
:100E6000102203681A6008229A61054A186810F077
:100E7000100000D17047013AF8D10120704700BF3F
:100E8000A1860100044B49001B689B08B3FBF1F1EC
:100E90000368596119617047CC000010F8B50E461F
:100EA0000446204930461546FFF77AFB1E4907469F
:100EB0002846FFF775FB01463846FFF753FB1B4BEF
:100EC0002060984221D003F58823984223D0A3F5CF
:100ED0000423984206D1164AD2F8C43043F0800366
:100EE000C2F8C43020461349FFF7CCFF3C222368E8
:100EF00030469A6140220B491A60FFF717FB2846DB
:100F0000BDE8F8400849FFF711BB094AD2F8C430E0
:100F100043F40023E4E7064AD2F8C43043F0806388
:100F2000DEE700BF30660000F465000000C0054049
:100F300000C00F40A08601002DE9F04E04460E4689
:100F400091461D46FFF776FF102809D0082807D0E4
:100F50002046FFF785FF6FF001052846BDE8F08EBB
:100F60000827236846F001069E6020469F61FFF730
:100F700053FF23685B68402B17D100264FF0040B0A
:100F800005F1FF3A5645236815DBC3F818B0204633
:100F90009F61FFF741FF23689A685B68582B1ED05A
:100FA0002046FFF75DFF5546D7E72046FFF758FF7D
:100FB0004FF0FF35D1E7C3F800B020469F61FFF73F
:100FC0002BFF23689A685B68502B04D02046FFF7FC
:100FD00047FF3546C1E709F806200136D2E7089BEE
:100FE00009F80620002BB8D02046FFF739FFB4E7F8
:100FF0002DE9F843089F04460E4691461D46FFF72B
:1010000019FF102809D0082807D02046FFF728FF2D
:101010006FF001052846BDE8F8834FF00808236803
:1010200006F0FE069E602046C3F81880FFF7F4FE27
:1010300023685B68182B08D10026AE420BDB002F1B
:10104000E8D02046FFF70CFFE4E72046FFF708FF53
:101050004FF0FF35DEE7236819F8062020469A6036
:10106000C3F81880FFF7D8FE23685B68282B04D0EC
:101070002046FFF7F5FE3546CCE70136DDE710B533
:10108000032400F16040A0F51C204300000980000B
:1010900000F1804000F53030026803F01E039C40F0
:1010A00022EA04020260026899401143016010BD07
:1010B00000F16040A0F51C2043099B0003F1804330
:1010C00003F5303330B500F01F029C6EC1F380058C
:1010D00005FA02F224EA02049C669C6E22439A6698
:1010E00095B9032443000009800000F1804000F519
:1010F0003030026C03F01E039C4022EA04020264BA
:10110000026C99401143016430BD000030B50C4CB5
:10111000A268A4681346B4F1805F0CD2131F094C77
:10112000094A53F8045F42F8045FA242F9D14FF034
:101130008053034A9360103043F8201030BD00BF45
:1011400000ED00E0C0000010FCFFFF0F2022264B46
:10115000C3F8A021D3F8A021920603D5D3F8A0218B
:101160005006FBD50222C3F8042100220120C3F857
:10117000A821C3F8AC210B22C3F80C01AA21C3F8A3
:1011800084205522C3F88C10C3F88C20C3F880004B
:10119000C3F88C10C3F88C20134B1A46D3F8881070
:1011A0004901FBD50321C3F88010AA21C3F88C1094
:1011B0005521C3F88C10D2F8883013F0407FFAD054
:1011C0000523C2F80831094BC2F8C4300023C2F825
:1011D000C831136823F4704323F03A0343F44053B7
:1011E00043F03A031360704700C00F40DE872804C5
:1011F0000368DB69184703685B69184703689B6AE3
:1012000018477047A0F13000FFF7FBBFA0F1300096
:10121000FFF7F7BF00F022BAA0F13000FFF7FABFE6
:1012200000F01FBAA0F13000FFF7FABF10B5044676
:1012300000F01EFA002104F1300000F027F9044B01
:10124000204603F1080228332260236310BD00BF4B
:101250006C660000C36810B504460BB19B689847E4
:10126000204610BD70470000024B1A680AB91A1DCB
:101270001A607047E004001010B5044600F035FC19
:10128000204610BD074B10B50360002304464360A1
:10129000054B04304360FFF701FE044B20461C6001
:1012A00010BD00BFE4660000A0860100E804001045
:1012B00070B504460D4603681B689847201DA5605D
:1012C0002946FFF7DFFD044B20461C602368BDE87C
:1012D00070405B68184700BFE804001070B5044612
:1012E0000368084D1B6898472B689C4204D0A1688E
:1012F000201DFFF7C7FD2C6023682046BDE8704025
:101300005B681847E8040010F7B504460E46174618
:101310001D4603681B6898472046FFF7DFFF9DF8CE
:101320002030314683F0010300933A462B46201DBE
:10133000FFF75EFE0646236820465B689847A81BB9
:1013400018BF012003B0F0BDF7B504460E4617469E
:101350001D4603681B6898472046FFF7BFFF9DF8AE
:101360002030314683F0010300933A462B46201D7E
:10137000FFF7E2FD0646236820465B689847A81BF6
:1013800018BF012003B0F0BD002310B50360436017
:101390000A7804462F2A0DD14A785AB1481C1946BA
:1013A000206023681A782F2A06D10133236000F0C9
:1013B00029F96060204610BD002AF8D001330131C0
:1013C0002360EEE700687047406808B520B100F080
:1013D000C3F8431E5842584108BD10B50446FFF7F4
:1013E000F3FF00B1606810BD406808B520B100F09F
:1013F000B3F8B0FA80F0400908BD10B50446FFF715
:10140000F3FF00B1606810BD4068003018BF0120D4
:10141000704770477047F8B50E46036804469B6BEB
:101420008F1835469847BD4207D0236815F8011B31
:101430001B6C204698470130F5D123682046DB6BB2
:101440009847A81BF8BDF8B50E46036804469B6B89
:101450008F1835469847BD4208D0236820465B6CFC
:101460009847431C02D005F8010BF4E72368204697
:10147000DB6B9847A81BF8BD002070470020704721
:101480007047002070470020704700001FB50446D9
:10149000002200F069F8094B224623600023084926
:1014A000236101A802F020FF064901A801F0C0FC59
:1014B000206100F0F4FA204604B010BD4C67000033
:1014C0003C6700004067000010B50446054B036010
:1014D000006901F0F3FA044B2046236000F062F843
:1014E000204610BD4C670000FC6600000EB477B5C6
:1014F0000446036807AD55F8046B9B6B9847206959
:10150000019501F095FB019A3146206902F01EF821
:10151000054623682046DB6B9847284603B0BDE8A4
:10152000704003B070470368184708B10B68036048
:1015300070477047884238B504460D460AD0FFF719
:1015400089FE3CB1EB681BB15B6829462046984791
:10155000EB68E360204638BD007B704703680BB939
:10156000031D03600068704738B50B4B04460360E9
:1015700000230D464360A16002730848FFF7EEFFA9
:1015800045B1074B1A681C6062600448FFF7E6FF2C
:10159000204638BD6560F8E7A8670000F004001039
:1015A000EC04001010B504460E4B03600E48FFF724
:1015B000D5FFA3682BB10D4A13689C420CD1636818
:1015C00013600948FFF7CAFF237B13B9204600F0D8
:1015D0008FFA204610BD13465A689442FBD16268C8
:1015E0005A60EEE7A8670000F0040010EC04001059
:1015F00010B50446FFF7D6FF204600F076FA2046E5
:1016000010BD0000F8B507460D480E46FFF7A6FFCF
:101610000C4B1C6864B1A5687DB13246394628463A
:1016200002F007FF48B9284602F0FBFE864204D1CB
:101630000348FFF793FF2046F8BD6468EAE700BF60
:10164000F0040010EC04001070477047704700EB86
:101650000112936902F10C001B6818470430FFF770
:1016600007BA10B50C460430FFF742FA204610BD09
:101670002DE9FF410F46002104469046174A184EB7
:10168000184DC36202604160816081618162694678
:101690000C3003950096FFF74DFF6846FFF7DAFD23
:1016A000694604F11C0003950096251DFFF742FFD3
:1016B0006846FFF7CFFD424639462846FFF7B4FAA1
:1016C000E16A2846FFF7F4F8284622460649FFF764
:1016D000C3F9204604B0BDE8F08100BFB867000040
:1016E00049160000946700004F16000010B504462C
:1016F000006930B1036861695B6A98470023236120
:1017000010BD6FF0150010BD30B4044600690368C9
:101710009D6A1346AC460A46616930BC604730B4E6
:10172000044600690368DD6A1346AC460A466169EF
:1017300030BC6047036941691A681846126B10474C
:10174000036941691A681846526B104730B4044661
:10175000006903689D6B1346AC460A46616930BC5C
:101760006047036941691A681846D26B10470369DC
:1017700041691A681846126C1047036941691A6872
:101780001846526C104770B50D460169044641B9C0
:1017900029680E6A00F114012846B04718B925617E
:1017A00070BD6FF0150070BD074B10B50360036985
:1017B00004460BB1FFF79AFF044B20462360FFF766
:1017C000F1FE204610BD00BFD0670000FC6600009F
:1017D00010B50446FFF7E8FF204600F086F92046E2
:1017E00010BD0000002210B504461146FFF7BCFEF4
:1017F000034B2046236000232361636110BD00BFBB
:10180000D067000001F0E0BC01F03CBD01F090BCED
:1018100001F07FBC034B10B503600446FFF7C4FF23
:10182000204610BD1C68000008B5084B1B685BB95A
:1018300007490848084AFFF7F7F94FF41651BDE881
:1018400008400448FFF734B808BD00BFF803001093
:1018500002C009201006001003C0092070470000D4
:10186000022810B5044601DC002010BD01F0CEF8BE
:10187000092300220360094B033C53F8240043F87A
:10188000242040B103681B699847041EECDA01F07C
:10189000BDF8644204604FF0FF3010BDF804001042
:1018A000F8B505460E46144601F0B0F80923022D9E
:1018B00003600FDC124B1B680BB9FFF7B5FF354611
:1018C0003719104EBD4215D015F8011B3046FFF7F1
:1018D0000FF9F7E70C4B033D53F8250060B103689F
:1018E0002246DB6831469847041E03DA01F08EF881
:1018F000634203602046F8BD4FF0FF34FAE700BFB3
:10190000F803001010060010F804001070B504462B
:101910000D46164601F07AF80923022C03600BDC11
:101920000F4B1B680BB9FFF77FFF0E48FFF7A0F8BE
:1019300001242870204670BD0B4B033C53F8240053
:1019400058B1036832469B6829469847041EF1DA6D
:1019500001F05CF863420360ECE74FF0FF34E9E725
:10196000F803001010060010F804001010B504462B
:1019700001F04CF80923022C036010DD0A4B033CF4
:1019800053F8240040B103689B699847041E08DAA5
:1019900001F03CF8644204604FF0FF3010BD0120BC
:1019A00010BD002010BD00BFF804001070B5044643
:1019B0000D46164601F02AF80923022C03600BDDC0
:1019C000084B033C53F8240040B1036832462946D3
:1019D000BDE87040DB691847002070BD4FF0FF3054
:1019E00070BD00BFF8040010022808B504DC4FF4F5
:1019F000005300204B6008BD01F008F80923036084
:101A00004FF0FF3008BD704708B5FFF727FFFFF71D
:101A1000FAFF08BD704708B5FFF7FCFFBDE80840B6
:101A2000FEF74EBC0C4A10B513681844EFF308815A
:101A3000884205D30C22094B4FF0FF301A6010BDCD
:101A400007490C6824B10749096821448842F1D24A
:101A50001060184610BD00BFD0000010180600101E
:101A60000006001004060010094C08B5236805465E
:101A7000986801F0DDF82368D86801F0D9F8FEF71E
:101A8000AFFD08B1FEF7CAFD0DB1FEF7E1FDFEE7BF
:101A9000D40000100120704708B5FFF7E5FF0021D2
:101AA00002F06BBB7047704708B5FFF7FBFF08BD3E
:101AB00008B5FFF7F8FF08BD10B501F0F9FA0446C4
:101AC00010B90248FEF7BEFD204610BD6068000058
:101AD00008B101F0F5BA704710B50446FFF79AFE59
:101AE0002046FFF7F5FF204610BDFFF7F1BF0000CD
:101AF00010B504460948FFF731FD00231946084A8E
:101B000052F82300A04208BF42F823100133402BB3
:101B1000F6D10248FFF722FD10BD00BFF805001006
:101B2000F80400102DE9F34789464A49064602F0B9
:101B30006EFC044628B9FFF777FE204602B0BDE8E8
:101B4000F0874549304602F062FC18B9FFF76CFE99
:101B50000124F2E74149304602F059FC18B9FFF779
:101B600063FE0224E9E700F051FF09233C4F0360C4
:101B70003C48FFF7F3FC0024B84657F82450002DEA
:101B800052D00134402CF8D100F040FF18230360FC
:101B90003448FFF7E3FC0DE031466846FFF7F4FBFD
:101BA0006846FFF731FC40B947F8240000F02EFFEB
:101BB000022303604FF0FF34BFE76846FFF714FCD1
:101BC00020B16846FFF719FC05463DE06846FFF77F
:101BD00004FC824630B900F019FF0223036047F885
:101BE00024A0E7E71820FFF767FF0646FFF7FAFD96
:101BF0001D4B68463360FFF7E5FB29F4803302464E
:101C000051463046FFF7BFFD071E0BDA00F0FEFE1F
:101C10007F4207601EB1336830465B68984748F8DA
:101C20002450C7E735460FE04FF0FF330D4847F823
:101C30002430FFF793FC33783A2BADD16A460B4939
:101C4000304602F075FB009D002DE8D048F8245086
:101C5000033472E7856800008C6800007D6800002E
:101C6000F8040010F80500101C6800003C67000034
:101C700038B50446FFF73AFD05461CB123682046F7
:101C80005B689847284638BD0649074A074B9A4281
:101C9000BEBF51F8040B42F8040BF8E70448804734
:101CA00004480047846B0000C8000010B002001018
:101CB0004D1100001D040000FEE7FEE7FEE7FEE711
:101CC000FEE7FEE7FEE7FEE7FEE7FEE781F0004104
:101CD00002E000BF83F0004330B54FEA41044FEA11
:101CE000430594EA050F08BF90EA020F1FBF54EAAC
:101CF000000C55EA020C7FEA645C7FEA655C00F048
:101D0000E2804FEA5454D4EB5555B8BF6D420CDD18
:101D10002C4480EA020281EA030382EA000083EA9B
:101D2000010180EA020281EA0303362D88BF30BD3B
:101D300011F0004F4FEA01314FF4801C4CEA113191
:101D400002D0404261EB410113F0004F4FEA0333F0
:101D50004CEA133302D0524263EB430394EA050F7B
:101D600000F0A780A4F10104D5F1200E0DDB02FAEA
:101D70000EFC22FA05F2801841F1000103FA0EF27E
:101D8000801843FA05F359410EE0A5F120050EF144
:101D9000200E012A03FA0EFC28BF4CF0020C43FA75
:101DA00005F3C01851EBE37101F0004507D54FF082
:101DB000000EDCF1000C7EEB00006EEB0101B1F5D2
:101DC000801F1BD3B1F5001F0CD349085FEA300018
:101DD0004FEA3C0C04F101044FEA445212F5800F23
:101DE00080F09A80BCF1004F08BF5FEA500C50F1C0
:101DF000000041EB045141EA050130BD5FEA4C0CA3
:101E0000404141EB010111F4801FA4F10104E9D12B
:101E100091F0000F04BF01460020B1FA81F308BF22
:101E20002033A3F10B03B3F120020CDA0C3208DDEE
:101E300002F1140CC2F10C0201FA0CF021FA02F1C9
:101E40000CE002F11402D8BFC2F1200C01FA02F139
:101E500020FA0CFCDCBF41EA0C019040E41AA2BF5E
:101E600001EB0451294330BD6FEA04041F3C1CDA26
:101E70000C340EDC04F11404C4F1200220FA04F046
:101E800001FA02F340EA030021FA04F345EA0301F0
:101E900030BDC4F10C04C4F1200220FA02F001FAB2
:101EA00004F340EA0300294630BD21FA04F0294634
:101EB00030BD94F0000F83F4801306BF81F48011CD
:101EC0000134013D4EE77FEA645C18BF7FEA655C40
:101ED00029D094EA050F08BF90EA020F05D054EA12
:101EE000000C04BF1946104630BD91EA030F1EBF17
:101EF0000021002030BD5FEA545C05D1400049411B
:101F000028BF41F0004130BD14F580043CBF01F50D
:101F1000801130BD01F0004545F0FE4141F47001F3
:101F20004FF0000030BD7FEA645C1ABF19461046CE
:101F30007FEA655C1CBF0B46024650EA013406BFCF
:101F400052EA033591EA030F41F4002130BD00BF8E
:101F500090F0000F04BF0021704730B54FF480644B
:101F600004F132044FF000054FF0000150E700BFCC
:101F700090F0000F04BF0021704730B54FF480642B
:101F800004F1320410F0004548BF40424FF0000118
:101F90003EE700BF42004FEAE2014FEA31014FEA5B
:101FA00002701FBF12F07F4393F07F4F81F06051AA
:101FB000704792F0000F14BF93F07F4F704730B519
:101FC0004FF4607401F0004521F0004120E700BFAC
:101FD00050EA010208BF704730B54FF000050AE033
:101FE00050EA010208BF704730B511F0004502D534
:101FF000404261EB41014FF4806404F132045FEA36
:10200000915C3FF4DCAE4FF003025FEADC0C18BFDA
:1020100003325FEADC0C18BF033202EBDC02C2F1D0
:10202000200300FA03FC20FA02F001FA03FE40EA62
:102030000E0021FA02F11444C1E600BF70B54FF062
:10204000FF0C4CF4E06C1CEA11541DBF1CEA135544
:1020500094EA0C0F95EA0C0F00F0DEF82C4481EAAC
:10206000030621EA4C5123EA4C5350EA013518BFCC
:1020700052EA033541F4801143F4801338D0A0FBB9
:1020800002CE4FF00005E1FB02E506F00042E0FB66
:1020900003E54FF00006E1FB03569CF0000F18BF6C
:1020A0004EF0010EA4F1FF04B6F5007F64F5407414
:1020B00004D25FEA4E0E6D4146EB060642EAC621A7
:1020C00041EA55514FEAC52040EA5E504FEACE2E14
:1020D000B4F1FD0C88BFBCF5E06F1ED8BEF1004F17
:1020E00008BF5FEA500E50F1000041EB045170BD93
:1020F00006F0004646EA010140EA020081EA0301D7
:10210000B4EB5C04C2BFD4EB0C0541EA045170BDD2
:1021100041F480114FF0000E013C00F3AB8014F14C
:10212000360FDEBF002001F0004170BDC4F1000495
:10213000203C35DA0C341BDC04F11404C4F1200516
:1021400000FA05F320FA04F001FA05F240EA020071
:1021500001F0004221F0004110EBD37021FA04F6A7
:1021600042EB06015EEA430E08BF20EAD37070BD61
:10217000C4F10C04C4F1200500FA04F320FA05F0C0
:1021800001FA04F240EA020001F0004110EBD370C2
:1021900041F100015EEA430E08BF20EAD37070BD32
:1021A000C4F1200500FA05F24EEA020E20FA04F30B
:1021B00001FA05F243EA020321FA04F001F00041BA
:1021C00021FA04F220EA020000EBD3705EEA430E2B
:1021D00008BF20EAD37070BD94F0000F0FD101F05A
:1021E0000046400041EB010111F4801F08BF013C93
:1021F000F7D041EA060195F0000F18BF704703F0D1
:102200000046520043EB030313F4801F08BF013D57
:10221000F7D043EA0603704794EA0C0F0CEA135513
:1022200018BF95EA0C0F0CD050EA410618BF52EACD
:102230004306D1D181EA030101F000414FF00000D3
:1022400070BD50EA410606BF1046194652EA4306E1
:1022500019D094EA0C0F02D150EA013613D195EA55
:102260000C0F05D152EA03361CBF104619460AD19D
:1022700081EA030101F0004141F0FE4141F47001A7
:102280004FF0000070BD41F0FE4141F4780170BD97
:1022900070B54FF0FF0C4CF4E06C1CEA11541DBFFC
:1022A0001CEA135594EA0C0F95EA0C0F00F0A7F8FE
:1022B000A4EB050481EA030E52EA03354FEA01312B
:1022C00000F088804FEA03334FF0805545EA13133E
:1022D00043EA12634FEA022245EA111545EA106506
:1022E0004FEA00260EF000419D4208BF964244F19D
:1022F000FD0404F5407402D25B084FEA3202B61ABC
:1023000065EB03055B084FEA32024FF480104FF48F
:10231000002CB6EB020E75EB030E22BFB61A754603
:1023200040EA0C005B084FEA3202B6EB020E75EB96
:10233000030E22BFB61A754640EA5C005B084FEAFE
:102340003202B6EB020E75EB030E22BFB61A7546CB
:1023500040EA9C005B084FEA3202B6EB020E75EBD6
:10236000030E22BFB61A754640EADC0055EA060E97
:1023700018D04FEA051545EA16754FEA06164FEADA
:10238000C30343EA52734FEAC2025FEA1C1CC0D186
:1023900011F4801F0BD141EA00014FF000004FF013
:1023A000004CB6E711F4801F04BF01430020B4F1D4
:1023B000FD0C88BFBCF5E06F3FF6AFAEB5EB030C8C
:1023C00004BFB6EB020C5FEA500C50F1000041EB89
:1023D000045170BD0EF0004E4EEA113114EB5C0456
:1023E000C2BFD4EB0C0541EA045170BD41F4801129
:1023F0004FF0000E013C90E645EA060E8DE60CEA31
:10240000135594EA0C0F08BF95EA0C0F3FF43BAF4D
:1024100094EA0C0F0AD150EA01347FF434AF95EA04
:102420000C0F7FF425AF104619462CE795EA0C0FE8
:1024300006D152EA03353FF4FDAE1046194622E7B5
:1024400050EA410618BF52EA43067FF4C5AE50EA8F
:1024500041047FF40DAF52EA43057FF4EBAE12E77F
:102460004FEA410212F5001215D211D56FF47873BC
:10247000B3EB625212D94FEAC12343F0004343EA5F
:10248000505311F0004F23FA02F018BF404270473A
:102490004FF00000704750EA013005D111F00040C4
:1024A00008BF6FF0004070474FF00000704700BF5A
:1024B0004FEA4102B2F1E04324BFB3F5001CDCF166
:1024C000FE5C0DD901F0004C4FEAC0024CEA50709E
:1024D000B2F1004F40EB830008BF20F001007047CD
:1024E00011F0804F21D113F13872BCBF01F00040D0
:1024F000704741F480114FEA5252C2F11802C2F102
:10250000200C10FA0CF320FA02F018BF40F0010082
:102510004FEAC1234FEAD32303FA0CFC40EA0C0034
:1025200023FA02F34FEA4303CCE77FEA625307D171
:1025300050EA01331EBF4FF0FE4040F440007047A8
:1025400001F0004040F0FE4040F40000704700BF42
:1025500080F0004002E000BF81F0004142001FBF58
:102560005FEA410392EA030F7FEA226C7FEA236C61
:102570006AD04FEA1262D2EB1363C1BFD218414056
:1025800048404140B8BF5B42192B88BF704710F0EC
:10259000004F40F4000020F07F4018BF404211F08F
:1025A000004F41F4000121F07F4118BF494292EAF7
:1025B000030F3FD0A2F1010241FA03FC10EB0C0023
:1025C000C3F1200301FA03F100F0004302D54942B0
:1025D00060EB4000B0F5000F13D3B0F1807F06D35D
:1025E00040084FEA310102F10102FE2A51D2B1F155
:1025F000004F40EBC25008BF20F0010040EA03004A
:102600007047490040EB000010F4000FA2F10102F6
:10261000EDD1B0FA80FCACF1080CB2EB0C0200FA80
:102620000CF0AABF00EBC25052421843BCBFD040CE
:102630001843704792F0000F81F4000106BF80F448
:1026400000000132013BB5E74FEA41037FEA226C0B
:1026500018BF7FEA236C21D092EA030F04D092F0D6
:10266000000F08BF0846704790EA010F1CBF00200A
:10267000704712F07F4F04D1400028BF40F0004067
:10268000704712F100723CBF00F50000704700F087
:10269000004343F0FE4040F4000070477FEA2262AE
:1026A00016BF08467FEA23630146420206BF5FEA7F
:1026B000412390EA010F40F4800070474FF000037F
:1026C00004E000BF10F0004348BF40425FEA000C46
:1026D00008BF704743F0964301464FF000001CE0EE
:1026E00050EA010208BF70474FF000030AE000BF44
:1026F00050EA010208BF704711F0004302D5404282
:1027000061EB41015FEA010C02BF844601460020F3
:1027100043F0B64308BFA3F18053A3F50003BCFA0E
:102720008CF2083AA3EBC25310DB01FA02FC6344BB
:1027300000FA02FCC2F12002BCF1004F20FA02F2C2
:1027400043EB020008BF20F00100704702F12002B5
:1027500001FA02FCC2F1200250EA4C0021FA02F216
:1027600043EB020008BF20EADC7070474FF0FF0C1B
:102770001CEAD0521EBF1CEAD15392EA0C0F93EA16
:102780000C0F6FD01A4480EA010C400218BF5FEAB8
:1027900041211ED04FF0006343EA501043EA51112B
:1027A000A0FB01310CF00040B1F5000F3EBF490025
:1027B00041EAD3715B0040EA010062F17F02FD2A29
:1027C0001DD8B3F1004F40EBC25008BF20F001000C
:1027D000704790F0000F0CF0004C08BF49024CEA23
:1027E000502040EA51207F3AC2BFD2F1FF0340EAB5
:1027F000C250704740F400004FF00003013A5DDC26
:1028000012F1190FDCBF00F000407047C2F1000266
:10281000410021FA02F1C2F1200200FA02FC5FEA53
:10282000310040F1000053EA4C0308BF20EADC709D
:10283000704792F0000F00F0004C02BF400010F40F
:10284000000F013AF9D040EA0C0093F0000F01F0BC
:10285000004C02BF490011F4000F013BF9D041EADE
:102860000C018FE70CEAD15392EA0C0F18BF93EAE0
:102870000C0F0AD030F0004C18BF31F0004CD8D10A
:1028800080EA010000F00040704790F0000F17BF91
:1028900090F0004F084691F0000F91F0004F14D0D7
:1028A00092EA0C0F01D142020FD193EA0C0F03D12F
:1028B0004B0218BF084608D180EA010000F0004032
:1028C00040F0FE4040F40000704740F0FE4040F40D
:1028D000400070474FF0FF0C1CEAD0521EBF1CEAAC
:1028E000D15392EA0C0F93EA0C0F69D0A2EB0302CA
:1028F00080EA010C49024FEA402037D04FF0805364
:1029000043EA111143EA10130CF000408B4238BF28
:102910005B0042F17D024FF4000C8B4224BF5B1A36
:1029200040EA0C00B3EB510F24BFA3EB510340EA84
:102930005C00B3EB910F24BFA3EB910340EA9C0032
:10294000B3EBD10F24BFA3EBD10340EADC001B01A2
:1029500018BF5FEA1C1CE0D1FD2A3FF650AF8B4246
:1029600040EBC25008BF20F0010070470CF0004C53
:102970004CEA50207F32C2BFD2F1FF0340EAC2507E
:10298000704740F400004FF00003013A37E792F03F
:10299000000F00F0004C02BF400010F4000F013A9D
:1029A000F9D040EA0C0093F0000F01F0004C02BF98
:1029B000490011F4000F013BF9D041EA0C0195E701
:1029C0000CEAD15392EA0C0F08D142027FF47DAF9A
:1029D00093EA0C0F7FF470AF084676E793EA0C0F8A
:1029E00004D14B023FF44CAF08466EE730F0004C88
:1029F00018BF31F0004CCAD130F000427FF45CAF18
:102A000031F000437FF43CAF5FE700BF014B186833
:102A1000704700BFD400001070B505460C4611B9D0
:102A20000026304670BD18B183690BB900F052F929
:102A30001F4B9C4232D16C68B4F90C30002BEFD0A4
:102A40002146284600F042F8236B064633B1216A3E
:102A5000284698470028B8BF4FF0FF36A3891B06C9
:102A600003D521692846FEF7D1FE616B41B104F11F
:102A70004403994202D02846FEF7C8FE0023636350
:102A8000A16C21B12846FEF7C1FE0023A36400F02B
:102A90008DF90023A38100F08AF9C2E7054B9C421F
:102AA00001D1AC68C8E7044B9C4208BFEC68C3E79F
:102AB000B4680000D468000094680000024B01462E
:102AC0001868FFF7A9BF00BFD40000108A892DE95C
:102AD000F041054610070C465AD44B68002B05DC24
:102AE0000B6C002B02DC0020BDE8F081E66A002EB2
:102AF000F9D0002312F480522F682B6033D0606D20
:102B0000A3895A0705D56368C01A636B0BB1236CA0
:102B1000C01A00230246E66A216A2846B047431CD1
:102B2000A38906D129681D294BD82B4ACA40D6074C
:102B300047D5002262602269D904226004D5421C74
:102B400001D12B6803B96065616B2F600029CAD081
:102B500004F14403994202D02846FEF757FE0020B4
:102B60006063BDE8F081216A01232846B047411C1B
:102B7000C6D12B68002BC3D01D2B01D0162B01D141
:102B80002F60B0E7A38943F04003A381BDE8F08143
:102B90000F69002FA7D0930718BF00230E6808BF46
:102BA0004B69A6EB07080F608B60B8F1000F9ADD48
:102BB00043463A46216A2846A66AB047002807DC01
:102BC000A38943F04003A3814FF0FF30BDE8F081BB
:102BD0000744A8EB0008E8E70100402038B50B697E
:102BE00005460C46DBB118B183690BB900F072F8E9
:102BF0000C4B9C4209D16C68B4F90C307BB1214676
:102C00002846BDE83840FFF761BF074B9C4201D121
:102C1000AC68F1E7054B9C4208BFEC68ECE700208C
:102C200038BD00BFB4680000D4680000946800009C
:102C3000014620B9044B0549186800F093B9044BCC
:102C40001868FFF7CBBF00BFF4680000DD2B000061
:102C5000D4000010014900F085B900BFDD2B000051
:102C6000002310B50446036043608360818143669E
:102C7000C281036143618361194608225C3000F020
:102C800040FA054B24626362044BA362044BE36287
:102C9000044B236310BD00BF85430000AB4300001D
:102CA000E34300000744000070B568254A1E554301
:102CB0000E4605F17401FEF7A5FD044640B1002162
:102CC00080E842000C30A06005F1680200F019FABB
:102CD000204670BD836910B5044633BB8364C3646A
:102CE0000365124B124A1B688262984204BF01239B
:102CF000836100F01FF86060204600F01BF8A060C0
:102D0000204600F017F80022E06004216068FFF719
:102D1000A7FF01220921A068FFF7A2FF02221221CA
:102D2000E068FFF79DFF0123A36110BDF468000078
:102D3000552C0000F8B51C4B07461E68B36913B943
:102D40003046FFF7C7FF4836B4687368013B03D5C8
:102D5000336833B13668F7E7B4F90C506DB16834B5
:102D6000F4E704213846FFF79FFF30600028F1D1D7
:102D70000C2304463B602046F8BD4FF6FF73E38109
:102D800001236566A3812560A56065602561656195
:102D9000A5610822294604F15C0000F0B2F96563E0
:102DA000A563A564E564E6E7F46800007047704732
:102DB000F7B50F46114601AA054602F0EDFB06469F
:102DC00018B90024204603B0F0BD2846FFF7B2FF33
:102DD00004460028F5D04FF4DB73019A39462846A3
:102DE00001F07AF9002806DA0025FFF7DFFFA58158
:102DF000FFF7DDFFE5E70A4BE0816362094BA6813F
:102E0000A362094B2462E362084B2363F305D9D51F
:102E1000022300222146284600F012F8D2E700BF24
:102E200085430000AB430000E3430000074400007B
:102E3000024B0A4601461868FFF7BABFD4000010DB
:102E400000F000B82DE9F8430C4691461E460546B1
:102E500018B183690BB9FFF73DFF3F4B9C4212D17C
:102E60006C68A38903F48473B3F5847F03D121468E
:102E70002846FFF7B3FED4F82C80B8F1000F0CD130
:102E80001D232B6057E0354B9C4201D1AC68E8E72D
:102E9000334B9C4208BFEC68E3E7012E30D0022E92
:102EA00001D0002E55D123691BB92146284600F0D8
:102EB000BFF821462846FFF791FE074600283AD181
:102EC00033464A46216A2846C047013033D0616BF9
:102ED00041B104F14403994202D02846FEF796FC22
:102EE000002363630021236961602360A3890822B2
:102EF00023F40263A38104F15C0000F002F91CE0FA
:102F000021462846FFF76AFEA28912F480520CD0AF
:102F1000606DA3895A0713D56368C01A636B0BB140
:102F2000236CC01A81440026BDE7216A3346284637
:102F3000C047411CEDD14FF0FF373846BDE8F8835C
:102F40001B07EFD52368002BECD022699B1A18448D
:102F5000E8E7162395E700BFB4680000D4680000D6
:102F6000946800002DE9F84380468946002600F168
:102F7000480414B93046BDE8F883A5686768013F86
:102F800001D52468F5E7AB89012B07D9B5F90E30D7
:102F9000013303D029464046C84706436835EEE76B
:102FA00070B500250C4E0D4CA41BA410A54209D1F0
:102FB00003F03EFA00250A4E0A4CA41BA410A542B9
:102FC00005D170BD56F8253098470135EEE756F823
:102FD000253098470135F2E7A4020010A402001042
:102FE000A4020010AC02001070B50E46B1F90E102C
:102FF00090B0002914461D4607DA00232B60B389E0
:103000001A0610D44FF480630EE001AA02F0FAFA17
:103010000028F2DB029A02F47042A2F500535A42F1
:103020005A412A60EEE740230020236010B070BDB3
:103030008B8973B59D0706460C4607D504F14703F7
:10304000236023610123636102B070BD01AB6A4656
:10305000FFF7CAFF009905463046FEF7D3FB48B993
:10306000B4F90C309A05EFD423F0030343F00203C4
:10307000A381E3E70D4BB362A389206043F0800393
:10308000A381009B20616361019B5BB1B4F90E10C9
:10309000304602F0C9FA28B1A38923F0030343F0B4
:1030A0000103A381A3891D43A581CDE7552C000011
:1030B000024B01461868FEF7A5BB00BFD400001004
:1030C000024B01461868FEF7A1BB00BFD4000010F8
:1030D00010B5C9B202449042034601D1002010BD90
:1030E0001C7801308C42F6D1184610BD10B5431E35
:1030F0000A44914200D110BD11F8014B03F8014F71
:10310000F7E703460244934200D1704703F8011BDE
:10311000F9E738B502FB01F42146FEF773FB0546DB
:1031200018B122460021FFF7ECFF284638BD000009
:1031300038B50546002943D051F8043C0C1F002B3C
:10314000B8BFE418FEF7B0FC1E4A1368104633B946
:10315000636014602846BDE83840FEF7A9BCA3426E
:103160000BD921686218934201BF1A685B68521834
:10317000226063600460EDE713465A680AB1A24218
:10318000FAD919685818A0420BD120680144581880
:1031900082421960DED110685268014419605A6099
:1031A000D8E702D90C232B60D4E7206821188A4283
:1031B00001BF116852680918216062605C60C9E74C
:1031C00038BD00BF0806001070B5CD1C25F0030502
:1031D00008350C2D38BF0C25002D064601DBA94211
:1031E00003D90C233360002070BDFEF75DFC234A39
:1031F0001468214691B9224C23681BB9304600F06F
:103200007DFF20602946304600F078FF431C26D120
:103210000C2330463360FEF74BFCE4E70B685B1B86
:103220001AD40B2B0FD90B60CC18CD503046FEF7BB
:103230003FFC04F10B00231D20F00700C31A1BD034
:103240005A42E25070BD8C420BBF63684B681360FA
:10325000636018BF0C46E9E70C464968CAE7C41C1E
:1032600024F00304A04205D0211A304600F046FFA6
:103270000130CDD02560D9E770BD00BF0806001031
:103280000C060010F8B5074614460E4621B9114643
:10329000BDE8F840FEF7B6BA22B9FEF7B7FA254600
:1032A0002846F8BD02F0FFFC84420FD9214638467B
:1032B000FEF7A8FA05460028F2D031462246FFF76D
:1032C00015FF31463846FEF7A1FAE9E73546E7E74C
:1032D000936810B4013B002B936008DA9469A34211
:1032E00002DBCBB20A2B02D110BC01F011BA136879
:1032F000581C10601970C8B210BC7047F8B506466B
:103300000F461446D518AC4201D1002007E03A46DA
:1033100014F8011B3046FFF7DBFF431CF3D1F8BD67
:103320002DE9F04F9DB00C4617460393064618B1A1
:1033300083690BB9FFF7CEFC7C4B9C4257D1746874
:10334000A38918075DD52369002B5AD00023099360
:1033500020238DF8293030234FF0010B8DF82A30CF
:10336000B846454615F8013B002B55D1B8EB070A86
:103370000BD053463A4621463046FFF7BFFF013097
:1033800000F0C480099B5344099398F80030002B47
:1033900000F0BC8000234FF0FF32049307930592A6
:1033A00006938DF853301A93052229786048FFF769
:1033B0008FFE05F10108049B002831D1D90644BFD6
:1033C00020228DF853201A0744BF2B228DF853205A
:1033D0002A782A2A2CD000210A20079AA84698F891
:1033E00000300135303B092B6DD971B326E0514BCC
:1033F0009C4201D1B468A3E74F4B9C4208BFF468DC
:103400009EE72146304601F0E7F900289ED04FF0B4
:10341000FF301DB0BDE8F08F252BA7D0A846A0E750
:10342000434A4546801A0BFA00F018430490BBE764
:10343000039A111D12680391002A01DB079204E030
:10344000524243F002030792049398F800302E2B67
:1034500010D198F8013008F101012A2B37D1039BD4
:1034600008F102081A1D1B680392002BB8BF4FF029
:10347000FF330593314D032298F800102846FFF7DB
:1034800027FE40B14023401B03FA00F0049B08F1E3
:1034900001080343049398F800100622284808F115
:1034A00001078DF82810FFF713FE002834D0254BB4
:1034B00003BB039B073323F0070308330393099BE4
:1034C0004B4409934CE700FB0232012186E70023BD
:1034D0000A2518460593884698F800200131303AAD
:1034E000092A03D9002BC5D00590C3E705FB0020AE
:1034F0000123F0E703AB00932246134B04A93046A7
:1035000000F0C0F8B0F1FF3F8146D8D1A3895B0637
:103510003FF57DAF09987CE703AB009322460A4B49
:1035200004A9304600F05EFBECE700BFB468000081
:10353000F8680000D468000094680000FE6800008D
:103540000269000085360000FD32000013460A467D
:10355000014602480068FFF7E3BE00BFD400001038
:10356000002B2DE9F0471E46BBBF03F100431E466A
:1035700000232D2388B0149F129927F02007462F8F
:103580001446109DDDF84CA00B7004D0452F00D1DF
:103590000135022300E0032307AA049206AA03923E
:1035A0008DE828042246334601F022FA472F804650
:1035B00002D1119BDB0726D5462F08EB050911D157
:1035C00098F80030302B0AD10022002320463146E3
:1035D00002F0E6FE18B9C5F10105CAF80050DAF8A4
:1035E00000309944002200232046314602F0D8FEE4
:1035F00038B93022079B994505D9591C07911A7093
:10360000F8E7CDF81C904046079B159AA3EB0803FA
:10361000136008B0BDE8F0870346F7B5002903F84A
:10362000022BB6BF2D222B2249420929427021DDEF
:103630000DF1070217460A2691FBF6F506FB151158
:10364000092D01F1300102F8011C02F1FF34294675
:1036500009DC3031023A04F8011CBA421C4604D39A
:10366000201A03B0F0BD2246E6E712F8011B03F86A
:10367000011BF2E730221C46114404F8022B59705A
:10368000EEE700002DE9F04F91B00C461A9F9346EB
:103690001E46054601F0EAFF03681846099300F04C
:1036A000C0FE00230E933B680A90073323F0070304
:1036B00003F1080294F81880D4F800A03A60D3E926
:1036C0000023C4E91223D4F84C90A76C29F00043DE
:1036D0000B934FF0FF32A64B38460B9902F092FE47
:1036E000002840F0F7814FF0FF32A14B38460B998C
:1036F00002F06AFE002840F0ED81002200233846E7
:10370000494602F057FE10B12D2384F84330994BFF
:10371000994FB8F1470F98BF1F4603234FF0000998
:1037200023612AF00403236000965B460FAA21461A
:10373000284600F0DFF9013040F09A804FF0FF306A
:1037400011B0BDE8F08F62680EA8531C0DF1340E65
:103750004AF4806341D10622626000212360019314
:1037600063680DF133020590029200933A464B468E
:103770000691CDF81080CDF80CE02846FFF7F0FE5A
:1037800008F0DF03472B074609D10D9BD81C02DB4D
:103790006268934259DDA8F102085FFA88F8B8F12F
:1037A000650F0D9936D80139424604F150000D914C
:1037B000FFF732FF0E9A81468318012A236102DC4B
:1037C0002268D10701D5013323619DF83330002BE6
:1037D000AAD02D2384F84330A6E7B8F1670F02D0B2
:1037E000B8F1470FB9D19AB1002106910DF133011B
:1037F0008DE80C00236005903A46CDF81080CDF896
:103800000CE002914B462846FFF7AAFE0746BCE7AC
:103810000122A1E7B8F1660F19D1002963680CDD18
:10382000216113B92268D20702D501330B44236109
:103830000D9B4FF00009A365C7E713B92268D007B5
:1038400001D50233F3E70123F1E74FF067080D9B41
:103850000E9A934205DB22682361D107E8D5013334
:10386000E5E7002BCCBF0123C3F102031344DEE7DD
:1038700023685A0507D423693A4659462846B04773
:1038800001302AD15AE7B8F1650F40F2DC80D4E963
:1038900012010022002302F083FD002839D0012309
:1038A000364A59462846B04701303FF447AF0E9B91
:1038B0000D9A9A4202DB2368D8070ED50A9B099A13
:1038C00059462846B04701303FF438AF002704F18D
:1038D0001A080E9B013B9F4211DB23689F0708D506
:1038E000002704F11908E3680F9A9B1A9F42C0F25F
:1038F000E780E0680F9B9842B8BF184620E7012395
:10390000424659462846B04701303FF417AF0137C9
:10391000DFE70D9B002B33DC0123184A594628466C
:10392000B04701303FF40AAF0D9B23B90E9B13B98A
:103930002368D907D1D50A9B099A59462846B0472A
:1039400001303FF4FBAE4FF0000804F11A090D9B63
:103950005B42984501DB0E9B8EE701234A465946A0
:103960002846B04701303FF4E9AE08F10108EEE720
:10397000FFFFEF7F096900000D6900005E6900002C
:103980000E9AA36D9A42A8BF1A46002A904636DCCA
:103990004FF0000A04F11A0328EAE8780B93D4F8F0
:1039A0005890A9EB08039A4531DB0E9B0D9A9A4279
:1039B00038DB2368DA0735D40E9B0D99A3EB090297
:1039C000A3EB01089045A8BF9046B8F1000F31DC89
:1039D000002728EAE87804F11A090D9A0E9B9B1A31
:1039E000A3EB08039F42BFF678AF01234A4659462E
:1039F0002846B04701303FF4A1AE0137EDE713464A
:103A000059463A462846B0470130C1D196E60123CF
:103A10000B9A59462846B04701303FF48FAE0AF161
:103A2000010ABCE70A9B099A59462846B04701306B
:103A3000C2D183E6434607EB090259462846B04700
:103A40000130C5D17AE60E9A012A01DCDB0734D5B4
:103A500001233A4659462846B04701303FF46EAE3E
:103A60000A9B099A59462846B04701303FF466AE92
:103A7000D4E912010022002302F092FC50B1002789
:103A800004F11A080E9B013B9F420CDB4B4604F1EC
:103A90005002F2E60E9B7A1C013B59462846B0477D
:103AA0000130F3D14AE60123424659462846B04741
:103AB00001303FF443AE0137E4E701233A46ECE737
:103AC0000123424659462846B04701303FF436AEFE
:103AD000013708E73A464B463846494602F092FC21
:103AE00000283FF430AE014B014F12E6116900008F
:103AF000156900002DE9F04791461F468A680B6959
:103B000006469342B8BF1346C9F8003091F84320E7
:103B10000C46DDF8208012B10133C9F8003023686B
:103B2000990642BFD9F800300233C9F80030256841
:103B300015F0060507D104F1190AE368D9F8002049
:103B40009B1A9D422ADB94F843302268003318BF49
:103B5000012392062FD404F1430239463046C04770
:103B6000013022D02368E56803F00603042B18BF58
:103B70000025D9F800204FF0000908BFAD1AA3684E
:103B8000226908BF25EAE5759342C4BF9B1AED1868
:103B90001A344D451BD10020BDE8F0870123524661
:103BA00039463046C047013003D14FF0FF30BDE801
:103BB000F0870135C1E73020E11881F843005A1C35
:103BC00094F845102244023382F84310C3E70123DE
:103BD000224639463046C0470130E6D009F1010996
:103BE000D7E700002DE9F04317460A7E85B06E2A1C
:103BF000984606460C460C9B01F1430E00F0BC8033
:103C00001AD8632A2ED00AD8002A00F0C880582A71
:103C100000F08A8004F1420584F842202AE0642AF8
:103C200001D0692AF6D121681A6811F0800F23D0DB
:103C3000111D1960136827E0732A00F0B48008D8BA
:103C40006F2A2AD0702AE5D10A6842F020020A6061
:103C500003E0752A21D0782ADCD178226F4984F8D4
:103C6000452064E01A6801F14205111D19601368CE
:103C700084F842300123A3E011F0400F02F1040167
:103C80001960D7D0B2F90030002B03DA2D225B4245
:103C900084F8432062490A2217E02068196810F06E
:103CA000800F03D0081D18600B6806E010F0400F6D
:103CB00001F104001860F7D00B886F2A14BF0A22A4
:103CC00008225749002084F843006568002DA5604C
:103CD000C0F29C80206820F004002060002B3FD1BF
:103CE000002D40F095807546082A0BD12368DA072D
:103CF00008D5236962689A42DEBF302305F8013C8B
:103D000005F1FF35AEEB05032361CDF800803B469E
:103D100003AA21463046FFF7EDFE013055D14FF0A2
:103D2000FF3005B0BDE8F08381F845203C492268AA
:103D3000186812F0800F00F104051D6001D00368BF
:103D400002E05506FBD50388D00744BF42F02002AD
:103D500022601BB9226822F0200222601022B1E703
:103D60007546B3FBF2F002FB1033CB5C05F8013D66
:103D700003460028F5D1B7E708681A6810F0800FED
:103D8000496904D0101D18601368196007E010F02D
:103D9000400F02F1040018601368F6D01980002368
:103DA00075462361B1E71A68111D19601568002175
:103DB00062682846FFF78CF908B1401B60606368B1
:103DC0002361002384F843309FE723692A4639465C
:103DD0003046C0470130A2D023689B0707D5002595
:103DE00004F11909E368039A9B1A9D4205DBE06818
:103DF000039B9842B8BF184693E701234A463946C9
:103E00003046C04701308AD00135EBE7002BA7D1FF
:103E10000B7804F1420584F8423065E72A69000016
:103E2000196900002DE9F04115468A6880460C4664
:103E300032B98A69002A0CBF01224FF0FF328A6032
:103E400000262268D1065FBF1A68111D1960176825
:103E5000A369DBB1012B07D12B6862691B78D35CA6
:103E6000A3B9002E31D106E0022B07D0002E2CD1B1
:103E7000A369012B29D10120BDE8F08101F0E8FB05
:103E80002B681B78184443781B07EFD4236801364E
:103E9000DA065EBF2B681B783B702A686B6802F1FC
:103EA00001022A60A26803F1FF3302F1FF326B6066
:103EB00058BF0137A26042B1002BC9DCD4F8803171
:103EC0002946404698470028C2D0236813F01003C3
:103ED00005D1E2680132E260A26902B13B70236958
:103EE00000201E442661BDE8F08100002DE9F04F5E
:103EF0000C469A46744B87B08346164693E80700F3
:103F000003ABA76883E80700704BA169704A04F10E
:103F10001C09032918BF1A467B1EB3F5AE7F84BF68
:103F200040F25D13A360236888BF6FF4AE7543F45D
:103F30005063236098BF00274B464FF00008009263
:103F400088BF7F193168019303AB53F82800022220
:103F50000978FFF7BDF8019B28B3B8F1010F56D1DE
:103F600062682AB908226260226842F40072226004
:103F7000226822F4A0622260A268511EA16092B160
:103F800032685D1C511C316012781A707368013BF5
:103F9000002B736006DCD4F88031314658469847D0
:103FA000002877D12B4608F10108B8F1030FC9D1D9
:103FB00062680AB90A226260626846496069891AC1
:103FC000019300F0ABF8019B4FF000081D46A36879
:103FD000002B39D0316860690A78805C002833D0C2
:103FE000302A226821D110051FD508F1010817B128
:103FF0000133013FA3607368013B002B73601CDD3C
:10400000336801333360A368013BA360DFE7B8F195
:10401000020FB1D1226802F4C061B1F5007FC2D1B4
:10402000102142F480726160A5E722F410622260E0
:104030000B78013505F8013CDDE7D4F880313146D5
:10404000584698470028DED02368D9050CD54D4541
:1040500008D915F8011C6F1ED4F87C313246584639
:1040600098473D464D452CD0226812F010021ED1D3
:104070002A70636849465846009EB0472268DAF8BD
:10408000003012F0200F08D01A1DCAF800201B685B
:10409000186009E04FF00008D6E7D207F4D51A1DE2
:1040A000CAF800201B681880E3680133E360002031
:1040B000A5EB0905A84425694544256107B0BDE87D
:1040C000F08F0120FAE700BF3C690000794600004C
:1040D000594500005869000038B5054608461146A4
:1040E0000022054C22601A46FDF71CFD431C02D13C
:1040F000236803B12B6038BD1806001038B50023C3
:10410000054C054608462360FDF78CFC431C02D194
:10411000236803B12B6038BD1806001070B50B780A
:10412000441E5E2B13BF4A1C8A1C4B78002108BF1B
:10413000012100F1FF0504F8011FA542FBD113B9CD
:10414000013A104670BD81F001041146C4540D7847
:104150004A1C2D2D06D05D2DF3D00DB90A46F0E78F
:104160002B46F2E74E785D2EFAD0B342F8DC0231EE
:1041700001339E42C454FBDCE9E700294FF480631D
:104180000CBF0222002200F001B800002DE9F74325
:104190001D46514B04461E680F46904626B1B36932
:1041A00013B93046FEF796FD4C4B9C4252D17468D1
:1041B000B8F1020F06D0B8F1010F00F28980002D8E
:1041C000C0F2868021463046FEF708FD616B41B1A2
:1041D00004F14403994202D03046FDF717FB002357
:1041E00063630023A3616360A3891B0603D5216970
:1041F0003046FDF70BFBA389B8F1020F23F44A63A5
:1042000023F00303A3815DD001AB6A46214630460B
:10421000FEF7EAFEA3891843A0812DBB009D284626
:10422000FEF746FF074600284ED1DDF80090A9456D
:104230003CD14FF0FF30A38943F00203A381002358
:10424000A36004F14703236023610123636103B08A
:10425000BDE8F083224B9C4201D1B468A8E7214B12
:104260009C4208BFF468A3E7002FD8D0B36913B904
:104270003046FEF72FFDB8F1010F08BFA389276074
:1042800004BF43F00103A381A389276113F0080051
:1042900065611BD013F001004FF000031FBF6D429A
:1042A000A360A561184608BFA560D0E74846FEF7A1
:1042B000FFFE07460028BCD0A3894D4643F080038B
:1042C000A381D3E70020B6E7A946F5E7A060BEE7E3
:1042D0004FF0FF30BBE700BFD4000010B46800000F
:1042E000D4680000946800000EB44FF4027100B569
:1042F0009CB0ADF814106FF00041049107914FF697
:10430000FF711DAB02900690084853F8042BADF8DE
:104310001610006802A9019301F02AFD0022029BF9
:104320001A701CB05DF804EB03B07047D4000010A5
:104330000EB44FF4017230B59CB01FAC54F8045B5E
:10434000ADF814200290069000F06BF80B4B039030
:104350000B9300230F9314934FF6FF7307900848B5
:10436000ADF816302A46234602A90068019401F0F0
:104370004DFE1CB0BDE8304003B07047A7430000BD
:10438000D400001010B50C46B1F90E1001F092FFE8
:104390000028ABBF636DA3891B1823F48053ACBF07
:1043A0006365A38110BD002070472DE9F0411F46D1
:1043B0008B890546DB050C46164605D502230022EF
:1043C000B1F90E1001F060F9A389324623F480534D
:1043D000A381B4F90E103B462846BDE8F04100F039
:1043E000E9B910B50C46B1F90E1001F04DF9431CB6
:1043F000A38915BF606523F4805343F48053A381E0
:1044000018BFA38110BDB1F90E1000F053BA10F817
:10441000012B11F8013B012A28BF9A42F7D0D01A8C
:104420007047034613F8012B002AFBD1181A0138F4
:10443000704710B56AB10139841810F8013B11F8C2
:10444000012F934203D1A04201D0002BF5D1981A3D
:1044500010BD104610BD2DE9F84F804689469246A2
:104460001F468B465D460A9815F8014B01F0ECF8A3
:104470002044467816F008060BD12D2C0BD10126CE
:104480002C780BF1020567B1102F14D1302C0AD013
:1044900011E0AB46E6E72B2C04BF2C780BF10205AC
:1044A000F1E7302C27D12B7803F0DF03582B4BD1C9
:1044B00010276C780235002E0CBF6FF000414FF0D2
:1044C00000410022B1FBF7FE104607FB1E1CA4F1C1
:1044D0003003092B11D81C46A7421DDD531C07D001
:1044E000864516D301D1A44513DB012200FB07400A
:1044F00015F8014BEBE70A27DDE7A4F14103192B7F
:1045000001D8373CE8E7A4F16103192B04D8573CE4
:10451000E2E74FF0FF32EBE7531C08D122230846B5
:10452000C8F80030BAF1000F07D1BDE8F88F06B126
:104530004042BAF1000F0CD022B1013DCAF8005040
:10454000BDE8F88F4D46F9E73024002FB3D1082796
:10455000B1E7BDE8F88F000037B5064C064D24687A
:10456000246A002C08BF2C460094FFF774FF03B0A8
:1045700030BD00BFD4000010380100102DE9F04715
:104580008046894692461E460F463D46089815F8D5
:10459000014B01F059F82044437813F008030AD185
:1045A0002D2C0AD101232C78BD1C5EB1102E13D105
:1045B000302C09D010E02F46E7E72B2C04BF2C78D5
:1045C000BD1CF2E7302C25D12A7802F0DF02582AF0
:1045D0004AD110266C7802354FF0FF31B1FBF6F16D
:1045E000002706FB01FE38466FEA0E0EA4F13002EA
:1045F000092A11D81446A6421DDD002F18DB81427E
:1046000016D301D1A64513DB012700FB064015F8A0
:10461000014BEBE70A26DFE7A4F14102192A01D892
:10462000373CE8E7A4F16102192A04D8573CE2E7D5
:104630004FF0FF37EBE7002F09DA22234FF0FF306E
:10464000C8F80030BAF1000F07D1BDE8F08703B118
:104650004042BAF1000F0CD027B1013DCAF800501A
:10466000BDE8F0874D46F9E73024002EB4D1082686
:10467000B2E7BDE8F087000037B5064C064D246868
:10468000246A002C08BF2C460094FFF777FF03B084
:1046900030BD00BFD4000010380100102DE9F041FA
:1046A0000C46496B04F1440399421CD14FF48061DC
:1046B000FDF7A8F818B94FF0FF30BDE8F0814FF4CE
:1046C0008063A36394F84630606380F8FF3394F806
:1046D000453000F2FD30437094F8443003702060A0
:1046E0000020BDE8F081A66B77003A46FDF78CF814
:1046F00005460028DFD000EB06080146324640465A
:10470000FEF7F4FCC4F800806563A763E8E70000E7
:10471000F8B50E461446054618B183690BB9FEF785
:10472000D9FA214B9C422AD16C68A369A360A38962
:104730001A072ED5236963B323692068F6B2C01A1D
:1047400063693746984204DB21462846FEF746FA5D
:1047500028BBA3680130013BA36023685A1C226078
:104760001E706369984204D0A389DB0719D50A2E0D
:1047700017D121462846FEF731FA90B10FE00B4BD6
:104780009C4201D1AC68D0E7094B9C4208BFEC6861
:10479000CBE72146284600F01FF80028CCD04FF088
:1047A000FF373846F8BD00BFB4680000D468000089
:1047B0009468000038B50546084611460022054CAD
:1047C00022601A46FDF76CF8431C02D1236803B13E
:1047D0002B6038BD18060010324B70B51D680646B8
:1047E0000C4625B1AB6913B92846FEF773FA2E4B78
:1047F0009C420FD16C68B4F90C309AB215072CD4D6
:10480000D00611D40922326043F04003A3814FF057
:10481000FF3070BD254B9C4201D1AC68EBE7244BC7
:104820009C4208BFEC68E6E7510712D5616B41B1C5
:1048300004F14403994202D03046FCF7E7FF00231D
:104840006363A38923F02403A381002363602369A6
:104850002360A38943F00803A38123694BB9A3898B
:1048600003F42073B3F5007F03D021463046FEF7F2
:10487000DFFBA28912F001030CD00023A36063695F
:104880005B42A361236953B9B4F90C3013F0800083
:10489000BAD170BD920758BF6369A360F2E70020E8
:1048A000F7E700BFD4000010B4680000D46800002F
:1048B0009468000038B50023054C0546084623607F
:1048C000FCF7CEFF431C02D1236803B12B6038BD37
:1048D000180600102DE9F74F03690C6980469C42C9
:1048E00000F38280013C01F1140700F1140657F82F
:1048F000245056F824000135B0FBF5F54FEA840E3C
:1049000006EB0E0307EB0E0901938DB34FF0000A7F
:104910003846B446D34650F8042B93B205FB03A3A4
:10492000120C4FEA134A05FB02A29BB2ABEB030346
:10493000BCF800B04FEA124A5B441FFA82FBDCF875
:1049400000208145CBEB124202EB23429BB243EAAB
:1049500002434FEA224B4CF8043BDCD256F80E30AF
:1049600033B9019B043B9E421A4631D3C8F810402C
:10497000404601F0D0F8002826DB30464FF0000E0C
:10498000013557F8041BD0F800C08BB2AEEB03031F
:104990001FFA8CF213440A0CC2EB1C4202EB2342B6
:1049A0009BB243EA0243B9454FEA224E40F8043B2A
:1049B000E7D256F8242006EB84032AB9043B9E4232
:1049C0001A460BD3C8F81040284603B0BDE8F08F54
:1049D0001268043B002AC9D1013CC4E71268043BB9
:1049E000002AEFD1013CEAE70020EEE700000000DA
:1049F0002DE9F04F466A95B00446219DCDE902238A
:104A00003EB91020FEF754FB606246608660066087
:104A1000C660636A196851B15A68012393404A60BD
:104A20008B60204600F0A2FE0022636A1A60039B9E
:104A3000002BB7BF012300232B60039BAEBF2B606D
:104A400023F000430393DDF80C90AB4B33EA0903EA
:104A50001BD142F20F73209A1360029B23B9C9F352
:104A60001300002800F08385229B53B9A34B21E05B
:104A7000A34B06930833229A1360069815B0BDE83D
:104A8000F08F9E4B06930333F5E7DDE902670022C2
:104A900000233046394601F083FC804660B1012393
:104AA000209A1360229B002B00F05E85954B229A82
:104AB0001360013B0693E0E712AB019313AB009345
:104AC00032463B46204601F09FF8C9F30A5582461C
:104AD000002D7DD03046C7F3130343F07F5141F4DE
:104AE0004011A5F2FF35CDF840800022864BFDF73E
:104AF000F1F87BA3D3E90023FDF7A0FA7AA3D3E969
:104B00000023FDF7E9F8064628460F46FDF730FA80
:104B100077A3D3E90023FDF791FA02460B4630460E
:104B20003946FDF7D9F806460F46FDF799FC0022F5
:104B3000834600233046394601F03CFC58B15846C4
:104B4000FDF716FA02460B463046394601F028FCBE
:104B500008B90BF1FF3BBBF1160F58D8DDE9022372
:104B60006A4901EBCB01D1E9000101F041FC0028C9
:104B70004FD000230BF1FF3B0D93129B5D1B6B1E6F
:104B8000079343BF0023C5F1010807934FF00008C6
:104B9000BBF1000F3FDB079BCDF830B05B440793C0
:104BA000002308931E9B092B00F2B480052BC4BF81
:104BB000043B1E931E9BC8BF0026A3F10203D8BF6F
:104BC0000126032B00F2B280DFE803F084862D7803
:104BD000139B129D1D4405F23243202B11DD029AD6
:104BE00005F21240C3F1400322FA00F009FA03F380
:104BF0001843FDF7ADF90123A1F1F871013D1093C0
:104C000073E7C3F12000029B03FA00F0F1E70123F0
:104C1000B2E70D90B1E7CBF1000308930023A8EBB6
:104C20000B080C93BEE7012309931F9B002B40F355
:104C300080809946049300220421656A6A6001F12C
:104C400014029A427AD96968204600F05BFD636AD3
:104C500028601B68B9F10E0F069300F2F080002E59
:104C600000F0ED80DDE90223BBF1000FCDE90E235A
:104C700079DD264A0BF00F034FEA2B1602EBC30334
:104C8000F006D3E90023CDE90A235CD5DDE90E0166
:104C90001F4B0325D3E90823FDF7FAFACDE90201FA
:104CA00006F00F061A4F002E4FD1DDE90A23DDE989
:104CB0000201FDF7EDFACDE902016EE0012309934F
:104CC0001F9B5B4403F1010904934B46012BB8BFC2
:104CD0000123B0E70023A7E70023F0E7AFF300804C
:104CE00061436F63A787D23FB3C8608B288AC63FF2
:104CF000FB799F501344D33F0000F07F6C690000A4
:104D0000636900005F6900000000F83FA8690000C7
:104D1000806900000126002309961E934FF0FF339F
:104D200000220493994612231F9284E701230993DA
:104D3000F4E70123049399461A46F5E76A684900A7
:104D400001326A607BE70225ACE7F10708D5DDE9AF
:104D50000A01D7E90023FDF771F9CDE90A01013510
:104D6000761008379FE700F0A580DDE90E01CBF152
:104D70000006A24B06F00F0203EBC203D3E90023A7
:104D8000FDF75CF902250023CDE902019C4F3611A5
:104D9000002E40F08480002B8DD10D9B002B00F065
:104DA0008B80DDE90223CDE90A23DDE90A01002237
:104DB000944B01F0FFFA00287ED0B9F1000F7BD0B0
:104DC000049B002B37DDDDE90A0100228E4BFDF745
:104DD00035F9CDE90201049E0BF1FF370135284674
:104DE000FDF7C6F8DDE90223FDF728F9874B00221D
:104DF000FCF772FFCDE90A010B9BA3F150750B95EF
:104E0000002E5CD1DDE902010022814BFCF762FF3C
:104E10000A9A2B46CDE9020101F0EAFA002840F097
:104E2000F782DDE902010A9A05F1004301F0C2FAB6
:104E3000002840F0EB82DDE90E23CDE90223139B2D
:104E4000002BC0F25081BBF10E0F00F34C816B4B75
:104E500003EBCB03D3E90023CDE904231F9B002BF5
:104E600080F2DA80B9F1000F00F3D68040F0CD82F5
:104E7000DDE904010022664BFDF7E0F8DDE90223DD
:104E800001F0ACFA4E464F46002840F0A482069B43
:104E9000069A5D1C31230BF1010B13709FE2F207A0
:104EA00005D5D7E90023FDF7C9F8012301357610B0
:104EB00008376DE7022570E75F464E468FE7069A92
:104EC0004E4B32441192099A711E002A48D003EBCE
:104ED000C103D3E9002300204E49FDF7D9F9DDE9EC
:104EE0000A23FCF7F7FECDE90A01069DDDE9020180
:104EF000FDF7B6FA0646FDF73BF802460B46DDE93C
:104F00000201FCF7E7FEDDE90A23303605F8016B04
:104F1000CDE9020101F04EFA002864D1DDE9022357
:104F200000203849FCF7D6FEDDE90A2301F042FAF9
:104F3000002840F0B980119B9D423FF47CAFDDE931
:104F40000A010022304BFDF779F80022CDE90A0171
:104F5000DDE902012C4BFDF771F8CDE90201C5E74F
:104F600003EBC101D1E90001DDE90A23FDF766F891
:104F7000CDE90A01069DDDE90201FDF771FA064659
:104F8000FCF7F6FF02460B46DDE90201FCF7A2FE44
:104F90003036119B05F8016BAB42CDE902014FF0B1
:104FA000000224D11B4BDDE90A01FCF795FE024605
:104FB0000B46DDE9020101F01BFA002874D1DDE99E
:104FC0000A2300201349FCF785FE02460B46DDE963
:104FD000020101F0EFF900283FF42DAF15F8013C74
:104FE0006A1E302B01D0BB464DE01546F6E7064B56
:104FF000FDF724F8CDE90201BDE700BFA869000074
:10500000806900000000F03F0000244000001C40C8
:10501000000014400000E03F069DDDE90267DDE985
:10502000042330463946FDF733F9FDF719FA804677
:10503000FCF79EFFDDE90423FDF700F802460B466E
:1050400030463946FCF746FE08F1300605F8016B9C
:10505000069E0246AE1BB1450B4637D1FCF73CFE1F
:1050600006460F4602460B46DDE9040101F0A2F9AF
:10507000C8B9DDE9040132463B4601F091F910B1AF
:1050800018F0010F0FD15146204600F06FFB0023AE
:10509000209A2B700BF101031360229B002B3FF42D
:1050A000ECAC1D60E9E45F4615F8012C6B1E392A53
:1050B00006D1069A9A4207D130231370134601375E
:1050C0001A7801321A708EE71D46EDE70022B54BC3
:1050D000FCF7B4FF0022002306460F4601F060F9FA
:1050E00000289CD0CFE7099A002A00F029811E9A57
:1050F000012A00F30E81109A002A00F0068103F2C3
:1051000033434546089E079A01211A442046984495
:10511000079200F0CBFB0746002D0BDD079B002B11
:1051200008DDAB42A8BF2B46079AA8EB0308ED1A8F
:10513000D31A0793089BFBB1099B002B00F0048155
:10514000002E11DD39463246204600F045FC52461D
:1051500001460746204600F0B2FB51460A90204621
:1051600000F004FB0A9B9A46089B9A1B04D0514608
:10517000204600F031FC82460121204600F096FBDB
:105180000C9B0646002B40F3E1801A460146204660
:1051900000F022FC1E9B0646012B40F3DA80002320
:1051A0000893336906EB8303186900F031FBC0F103
:1051B0002000079B184410F01F0000F0F080C0F1A1
:1051C0002003042B40F3E280079BC0F11C008044C5
:1051D000054403440793B8F1000F05DD51464246EC
:1051E000204600F047FC8246079B002B05DD314638
:1051F0001A46204600F03EFC06460D9B002B00F0B0
:10520000D3803146504600F086FC002880F2CC80E6
:10521000002351460A22204600F0BFFA099B0BF1F9
:10522000FF3B8246002B00F0A981002339460A2269
:10523000204600F0B2FA049B0746002B03DC1E9BBD
:10524000022B00F3B980002D05DD39462A462046A1
:1052500000F010FC0746089B002B00F010817968D5
:10526000204600F04FFA05463A6907F10C01023278
:1052700092000C30FDF73AFF01222946204600F04B
:10528000F9FB07970746029BDDF8188003F001033E
:10529000089331465046FFF71DFB0799054600F17C
:1052A0003009504600F037FC3A460290314620461D
:1052B00000F04BFCC3680246002B40F0E280014640
:1052C0000990504600F027FC0346099A11462046F3
:1052D000099300F04BFA099B002B40F0D4801E9AF2
:1052E000002A40F0D080089A002A40F0CC80B9F122
:1052F000390F00F0E880029B002B01DD05F1310938
:1053000008F1010588F800906BE0129BC3F13603A9
:10531000F7E6089B09F1FF36B342B7BF089B9E1B17
:10532000F21A0C9BBFBF08969B180C930026B9F18C
:10533000000FB9BFA8EB0905002345464B46E2E63E
:10534000089E4546099FE7E6089A10E71E9B012B39
:1053500018DC029BB3B9039BC3F31303A3B9039BEC
:1053600023F000431B0D1B052BB1079B08F101081F
:1053700001330793012308930C9B002B7FF411AF9B
:10538000012016E70023F6E7029BF4E73FF423AF82
:10539000079A1C331A4498441D4413461AE70346DF
:1053A000F6E700BF00002440B9F1000F33DC1E9B7C
:1053B000022B30DDCDF81090049B63B931460522F5
:1053C000204600F0EAF901460646504600F0A3FBED
:1053D00000283FF75CAD1F9B069D6FEA030B00237F
:1053E00007933146204600F0C1F9002F3FF44BAE41
:1053F000079B2BB1BB4203D01946204600F0B6F9FB
:105400003946204600F0B2F93DE600263746E2E78D
:10541000BB4637463BE5099BCDF81090002B7FF447
:1054200012AF069D31465046FFF754FA069B00F135
:10543000300905F8019B049AEB1A9A4200F3818027
:10544000069B012AACBF9B180133984600230793A3
:1054500051460122204600F00DFB3146824600F005
:105460005AFB002834DC02D119F0010F30D1454637
:1054700015F8013C6A1E302BB3D11546F8E73846C3
:10548000FFE6012322E7029A002A04DB28D11E9AB4
:1054900032BB089A22BB002B7FF732AF5146012264
:1054A000204600F0E7FA3146824600F034FB00283F
:1054B00005DC7FF425AF19F0010F3FF421AFB9F1FE
:1054C000390F7FF41BAF392308F1010808F8013CBC
:1054D000454615F8013C6A1E392B3AD001333FE0AE
:1054E000002B08F1010505DDB9F1390FEBD009F109
:1054F000010907E7069B049AEB1A9342A84605F8B0
:10550000019CA5D0514600230A22204600F045F90F
:10551000079B8246BB424FF00A024FF000030799F7
:10552000204604D100F039F907900746B1E600F0B3
:1055300034F9002307900A223946204600F02DF95D
:10554000F3E7514600230A22204600F026F982465E
:1055500068E7069B934205D13123069A0BF1010BB4
:1055600013703EE71546B4E7094BFFF7A3BA229B39
:10557000002B7FF47DAA074BFFF79CBA049B002BFE
:105580003FF74FAF1E9B022B7FF74BAF14E700BFD7
:105590005E690000636900000B7830B5722B13D090
:1055A000772B07D0612B13D14FF4027401234FF4F2
:1055B000847003E04FF4C0640123082011F8015FF8
:1055C00055B92343136030BD002404202346F5E77A
:1055D00016230360002030BD622D0CD0782D0DD035
:1055E0002B2DEBD120F01C0023F0030340F0100022
:1055F00043F00203E2E743F48033DFE743F4006360
:10560000DCE7000038B50023064C05460846114685
:105610002360FCF7E9F9431C02D1236803B12B6036
:1056200038BD00BF1806001038B50023054C0546EC
:1056300008462360FAF706FF431C02D1236803B132
:105640002B6038BD18060010D0F8EC007047000041
:10565000044B054A1B681B6A002B08BF1346D3F88E
:10566000EC007047D400001038010010044B1B6898
:10567000186A044B002808BF1846F030704700BF76
:10568000D40000103801001038B505460846114610
:105690000022054C22601A46FCF788F9431C02D10F
:1056A000236803B12B6038BD1806001082B001B921
:1056B00001A942B14BB113780B601278101C18BFCE
:1056C000012002B070471046FBE76FF00100F8E7D9
:1056D000884210B501EB020303D8421E99420CD157
:1056E00010BD9842F9D28118D21AD34200D110BD10
:1056F00013F8014D01F8014DF7E711F8014B02F8DD
:10570000014FEBE770B5456A04460E463DB91020DF
:10571000FDF7CEFC6062456085600560C560656A26
:10572000EB6883B1636ADB6853F82600B8B90121DE
:1057300001FA06F56A1D92002046FCF769F860B18F
:10574000466085600EE0212204212046FCF760F8C7
:10575000636AE860DB68002BE4D1002070BD02685A
:1057600043F8262000230361C36070BD70B5446A0E
:1057700006460D463CB91020FDF79AFC7062446065
:1057800084600460C4603DB1736A6A68DB6853F882
:105790002210296043F8225070BD2DE9F0411F46C8
:1057A00006460C4600230D6901F1140EDEF80000D8
:1057B000013381B202FB0171000C0F0C02FB00707F
:1057C00089B201EB00419D424FEA10474EF8041B9D
:1057D000ECDCD7B1A3689D4212DB61683046013131
:1057E000FFF790FF8046226904F10C01023292001B
:1057F0000C30FDF77BFC21463046FFF7B7FF4446EF
:1058000004EB850301355F6125612046BDE8F08129
:10581000020C12040346B2B90304102013F07F4FA8
:1058200004BF1B02083013F0704F04BF1B0104308B
:1058300013F0404F04BF9B000230002B06DB5B00DF
:1058400003D5013070470020E8E720207047036847
:10585000014613F007020BD0DA0723D4980749BF9B
:105860005B089B0801200B605CBF0B600220704747
:1058700098B2A8B910201B0C13F0FF0F04BF1B0A2D
:1058800008301A0704BF1B0904309A0704BF9B089D
:105890000230DA0702D45B0806D001300B60704793
:1058A0001046E9E7002070472020704710B50C46ED
:1058B0000121FFF727FF01224461026110BD2DE99C
:1058C000F74F14460A69236989469A42BEBF0B46C0
:1058D000A1461C46D9F81070D4F810A0D9F80830A9
:1058E000D9F8041007EB0A069E42C8BF0131FFF742
:1058F00009FF00F114052B46002205EB86084345FD
:1059000016D304F1140209F1140102EB8A0301EB2E
:1059100087070193019C134694420CD8002E03DDA7
:1059200058F8043D002B54D0066103B0BDE8F08F59
:1059300043F8042BE3E7B3F800A00432BAF1000FF8
:1059400020D0AE4689464FF0000C59F8044BBEF803
:1059500000B0A3B20AFB03B34FEA144BDEF80040D9
:1059600063444FEA144C0AFB0BC404EB13449BB290
:1059700043EA04434F454FEA144C4EF8043BE4D845
:10598000CEF800C032F8029CB9F1000F1FD0AE462D
:105990008C464FF0000A2B68BCF80040BEF802B0FD
:1059A0009BB209FB04B4A24443EA0A434EF8043B09
:1059B0005CF8043BBEF800401B0C09FB0343674541
:1059C00003EB1A434FEA134AE6D8CEF80030043509
:1059D000A0E7013EA2E700002DE9F843154612F0CA
:1059E000030206460F4607D0214C013A002354F823
:1059F0002220FFF7D2FE0746AD1035D0746A3CB9BD
:105A00001020FDF755FB7062446084600460C46040
:105A1000D6F82480D8F808404CB940F271213046BD
:105A2000FFF744FF00230446C8F8080003604FF066
:105A30000008EB070AD5394622463046FFF73FFFFC
:105A4000814639463046FFF791FE4F466D100BD028
:105A5000206838B9224621463046FFF730FF2060E3
:105A6000C0F800800446E4E73846BDE8F88300BF8C
:105A7000706A00002DE9F0470C4607461646236978
:105A80004FEA621A0AEB03094968A36809F10105A4
:105A9000AB4231DB3846FFF735FE00228046114627
:105AA00000F1140352452ADB20692AEAEA7A04F15C
:105AB000140116F01F0203EB8A0301EB800E22D0C3
:105AC0000020C2F1200C0E689640304343F8040BCE
:105AD00051F8040B8E4520FA0CF0F4D8186008B188
