:100000000080001095290000C5290000C7290000C4
:10001000C9290000CB290000CD2900000000000004
:10002000000000000000000000000000CF290000D8
:10003000D129000000000000D3290000D5290000CC
:10004000D7290000D7290000D7290000D7290000B0
:10005000D7290000D7290000D7290000D7290000A0
:10006000D7290000D7290000D7290000D729000090
:10007000D7290000D7290000D7290000D729000080
:10008000D7290000D7290000D7290000D729000070
:10009000D7290000D7290000D7290000D729000060
:1000A000D7290000D7290000D7290000D729000050
:1000B000D7290000D7290000D7290000D729000040
:1000C000D7290000D7290000D729000010B5054C1A
:1000D000237833B9044B13B10448AFF300800123F4
:1000E000237010BDB002001000000000787D0000F9
:1000F0000C4B43B10C4810B50C49AFF300800C48D1
:10010000036823B910BD0A48036833B97047094B27
:10011000002BF7D0BDE810401847064B002BF5D058
:10012000184700BF00000000787D0000B4020010F6
:10013000B002001000000000F8B504460C200E4686
:10014000174602F03FFB05463A46314601F04EFEA7
:100150002846C4F8CC50024901F05EFE2046F8BDA6
:10016000801A060010B50446D0F8CC0010B1036820
:10017000DB689847204610BD1FB58DF80D30002371
:1001800000938DF80C20022303AAD0F8CC0001F0D4
:100190006FFE05B05DF804FB2DE9F04380461F4675
:1001A00001238946002489B008A800F8142D0246CE
:1001B0000093D8F8CC0004AE109D01F059FE3B46E8
:1001C000009432464946D8F8CC0001F071FE23462F
:1001D000BB4203DAF25CEA540133F9E709B0BDE847
:1001E000F08390F84830032B06D8DFE803F00207CD
:1001F0000A0D4FF06253C364C06C70474FF06453F4
:10020000F9E74FF06653F6E74FF06853F3E71FB591
:100210000C4602AB00933B220623D021FFF7BCFF24
:100220009DF808209DF8093043EA022323809DF8B9
:100230000A209DF80B3043EA022363809DF80C20CE
:100240009DF80D3043EA0223A38004B010BD1FB512
:1002500003AB009341220223D021FFF79DFF9DF8BD
:100260000C309DF80D0040EA032000B205B05DF8A7
:1002700004FB00002DE9F04F04468BB080238B4631
:100280009246D0216B22FFF777FFA34800F038FF9A
:1002900001236B22D0212046FFF76EFF00236C2242
:1002A000D0212046FFF768FF9C4800F029FF00237B
:1002B0003822D0212046FFF75FFF00232322D021E0
:1002C0002046FFF759FF00236B22D0212046FFF77D
:1002D00053FF00232422D0212046FFF74DFF0023A7
:1002E0006A22D0212046FFF747FF0C236A22D02143
:1002F0002046FFF741FF8A4800F002FF01231A223F
:10030000D0212046FFF738FF00231922D0212046B4
:10031000FFF732FF00231B22D0212046FFF72CFFDE
:1003200000231C22D0212046FFF726FF40236A220B
:10033000D0212046FFF720FF78232322D02120461A
:10034000FFF71AFF774800F0DBFE07AF00232322F8
:10035000D0212046FFF710FF022300977222D02100
:100360002046FFF719FF9DF81C309DF81D50002610
:1003700045EA03250C23B046B5FBF3F5B1460396D9
:10038000059604960296B3B2AB4206F101063FDA37
:100390000C2374220097D0212046FFF7FDFE9DF824
:1003A0001C209DF81D3043EA02231BB29DF81E203D
:1003B00099449DF81F3043EA02231BB29DF8202088
:1003C00098449DF8213043EA0223039A1BB21A4451
:1003D00003929DF823309DF8222043EA0223029ADB
:1003E0001BB21A4402929DF825309DF8242043EA5E
:1003F0000223049A1BB21A4404929DF827309DF8F8
:10040000262043EA0223059A1BB21A440592BAE752
:10041000039B99FBF5F993FBF5F6029B98FBF5F826
:1004200093FBF5F0049B002E93FBF5F2059BC8BFF0
:10043000A6F5804693FBF5F54FF0040390FBF3F12E
:10044000C1F100014FEA212E8DF81D1092FBF3F14E
:1004500095FBF3F3C1F10001C3F100038DF81CE03B
:100460008DF81F104FEA212E4FEA2321D8BF06F541
:1004700080468DF81EE08DF8213002928DF8201014
:1004800002F0A6FF284903F0ABF8029ACBF800006F
:10049000104602F09DFF244903F0A2F8CBF80400B7
:1004A000284602F095FF204903F09AF80097CBF810
:1004B0000800022320467722D021FFF76DFE204658
:1004C000009702237A22D021FFF766FE02237D22C5
:1004D000D02120460097FFF75FFE484602F078FFE4
:1004E0004FF0625102F0C8FFCAF80000404602F027
:1004F0006FFF4FF0625102F0BFFFCAF804003046B0
:1005000002F066FF4FF0625102F0B6FFCAF8080031
:100510000BB0BDE8F08F00BFCDCCCC3DCDCC4C3E78
:100520008FC2753C0AD7233D000003430368DB6993
:10053000184703685B69184703689B6A1847704748
:1005400070474FF0FF307047C0F89410C0F8982003
:1005500070470000F8B504460F46124D00F14406FE
:100560000911304601F04EFD284600F0C9FDE36B4D
:10057000226B28461A6000F0C3FDA36B226B39463C
:100580001A60304601F03EFD284600F0B9FDE36BED
:10059000226B28461A6000F0B3FDA36B226B1A6031
:1005A000F8BD00BFACC52738426A83691360FFF706
:1005B000D1BF000010B501210446FFF7F5FF044844
:1005C00000F09EFD0023C4F89430C4F8983010BDAC
:1005D00045F5D63A2DE9F0410446254688461746AA
:1005E0008EB000211E4601F093FD304B182245F8D5
:1005F000143B0021284603F080FC2846414604F1C4
:100600002C0500F0F9FC18220021284603F075FCA7
:100610002846394600F0F0FC4FF0FF330C930B9363
:100620000A930993089307930693059304930393FE
:1006300002930193169B31460093149A159B04F183
:10064000440001F075FC9DF85C30226B84F890301A
:10065000A36B17481A60A269636A03251A6000F049
:100660004FFD144E03212046FFF774FF304600F083
:1006700047FD013DF6D102212046FFF76BFF0E48F2
:1006800000F03EFD20462821FFF78EFF20460C217A
:10069000FFF78AFF06212046FFF786FF2046FFF777
:1006A00089FF20460EB0BDE8F08100BFC87300008E
:1006B0008FC2753C45F5D63AACC52738026A8369C6
:1006C0001360FFF747BF90F89030012B10D0032B39
:1006D00014D1032A0CD8DFE802F00E02050801F15C
:1006E000C000704701F19400704701F1D4007047D9
:1006F000282000FB021101F180007047901C01EBE3
:100700008010704738B504461D46FFF7DCFF0146F0
:100710002046FFF749FF29462046BDE83840FFF74D
:10072000CDBF90F89030023B012B8CBF10201420DD
:10073000704790F89030032B0CBF042002207047C4
:100740000A2938B504460D4610D10023D0F8982068
:10075000C0F894300132C0F89820FFF7EAFF8242D7
:1007600002DB0023C4F89830284638BD0B46D0F889
:100770009820D0F89410FFF7C5FFD4F894202046B5
:100780000132C4F89420FFF7CCFF8242ECDB002357
:10079000D4F89820C4F894300132C4F89820204648
:1007A000DBE7000010B50446044B40F8443B01F081
:1007B000A1FB204601F0CAFC204610BDC873000012
:1007C00010B50446FFF7EEFF204602F014F820466D
:1007D00010BD0368184708B10B6803607047704785
:1007E00008B5104B10485A6911685A6811420CBF7D
:1007F000DB681B691A6001F0BBFC0C4A117881B9F7
:1008000000F0DF0043280CD1094B5969086859688A
:10081000084204D1DB6819600123137008BD1B690D
:10082000F9E708BD9C050010CC060010CC040010B0
:10083000B405001038B50C4D0C49284601F0AAFC4F
:100840001D220B4C1146204600F05EFB1D22204667
:10085000114600F04AFB044602460649284601F0CC
:1008600099FC204638BD00BFCC060010677400001C
:10087000D004001091740000F0B505468BB00068FC
:100880000C4602F00DFA0646A8680F4602F008FA78
:10089000CDE90201686802F003FA32463B46CDE931
:1008A00000012149214801F075FC206802F0F8F9A7
:1008B0000646A0680F4602F0F3F9CDE90201606830
:1008C00002F0EEF93246CDE900013B4616491748E1
:1008D00001F060FC2B684FF4007204936B680021F8
:1008E0000593AB68124806932368079363680893DF
:1008F000A368099303F001FB00230D4A04A8195CC7
:1009000099540133182BFAD11D220A48114600F0E0
:10091000FBFA4FF400734FF4F0220549054800F04C
:1009200000FB0BB0F0BD00BFAF740000CC060010A0
:10093000CC020010D00400101D222DE9F043054622
:1009400085B00C462448114600F0C2FA0828064635
:100950003DD14FF4F027386802F0A2F98046B8681C
:10096000894602F09DF9CDE90201786802F098F914
:1009700042464B46CDE900011849194801F00AFCEE
:10098000F86802F08DF980467869894602F088F9A6
:10099000CDE90201386902F083F94246CDE9000150
:1009A0004B4610490E4801F0F5FB4FF4F02330465A
:1009B0001A682A605A686A609A68AA60DA682260CF
:1009C0001A6962605B69A36005B0BDE8F0830649FF
:1009D000034801F0DFFBE8E7D0040010AF7400002B
:1009E000CC0600101C7400003A740000C36810B5F7
:1009F00004460BB19B689847204610BD70B505466C
:100A0000074B064645F80C3B45B100F12C04AC42BF
:100A100004D0103C2046FFF7E9FFF8E7304670BDF0
:100A2000B079000010B50446FFF7E8FF204601F05A
:100A3000E2FE204610BD000010B50446054B0360E1
:100A4000203340F8303F01F081FB2046FFF7D6FF0E
:100A5000204610BD60780000A0F13000ECE700BF38
:100A60002DE9F04FB64D9BB0B64C002214A9B64804
:100A70001495179401F088FC14A8FFF7B7FFB34949
:100A8000B34801F087FB1D22B248114600F020FA5E
:100A900008280895099400F04081AF49AC4801F05E
:100AA00079FB14AA0DA9AD48FFF7E4FB17AA0DA91D
:100AB000AA48FFF7DFFBAA49A54801F06BFB17A97D
:100AC00014A8FFF7D9FEA749A14801F063FBA64986
:100AD0009F4801F05FFB9E4CDFF88092A34DA44B32
:100AE00010AF1A78002A40D00022394696481A7072
:100AF000139201F049FC3846FFF778FF9D492046E4
:100B000001F048FB1D229348114600F0E1F9082846
:100B100001D1FFF78FFE9849204601F03BFB14AA54
:100B20000DA94846FFF7A6FB17AA0DA94846FFF7EF
:100B3000A1FB8B49204601F02DFB17A914A8FFF754
:100B40009BFE8849204601F025FB8C49204601F098
:100B500021FB089B7C481093099B00223946139384
:100B600001F012FC3846FFF741FF0DF12C0B5946FE
:100B70004846FFF74CFB00260DF14C0A3BF91600E6
:100B800002F026FC80464846FFF72BFB0146404614
:100B900002F072FC02F084F80AF1040ACDE90201C5
:100BA000DAF80C10DAF8000002F05CFB02F078F8DA
:100BB0000022734B02F0C8F802460B46DDE9020141
:100BC00001F00EFF02F0FAFA47F826000136032E74
:100BD000D4D14846FFF73BFB06462846FFF7EAFC20
:100BE000109802F05DF8CDE9020102460B46284656
:100BF000644901F0CFFA119802F052F80B46CDE9A2
:100C0000040102466049284601F0C4FA0122284640
:100C10000021FFF799FC129802F042F802460B46B9
:100C200082468B462846594901F0B4FA304602F014
:100C3000CFFB02F035F840A3D3E9002302F0AEF970
:100C40000022534B01F0CEFE02F0B8FA02F028F871
:100C500002460B46CDE906014E49284601F09AFAB4
:100C6000149802F01DF8064617980F4602F018F87F
:100C700032463B46CDE900014749204601F08AFA59
:100C8000159802F00DF8064618980F4602F008F87D
:100C900032463B46CDE900014049204601F07AFA50
:100CA000169801F0FDFF064619980F4601F0F8FF6F
:100CB0003246CDE900013B463949204601F06AFA47
:100CC0003849204601F066FADDE90223364920461C
:100CD00001F060FADDE904233449204601F05AFAB4
:100CE00052465B463249204601F054FA2D492046CF
:100CF00001F050FADDE906232E49204601F04AFAB8
:100D00002849204601F046FA2B49204601F042FAD4
:100D10004FF07E5000F0F4F9E1E628490C4801F06C
:100D200039FA27490A4801F035FA17A914A8FFF73C
:100D300003FEC8E6AFF3008052B81E85EBDD7440B9
:100D4000E1070000107400009C060010CD74000044
:100D5000CC060010D0040010ED740000CC0500108B
:100D60000A7500002F7500009F7500000005001037
:100D7000CC04001060750000827500009D750000B5
:100D80000000E03FBF750000C8750000D07500008E
:100D900000003540D9750000E1750000F1750000D4
:100DA0000176000011760000137600001D76000029
:100DB00027760000317600003C760000F1740000D8
:100DC0003A75000010B50446FFF736FE204601F0E4
:100DD00012FD204610BDA0F13000F3E730B5182514
:100DE000264C85B02A460021204603F086F820468E
:100DF000234C244900F000F92A460021224D2046C8
:100E000003F07BF820462149214C00F0F5F8214AF7
:100E100021492846FFF790F922462049284601F04B
:100E2000BDFC002303931E4B1E4D0293013B019317
:100E3000013B00931C4A013B1C492846FFF7CAFBB3
:100E400028461B4D22461B4901F0A8FC4FF4E13314
:100E5000194A1A49284600F0A5FF22461849284693
:100E600001F09CFC4FF47A71164A174B1360174B34
:100E70001B68B3FBF1F3D36205B030BD9C050010D5
:100E8000B405001032C00920CC05001034C0092080
:100E9000C800001001C0092000C009206501000041
:100EA00045C009200005001041C0092040C00920AC
:100EB0009C060010A507000003C0092002C00920FD
:100EC000390A0000D0040010F11FFF1FCC000010F1
:100ED000352310B5044643608160C260036800F1A9
:100EE000180104309847A06910BD342310B504469A
:100EF0004360C36A8160C260036100F11801036846
:100F000004309847A06910BD322310B504464360F1
:100F10008160C260036800F1180104309847A0693D
:100F200010BD10B5044633202361E36A6060E160C0
:100F30006361201DA260236804F118019847A0692D
:100F400010BD00000748084A08B5121A002102F037
:100F5000D4FF01F0DDFB02F01FFF01F0E0FB01F028
:100F60001FFC00BFB00200101C090010022801DDA8
:100F700001F080BB0120704708B5012001F010FC92
:100F800008B5FFF7F9FF70B50E460446154600F0A8
:100F90005BF9013609D02046002100F06FF929469F
:100FA0002046BDE8704000F066B970BD38B5044613
:100FB0000D4643685AB1C26820461360012100F013
:100FC0005DF929462046BDE8384000F054B9026971
:100FD000F2E70322FFF7D7BF70B50E460446154669
:100FE00000F032F9013606D02A462046BDE87040AE
:100FF0000221FFF7DBBF70BD0022FFF7EDBF00004D
:10100000014800F003B800BF60760000036870B5C7
:10101000DB680446984763685A6823681AB99B6876
:10102000BDE8704018475B68156898476368281AE0
:1010300000285A6807DC916859601B68002BEAD0C9
:1010400050689847E7E7236810681B69BDE870405F
:101050001847000010B5044601300DD110BD9C4268
:1010600009D12046896800F0CEFD2046BDE8104039
:10107000022100F0E1BD0C310B685A1CEFD102488F
:10108000BDE8104000F094B8AD760000884208B585
:1010900008D0431C06D0013106D0044800F088F87F
:1010A0004FF0FF31084608BD0146FBE77C760000A3
:1010B0000B685A1C01D118467047834201D1486819
:1010C00070470C31F4E70000421C10B5044607D00D
:1010D000FFF7EEFF431C044602D1024800F068F817
:1010E000204610BD8D76000038B5044600F032FC75
:1010F000054600F02FFC401BA042FAD338BD00008B
:1011000008B5044902F0B8F902F006FBBDE8084052
:10111000FFF7EABF002474494FF47A735843FFF78E
:10112000E3BF00F03DB8EFF31080C04300F00100D2
:101130007047000008B5FFF7F6FF72B6064B1A6855
:1011400022B980F00100054AC0B210701A681A680E
:1011500001321A6008BD00BFF0060010EC06001056
:1011600008B5074B1A6852B1FFF7DDFF1A68013A5C
:101170001A601B681BB9034B1B7803B962B608BD24
:10118000F0060010EC06001030B585B06D4618244E
:1011900020462946ABBE0446204605B030BD0000BF
:1011A000024B186800F00100704700BFF0ED00E04E
:1011B0000FB4012008B501F0F3FA000000B599B0B2
:1011C000FFF7B8FF17496846FFF716FF164906A84C
:1011D000FFF712FF15490CA8FFF70EFF144912A8DC
:1011E000FFF70AFF019A039B96201A60079A0A9B51
:1011F0001A600D9A109B1A60139A159B1A60FFF7DC
:101200008BFF019A049B96201A60079A099B1A602B
:101210000D9A0F9B1A60139A169B1A60FFF77CFFBA
:10122000E0E700BF32C0092034C0092035C00920E2
:1012300037C0092010B50021044600F0E4FC01206D
:1012400004F01F04A04010BD38B505464B1C0C46E9
:1012500029600FD00846FFF7EDFF24F01F0404F1CA
:101260001803EB6004F11C032B6104F114036860A4
:101270006B61AC6038BD006800F0DEBC11B10129C3
:1012800007D0704782684168136823EA010313603E
:1012900070478268416813680B43F8E7012810B46F
:1012A00008D0022808D010BC7047506820F0010018
:1012B000506010E003460EE038230F4803FB0103A3
:1012C0005868013006D018699C68046093F836307D
:1012D000002BEAD0002338225143074842184058D7
:1012E0000028E0D01BB992F83620002ADBD0034A50
:1012F0001946126810BC1047FC060010F4060010D6
:10130000034A00219068C0F34200FFF7C7BF00BF47
:1013100000C00040034A01219068C0F34200FFF77B
:10132000BDBF00BF00000140034A02219068C0F326
:101330004200FFF7B3BF00BF00800940034A03210A
:101340009068C0F34200FFF7A9BF00BF00C009408A
:1013500070B50B46066829498E4222D006DCA1F5FD
:1013600080418E420CD000210C460BE024498E4275
:101370001AD001F580418E42F5D12249082401E0BE
:10138000052421499AB10125726805FA03F3134334
:101390007360204600F07EFC1C4B05FA04F41C60D0
:1013A00070BD1B490624EDE71A490724EAE7012B23
:1013B0000AD042683820184900FB021292F8361011
:1013C00092F83520D14217D1012202FA03F0B3FA84
:1013D00083F371685B0921EA00017160716802FAA8
:1013E00003F30B4208D1094B02FA04F4C3F880401E
:1013F000BFF34F8FBFF36F8F70BD00BF0000014080
:10140000008009403D1300000113000000E100E0EE
:101410001513000029130000FC0600102DE9F04F01
:10142000644B046887B09C4200F08D806ADCA3F5B1
:1014300080439C4279D0604B0801D3F800C0BCFBCC
:10144000F0F293B200FB12C2002A00F0AA8001253C
:10145000E6469946AB464FF0000A019103910026FB
:101460004FEA4E030493DDF804804FEA8E03EFB297
:101470000593F3B20093049B002BABBF059BB3FB1A
:10148000F8F3B3FBF8F31B09A8BF5B090133C3F3FF
:101490004F03002B00F0888016B1012B08BF0223F8
:1014A000A8195843C000BEFBF0F00130C1EB50005A
:1014B0000028B8BF40420290029A0398824262DA42
:1014C00091425AD10F2D07D1BB469946DDF800A0B5
:1014D0005F464B46CDF800A0217B41F0800121738F
:1014E000C3F30721DBB221712370009B43EA07128B
:1014F000D2B284F82820237B03F07F03237307B044
:10150000BDE8F08F2D4B9C4229D003F580439C42CF
:1015100091D12B4BD3F8AC2122F44022C3F8AC215B
:10152000D3F8AC2142F4802224E0254BD3F8A82143
:1015300022F0C002C3F8A821D3F8A82142F040024B
:10154000C3F8A82177E71E4BD3F8A82122F44072F4
:10155000C3F8A821D3F8A82142F48072F0E7184B11
:10156000D3F8AC2122F44032C3F8AC21D3F8AC213B
:1015700042F48032C3F8AC215DE7BB469946029A3B
:10158000DDF800A003920136F3B2BB428844FFF4B9
:1015900070AF0F2D9CD0019B01350B44E6440193A5
:1015A0005DE70127009297E7002E0CBF012302237D
:1015B00076E700BF00000140CC0000100080094029
:1015C00000C00F40034B1960382341684B43024968
:1015D000CA507047F4060010FC06001030B431B950
:1015E00038254368034C05FB034383F8362030BCA1
:1015F000FFF7AEBEFC06001010B50268137DDB07D6
:10160000FCD5382443680848117804FB0303586864
:10161000C9B2013006D058699B680360536843F033
:1016200001035360084610BDFC0600103821114A22
:10163000436801FB0323DA69013209D01A6B1B6A84
:1016400012681A4214D10368187DC0F380107047E5
:101650000268127D920604D50022012083F834200E
:10166000704793F834000F288CBF0020012070478A
:1016700000207047FC06001038B504460D46204691
:10168000FFF7D4FF0028FAD038212368EDB21D708F
:101690006368044A01FB032393F83420013283F882
:1016A000342038BDFC0600102DE9F84F9A463C4C1A
:1016B00003680546A34218BF002489469046476840
:1016C0001CB1237C03F03F03237438234FF0FF3217
:1016D000344E284603FB0763DA615A60002283F820
:1016E00035201146FFF734FEB9F1000F55D02E49D1
:1016F0004046FFF7DDFC2D4983465046FFF7D8FCF6
:10170000A9F10203012B1BD8BAF1FF3F0BD0244BE8
:1017100098420DD164B1237C244943F080032374A3
:101720005046FFF797FCB9F1030F0CD0BDE8F88FD6
:10173000382000FB076051461C30FFF74AFCF2E7F7
:10174000B9F1010F29D1B8F1FF3F01D1BDE8F88F00
:1017500007222B681A72124B9B450AD14CB1237C8D
:10176000404643F0400323740F49BDE8F84FFFF7AC
:1017700071BC382404FB0760414600220430FFF7A7
:101780002BFC01226B68284604FB036686F8352093
:101790000021BDE8F84FFFF7DBBDBDE8F88F00BFC3
:1017A00000000140FC060010E4760000C076000056
:1017B0002DE9F0410F460546464938461646FFF7E3
:1017C00083FC454904463046FFF77EFC014620462F
:1017D000FFF75CFC414B0446984228605DD047D837
:1017E000A3F58043984250D001234FF000082372A4
:1017F0004FF416512846C4F80480FFF70FFE032269
:101800002B6834491A733846FFF724FC32493046B6
:10181000FFF720FC7A1C03D04146384600F00CFA52
:10182000731C03D00021304600F006FA2B4B9C427B
:101830004BD03ED8A3F580439C4243D038216A6800
:10184000274B284601FB02324FF0FF330021536043
:10185000D3611A46FFF728FF224B9C4206D1012292
:10186000214B69681A602868204B03C3BDE8F081EA
:101870001F4B984217D003F580439842B4D11D4ABC
:10188000D2F8C43043F0007304E01A4AD2F8C430EE
:1018900043F00803C2F8C430A6E7164AD2F8C430B1
:1018A00043F01003F6E7134AD2F8C43043F08073D4
:1018B000F0E70F4B9C420AD003F580439C42BDD118
:1018C000032300E000236B60B8E70123FBE702235A
:1018D000F9E700BF747700000877000000000140BE
:1018E000FC06001000C00040F806001010090010AF
:1018F0000080094000C00F4008B5104B1868E0B9DF
:1019000001210F4A1960D2F8C43043F40003C2F831
:10191000C430A2F5D022106702200A4B1B68506029
:101920000948B3FBF0F3013BD36004205160074941
:1019300000F0B0F91022064B1A6008BDDC07001059
:1019400000C00F40CC00001000093D000110000055
:1019500000E100E008B5044B1B680BB9FFF7CCFFB2
:10196000024B986808BD00BFDC070010004009402A
:10197000034B98615A6942F001025A61704700BFF7
:1019800000400940024A536923F001035361704744
:10199000004009400122014B1A6070470040094095
:1019A0000168054B0A68120701D500207047013B0A
:1019B000F8D14FF0FF307047A18601003421036851
:1019C00010B51A689961120748BF08224FF0240128
:1019D0000446196048BF9A61FFF7E2FF202223689E
:1019E00058689A6110BD0000102203681A6008222E
:1019F0009A61054A186810F0100000D17047013A4A
:101A0000F8D10120704700BFA1860100044B4900B6
:101A10001B689B08B3FBF1F10368596119617047BA
:101A2000CC000010F8B50E46044620493046154655
:101A3000FFF74AFB1E4907462846FFF745FB0146CC
:101A40003846FFF723FB1B4B2060984221D003F55B
:101A50008823984223D0A3F50423984206D1164A3E
:101A6000D2F8C43043F08003C2F8C4302046134992
:101A7000FFF7CCFF3C22236830469A6140220B4995
:101A80001A60FFF7E7FA2846BDE8F8400849FFF773
:101A9000E1BA094AD2F8C43043F40023E4E7064A25
:101AA000D2F8C43043F08063DEE700BF1C7800004A
:101AB000E077000000C0054000C00F40A086010094
:101AC0002DE9F04E04460E4691461D46FFF776FF7F
:101AD000102809D0082807D02046FFF785FF6FF0AF
:101AE00001052846BDE8F08E0827236846F0010668
:101AF0009E6020469F61FFF753FF23685B68402B81
:101B000017D100264FF0040B05F1FF3A5645236824
:101B100015DBC3F818B020469F61FFF741FF23682B
:101B20009A685B68582B1ED02046FFF75DFF55462C
:101B3000D7E72046FFF758FF4FF0FF35D1E7C3F84E
:101B400000B020469F61FFF72BFF23689A685B680F
:101B5000502B04D02046FFF747FF3546C1E709F870
:101B600006200136D2E7089B09F80620002BB8D0E2
:101B70002046FFF739FFB4E72DE9F843089F0446F4
:101B80000E4691461D46FFF719FF102809D0082878
:101B900007D02046FFF728FF6FF001052846BDE873
:101BA000F8834FF00808236806F0FE069E60204682
:101BB000C3F81880FFF7F4FE23685B68182B08D180
:101BC0000026AE420BDB002FE8D02046FFF70CFFCB
:101BD000E4E72046FFF708FF4FF0FF35DEE7236814
:101BE00019F8062020469A60C3F81880FFF7D8FE3F
:101BF00023685B68282B04D02046FFF7F5FE3546A6
:101C0000CCE70136DDE710B5032400F16040A0F514
:101C10001C2043000009800000F1804000F53030B6
:101C2000026803F01E039C4022EA0402026002687C
:101C300099401143016010BD00F16040A0F51C20E7
:101C400043099B0003F1804303F5303330B500F0C6
:101C50001F029C6EC1F3800505FA02F224EA020419
:101C60009C669C6E22439A6695B903244300000942
:101C7000800000F1804000F53030026C03F01E035C
:101C80009C4022EA04020264026C99401143016400
:101C900030BD000030B50C4CA268A4681346B4F106
:101CA000805F0CD2131F094C094A53F8045F42F8B5
:101CB000045FA242F9D14FF08053034A9360103081
:101CC00043F8201030BD00BF00ED00E0C000001060
:101CD000FCFFFF0F2022264BC3F8A021D3F8A02140
:101CE000920603D5D3F8A0215006FBD50222C3F8F3
:101CF000042100220120C3F8A821C3F8AC210B2243
:101D0000C3F80C01AA21C3F884205522C3F88C1013
:101D1000C3F88C20C3F88000C3F88C10C3F88C2063
:101D2000134B1A46D3F888104901FBD50321C3F899
:101D30008010AA21C3F88C105521C3F88C10D2F85A
:101D4000883013F0407FFAD00523C2F80831094BE0
:101D5000C2F8C4300023C2F8C831136823F47043BA
:101D600023F03A0343F4405343F03A0313607047BF
:101D700000C00F40DE8728047047A0F13000FFF755
:101D8000FBBFA0F13000FFF7F7BF00F0B5BAA0F13C
:101D90003000FFF7FABF00F0B2BAA0F13000FFF751
:101DA000FABF000010B5044600F0B0FA002104F1BB
:101DB000300000F0ADF9044B204603F1080228334F
:101DC0002260236310BD00BF5878000070470000F8
:101DD000024B1A680AB91A1D1A607047E007001012
:101DE00010B5044600F007FD204610BD074B10B5A6
:101DF0000360002304464360054B04304360FFF753
:101E000011FE044B20461C6010BD00BFD0780000BE
:101E1000A0860100E807001070B504460D4603686F
:101E20001B689847201DA5602946FFF7EFFD044B6E
:101E300020461C602368BDE870405B68184700BFFF
:101E4000E807001070B504460368084D1B68984702
:101E50002B689C4204D0A168201DFFF7D7FD2C60A1
:101E600023682046BDE870405B681847E80700100B
:101E7000F7B504460E4617461D4603681B6898478B
:101E80002046FFF7DFFF9DF82030314683F0010345
:101E900000933A462B46201DFFF76EFE0646236848
:101EA00020465B689847A81B18BF012003B0F0BD0F
:101EB000F7B504460E4617461D4603681B6898474B
:101EC0002046FFF7BFFF9DF82030314683F0010325
:101ED00000933A462B46201DFFF7F2FD0646236885
:101EE00020465B689847A81B18BF012003B0F0BDCF
:101EF0007047000070B504460546074B00F14406E4
:101F000044F8043B54F8040B08B100F074FCB442EC
:101F1000F8D1284670BD00BFE878000010B504462F
:101F2000FFF7E8FF204600F066FC204610BD0000E9
:101F30002DE9F0410546002490B08DE80E00169B77
:101F400020480393179B28600493189B6C640593A7
:101F5000199B2F1D06931A9B07931B9B08931C9B91
:101F600009931D9B0A931E9B0B931F9B0C93209B15
:101F70000D93219B0E93229B0F935DF82480B8F163
:101F8000FF3F1DD0182000F01DFC0646002118223E
:101F900001F0B3FF41463046FFF72EF8B8F1FF3F9E
:101FA00047F8046B05D0012303FA04F26B6C13436A
:101FB0006B640134102CE0D1284610B0BDE8F081EC
:101FC0000026EBE7E878000070B5044654F8043BBF
:101FD00005469B680E469847002354F8042B42B1EF
:101FE00046FA03F111F0010F506814BFD26812696C
:101FF00010600133102BF0D12B682846BDE87040EB
:10200000DB68184710B50446FFF7DEFF204610BD19
:10201000002310B5036043600A7804462F2A0DD1CF
:102020004A785AB1481C1946206023681A782F2A2A
:1020300006D10133236000F033F96060204610BD03
:10204000002AF8D0013301312360EEE700687047C1
:10205000406808B520B100F0CCF8431E5842584102
:1020600008BD10B50446FFF7F3FF00B1606810BD6E
:10207000406808B520B100F0BCF8B0FA80F0400923
:1020800008BD10B50446FFF7F3FF00B1606810BD4E
:102090004068003018BF01207047F8B50E4603684D
:1020A00004469B6B8F1835469847BD4207D023687E
:1020B00015F8011B1B6C204698470130F5D12368A9
:1020C0002046DB6B9847A81BF8BDF8B50E460368A1
:1020D00004469B6B8F1835469847BD4208D023684D
:1020E00020465B6C9847431C02D005F8010BF4E7CF
:1020F00023682046DB6B9847A81BF8BD002070477B
:102100000020704770470020704700207047000093
:102110001FB50446002200F075F8094B22462360E3
:1021200000230849236101A803F09CF8064901A88F
:1021300001F05EFD206100F036FB204604B010BDCA
:1021400050790000407900004479000010B5044641
:10215000054B0360006901F05DFB044B20462360E2
:1021600000F06EF8204610BD5079000000790000A4
:1021700038B5044603689B6B9847206901F004FC5E
:10218000206900F013FB054623682046DB6B984767
:10219000284638BD0EB477B50446036807AD55F838
:1021A000046B9B6B98472069019501F0EDFB019A48
:1021B0003146206902F0C6F8054623682046DB6BED
:1021C0009847284603B0BDE8704003B07047884286
:1021D00038B504460D460AD0FEF708FC3CB1EB6862
:1021E0001BB15B68294620469847EB68E3602046B0
:1021F00038BD007B704703680BB9031D036000689E
:102200007047000038B50B4B0446036000230D46B1
:102210004360A16002730848FFF7EDFF45B1074B2B
:102220001A681C6062600448FFF7E5FF204638BD6D
:102230006560F8E7A0790000F0070010EC070010D7
:1022400010B504460E4B03600E48FFF7D4FFA36899
:102250002BB10D4A13689C420CD163681360094886
:10226000FFF7C9FF237B13B9204600F0C7FA2046C9
:1022700010BD13465A689442FBD162685A60EEE77B
:10228000A0790000F0070010EC07001010B504461C
:10229000FFF7D6FF204600F0AEFA204610BD000042
:1022A000F8B507460D480E46FFF7A5FF0C4B1C6816
:1022B00064B1A5687DB132463946284603F077F807
:1022C00048B9284603F06BF8864204D10348FFF76B
:1022D00092FF2046F8BD6468EAE700BFF0070010EF
:1022E000EC07001070477047704700EB01129369CC
:1022F00002F10C001B6818470430FFF77DB910B5D8
:102300000C460430FFF7B8F9204610BD2DE9FF4117
:102310000F46002104469046174A184E184DC362D6
:102320000260416081608161816269460C30039581
:102330000096FFF74CFF6846FEF758FB694604F12C
:102340001C0003950096251DFFF741FF6846FEF728
:102350004DFB424639462846FFF72AFAE16A2846ED
:10236000FFF75CF8284622460649FFF72BF920467E
:1023700004B0BDE8F08100BFB0790000E5220000A4
:1023800010740000EB2200002DE9FF41054688464D
:10239000164655F8043B04461B689847FEF7CAFEEC
:1023A000D8F80C70300197B10C3041462044FFF74B
:1023B0000EFF012231462846FFF710F9FEF7D0FE46
:1023C000236820465B68984704B0BDE8F081074B5E
:1023D0000C300093064B694620440393FFF7F7FE49
:1023E0006846FEF703FB3A46E4E700BFE52200003B
:1023F0001074000010B50446006930B103686169CB
:102400005B6A98470023236110BD6FF0150010BD73
:1024100030B40446006903689D6A1346AC460A4618
:10242000616930BC604730B4044600690368DD6A06
:102430001346AC460A46616930BC6047036941698E
:102440001A681846126B1047036941691A681846E2
:10245000526B104730B40446006903689D6B134605
:10246000AC460A46616930BC6047036941691A6835
:102470001846D26B1047036941691A681846126CF6
:102480001047036941691A681846526C104770B5C5
:102490000D460169044641B929680E6A00F114012C
:1024A0002846B04718B9256170BD6FF0150070BDA2
:1024B000074B10B50360036904460BB1FFF79AFFA1
:1024C000044B20462360FFF7BBFE204610BD00BF33
:1024D000C87900000079000010B50446FFF7E8FF56
:1024E000204600F088F9204610BD0000002210B5FB
:1024F00004461146FFF786FE034B20462360002367
:102500002361636110BD00BFC879000001F058BDB0
:1025100001F0B4BD01F008BD01F0F7BC034B10B5EC
:1025200003600446FFF7C4FF204610BD147A000084
:1025300008B5084B1B685BB907490848084AFFF70C
:1025400037F94FF41651BDE808400448FEF766BF5E
:1025500008BD00BFF806001002C0092010090010D5
:1025600003C0092070470000022810B5044601DCB2
:10257000002010BD01F0F6F8092300220360094B8A
:10258000033C53F8240043F8242040B103681B693E
:102590009847041EECDA01F0E5F8644204604FF05D
:1025A000FF3010BDF8070010F8B505460E4614467A
:1025B00001F0D8F80923022D03600FDC124B1B68D1
:1025C0000BB9FFF7B5FF35463719104EBD4215D090
:1025D00015F8011B3046FFF74FF8F7E70C4B033DAA
:1025E00053F8250060B103682246DB6831469847FE
:1025F000041E03DA01F0B6F8634203602046F8BD1A
:102600004FF0FF34FAE700BFF80600101009001081
:10261000F807001070B504460D46164601F0A2F802
:102620000923022C03600BDC0F4B1B680BB9FFF76F
:102630007FFF0E48FEF7E0FF01242870204670BDA2
:102640000B4B033C53F8240058B1036832469B6897
:1026500029469847041EF1DA01F084F863420360CA
:10266000ECE74FF0FF34E9E7F8060010100900101E
:10267000F807001010B5044601F074F80923022C85
:10268000036010DD0A4B033C53F8240040B103689B
:102690009B699847041E08DA01F064F864420460FC
:1026A0004FF0FF3010BD012010BD002010BD00BF55
:1026B000F807001070B504460D46164601F052F8B2
:1026C0000923022C03600BDD084B033C53F8240064
:1026D00040B1036832462946BDE87040DB691847BF
:1026E000002070BD4FF0FF3070BD00BFF807001034
:1026F000022808B504DC4FF4005300204B6008BDED
:1027000001F030F8092303604FF0FF3008BD704737
:1027100008B5FFF727FFFFF7FAFF08BD704708B5B8
:10272000FFF7FCFFBDE80840FEF79AB90C4A10B568
:1027300013681844EFF30881884205D30C22094B33
:102740004FF0FF301A6010BD07490C6824B10749EB
:10275000096821448842F1D21060184610BD00BFBC
:10276000D000001018090010000900100409001022
:10277000094C08B523680546986801F005F92368F7
:10278000D86801F001F9FEF7CCFC08B1FEF7FCFCBB
:102790000DB1FEF713FDFEE7D400001001207047D5
:1027A00008B5FFF7E5FF002102F0A5BC01F02AB94A
:1027B0007047704708B5FFF7FBFF08BD08B5FFF786
:1027C000F8FF08BD10B501F06FFB044610B90248D0
:1027D000FEF7EEFC204610BD587A000008B101F06B
:1027E0006BBB704710B50446FFF798FE2046FFF715
:1027F000F5FF204610BDFFF7F1BF000010B50446FD
:102800000948FFF7F8FC00231946084A52F823004C
:10281000A04208BF42F823100133402BF6D10248F2
:10282000FFF7E9FC10BD00BFF8080010F807001022
:102830002DE9F34789464A49064602F0A6FD0446BB
:1028400028B9FFF775FE204602B0BDE8F08745497C
:10285000304602F09AFD18B9FFF76AFE0124F2E74C
:102860004149304602F091FD18B9FFF761FE02249C
:10287000E9E700F077FF09233C4F03603C48FFF78E
:10288000BAFC0024B84657F82450002D52D0013429
:10289000402CF8D100F066FF182303603448FFF79E
:1028A000AAFC0DE031466846FFF7B2FB6846FFF729
:1028B000EFFB40B947F8240000F054FF0223036007
:1028C0004FF0FF34BFE76846FFF7D2FB20B1684600
:1028D000FFF7D7FB05463DE06846FFF7C2FB82469F
:1028E00030B900F03FFF0223036047F824A0E7E778
:1028F0001820FFF767FF0646FFF7F8FD1D4B6846F7
:102900003360FFF7A3FB29F480330246514630467B
:10291000FFF7BDFD071E0BDA00F024FF7F420760C2
:102920001EB1336830465B68984748F82450C7E7C3
:1029300035460FE04FF0FF330D4847F82430FFF7DE
:102940005AFC33783A2BADD16A460B49304602F037
:10295000ADFC009D002DE8D048F82450033472E708
:102960007D7A0000847A0000757A0000F807001074
:10297000F8080010147A00004079000038B50446C9
:10298000FFF738FD05461CB1236820465B68984771
:10299000284638BD0649074A074B9A42BEBF51F840
:1029A000040B42F8040BF8E704488047044800474A
:1029B0007C7D0000C8000010B0020010D51C000093
:1029C000450F0000FEE7FEE7FEE7FEE7FEE7FEE755
:1029D000FEE7FEE7FEE7FEE781F0004102E000BF10
:1029E00083F0004330B54FEA41044FEA430594EACF
:1029F000050F08BF90EA020F1FBF54EA000C55EA0A
:102A0000020C7FEA645C7FEA655C00F0E2804FEADA
:102A10005454D4EB5555B8BF6D420CDD2C4480EABC
:102A2000020281EA030382EA000083EA010180EAEC
:102A3000020281EA0303362D88BF30BD11F0004F3A
:102A40004FEA01314FF4801C4CEA113102D0404270
:102A500061EB410113F0004F4FEA03334CEA1333AB
:102A600002D0524263EB430394EA050F00F0A780C3
:102A7000A4F10104D5F1200E0DDB02FA0EFC22FABE
:102A800005F2801841F1000103FA0EF2801843FAB2
:102A900005F359410EE0A5F120050EF1200E012AA3
:102AA00003FA0EFC28BF4CF0020C43FA05F3C018E1
:102AB00051EBE37101F0004507D54FF0000EDCF15A
:102AC000000C7EEB00006EEB0101B1F5801F1BD303
:102AD000B1F5001F0CD349085FEA30004FEA3C0C07
:102AE00004F101044FEA445212F5800F80F09A80FD
:102AF000BCF1004F08BF5FEA500C50F1000041EB01
:102B0000045141EA050130BD5FEA4C0C404141EB04
:102B1000010111F4801FA4F10104E9D191F0000F2B
:102B200004BF01460020B1FA81F308BF2033A3F1AE
:102B30000B03B3F120020CDA0C3208DD02F1140CA5
:102B4000C2F10C0201FA0CF021FA02F10CE002F1E0
:102B50001402D8BFC2F1200C01FA02F120FA0CFCD9
:102B6000DCBF41EA0C019040E41AA2BF01EB045122
:102B7000294330BD6FEA04041F3C1CDA0C340EDC20
:102B800004F11404C4F1200220FA04F001FA02F363
:102B900040EA030021FA04F345EA030130BDC4F121
:102BA0000C04C4F1200220FA02F001FA04F340EA16
:102BB0000300294630BD21FA04F0294630BD94F0C7
:102BC000000F83F4801306BF81F480110134013DAE
:102BD0004EE77FEA645C18BF7FEA655C29D094EA1F
:102BE000050F08BF90EA020F05D054EA000C04BF9D
:102BF0001946104630BD91EA030F1EBF0021002088
:102C000030BD5FEA545C05D14000494128BF41F026
:102C1000004130BD14F580043CBF01F5801130BD8A
:102C200001F0004545F0FE4141F470014FF0000015
:102C300030BD7FEA645C1ABF194610467FEA655CC6
:102C40001CBF0B46024650EA013406BF52EA033568
:102C500091EA030F41F4002130BD00BF90F0000F56
:102C600004BF0021704730B54FF4806404F1320492
:102C70004FF000054FF0000150E700BF90F0000F4B
:102C800004BF0021704730B54FF4806404F1320472
:102C900010F0004548BF40424FF000013EE700BF42
:102CA00042004FEAE2014FEA31014FEA02701FBFD2
:102CB00012F07F4393F07F4F81F06051704792F0A4
:102CC000000F14BF93F07F4F704730B54FF460741E
:102CD00001F0004521F0004120E700BF50EA010269
:102CE00008BF704730B54FF000050AE050EA010216
:102CF00008BF704730B511F0004502D5404261EB86
:102D000041014FF4806404F132045FEA915C3FF4C6
:102D1000DCAE4FF003025FEADC0C18BF03325FEA5F
:102D2000DC0C18BF033202EBDC02C2F1200300FA14
:102D300003FC20FA02F001FA03FE40EA0E0021FA39
:102D400002F11444C1E600BF70B54FF0FF0C4CF423
:102D5000E06C1CEA11541DBF1CEA135594EA0C0FD9
:102D600095EA0C0F00F0DEF82C4481EA030621EA14
:102D70004C5123EA4C5350EA013518BF52EA03354F
:102D800041F4801143F4801338D0A0FB02CE4FF001
:102D90000005E1FB02E506F00042E0FB03E54FF031
:102DA0000006E1FB03569CF0000F18BF4EF0010E29
:102DB000A4F1FF04B6F5007F64F5407404D25FEA25
:102DC0004E0E6D4146EB060642EAC62141EA5551D8
:102DD0004FEAC52040EA5E504FEACE2EB4F1FD0C1A
:102DE00088BFBCF5E06F1ED8BEF1004F08BF5FEA98
:102DF000500E50F1000041EB045170BD06F000464A
:102E000046EA010140EA020081EA0301B4EB5C04F6
:102E1000C2BFD4EB0C0541EA045170BD41F48011EE
:102E20004FF0000E013C00F3AB8014F1360FDEBF13
:102E3000002001F0004170BDC4F10004203C35DAEF
:102E40000C341BDC04F11404C4F1200500FA05F372
:102E500020FA04F001FA05F240EA020001F0004213
:102E600021F0004110EBD37021FA04F642EB060189
:102E70005EEA430E08BF20EAD37070BDC4F10C04B3
:102E8000C4F1200500FA04F320FA05F001FA04F277
:102E900040EA020001F0004110EBD37041F1000163
:102EA0005EEA430E08BF20EAD37070BDC4F120056E
:102EB00000FA05F24EEA020E20FA04F301FA05F2D6
:102EC00043EA020321FA04F001F0004121FA04F27E
:102ED00020EA020000EBD3705EEA430E08BF20EA4E
:102EE000D37070BD94F0000F0FD101F00046400088
:102EF00041EB010111F4801F08BF013CF7D041EA0A
:102F0000060195F0000F18BF704703F0004652000D
:102F100043EB030313F4801F08BF013DF7D043EADE
:102F20000603704794EA0C0F0CEA135518BF95EA94
:102F30000C0F0CD050EA410618BF52EA4306D1D11B
:102F400081EA030101F000414FF0000070BD50EA3A
:102F5000410606BF1046194652EA430619D094EAC4
:102F60000C0F02D150EA013613D195EA0C0F05D1AE
:102F700052EA03361CBF104619460AD181EA030102
:102F800001F0004141F0FE4141F470014FF00000BA
:102F900070BD41F0FE4141F4780170BD70B54FF055
:102FA000FF0C4CF4E06C1CEA11541DBF1CEA1355D5
:102FB00094EA0C0F95EA0C0F00F0A7F8A4EB0504B7
:102FC00081EA030E52EA03354FEA013100F08880AE
:102FD0004FEA03334FF0805545EA131343EA126377
:102FE0004FEA022245EA111545EA10654FEA00262C
:102FF0000EF000419D4208BF964244F1FD0404F5E5
:10300000407402D25B084FEA3202B61A65EB030540
:103010005B084FEA32024FF480104FF4002CB6EBFD
:10302000020E75EB030E22BFB61A754640EA0C007D
:103030005B084FEA3202B6EB020E75EB030E22BFBD
:10304000B61A754640EA5C005B084FEA3202B6EBFE
:10305000020E75EB030E22BFB61A754640EA9C00BD
:103060005B084FEA3202B6EB020E75EB030E22BF8D
:10307000B61A754640EADC0055EA060E18D04FEA4B
:10308000051545EA16754FEA06164FEAC30343EAEB
:1030900052734FEAC2025FEA1C1CC0D111F4801FB8
:1030A0000BD141EA00014FF000004FF0004CB6E7B1
:1030B00011F4801F04BF01430020B4F1FD0C88BF50
:1030C000BCF5E06F3FF6AFAEB5EB030C04BFB6EB5B
:1030D000020C5FEA500C50F1000041EB045170BD4E
:1030E0000EF0004E4EEA113114EB5C04C2BFD4EB7B
:1030F0000C0541EA045170BD41F480114FF0000EFF
:10310000013C90E645EA060E8DE60CEA135594EA7A
:103110000C0F08BF95EA0C0F3FF43BAF94EA0C0F7D
:103120000AD150EA01347FF434AF95EA0C0F7FF4F2
:1031300025AF104619462CE795EA0C0F06D152EA46
:1031400003353FF4FDAE1046194622E750EA41062A
:1031500018BF52EA43067FF4C5AE50EA41047FF43B
:103160000DAF52EA43057FF4EBAE12E74FEA41029E
:1031700012F5001215D211D56FF47873B3EB6252C9
:1031800012D94FEAC12343F0004343EA505311F0F0
:10319000004F23FA02F018BF404270474FF0000082
:1031A000704750EA013005D111F0004008BF6FF0C0
:1031B000004070474FF00000704700BF4FEA4102E7
:1031C000B2F1E04324BFB3F5001CDCF1FE5C0DD985
:1031D00001F0004C4FEAC0024CEA5070B2F1004FCF
:1031E00040EB830008BF20F00100704711F0804FD2
:1031F00021D113F13872BCBF01F00040704741F497
:1032000080114FEA5252C2F11802C2F1200C10FA9A
:103210000CF320FA02F018BF40F001004FEAC1237E
:103220004FEAD32303FA0CFC40EA0C0023FA02F322
:103230004FEA4303CCE77FEA625307D150EA0133F8
:103240001EBF4FF0FE4040F44000704701F00040C8
:1032500040F0FE4040F40000704700BF80F00040A6
:1032600002E000BF81F0004142001FBF5FEA41035E
:1032700092EA030F7FEA226C7FEA236C6AD04FEA5E
:103280001262D2EB1363C1BFD218414048404140A3
:10329000B8BF5B42192B88BF704710F0004F40F455
:1032A000000020F07F4018BF404211F0004F41F471
:1032B000000121F07F4118BF494292EA030F3FD03D
:1032C000A2F1010241FA03FC10EB0C00C3F1200350
:1032D00001FA03F100F0004302D5494260EB4000DF
:1032E000B0F5000F13D3B0F1807F06D340084FEA4A
:1032F000310102F10102FE2A51D2B1F1004F40EB3F
:10330000C25008BF20F0010040EA030070474900A6
:1033100040EB000010F4000FA2F10102EDD1B0FA71
:1033200080FCACF1080CB2EB0C0200FA0CF0AABF66
:1033300000EBC25052421843BCBFD0401843704704
:1033400092F0000F81F4000106BF80F4000001320A
:10335000013BB5E74FEA41037FEA226C18BF7FEAE1
:10336000236C21D092EA030F04D092F0000F08BF23
:103370000846704790EA010F1CBF0020704712F00A
:103380007F4F04D1400028BF40F00040704712F149
:1033900000723CBF00F50000704700F0004343F0AE
:1033A000FE4040F4000070477FEA226216BF0846E4
:1033B0007FEA23630146420206BF5FEA412390EAA7
:1033C000010F40F4800070474FF0000304E000BF9D
:1033D00010F0004348BF40425FEA000C08BF70474E
:1033E00043F0964301464FF000001CE050EA010212
:1033F00008BF70474FF000030AE000BF50EA010227
:1034000008BF704711F0004302D5404261EB410113
:103410005FEA010C02BF84460146002043F0B64338
:1034200008BFA3F18053A3F50003BCFA8CF2083A5D
:10343000A3EBC25310DB01FA02FC634400FA02FC66
:10344000C2F12002BCF1004F20FA02F243EB02006D
:1034500008BF20F00100704702F1200201FA02FCCF
:10346000C2F1200250EA4C0021FA02F243EB0200C2
:1034700008BF20EADC7070474FF0FF0C1CEAD05206
:103480001EBF1CEAD15392EA0C0F93EA0C0F6FD0C7
:103490001A4480EA010C400218BF5FEA41211ED0A5
:1034A0004FF0006343EA501043EA5111A0FB013191
:1034B0000CF00040B1F5000F3EBF490041EAD37166
:1034C0005B0040EA010062F17F02FD2A1DD8B3F1E2
:1034D000004F40EBC25008BF20F00100704790F051
:1034E000000F0CF0004C08BF49024CEA502040EAA3
:1034F00051207F3AC2BFD2F1FF0340EAC250704769
:1035000040F400004FF00003013A5DDC12F1190FA6
:10351000DCBF00F000407047C2F10002410021FA18
:1035200002F1C2F1200200FA02FC5FEA310040F130
:10353000000053EA4C0308BF20EADC70704792F0A9
:10354000000F00F0004C02BF400010F4000F013AE1
:10355000F9D040EA0C0093F0000F01F0004C02BFDC
:10356000490011F4000F013BF9D041EA0C018FE74B
:103570000CEAD15392EA0C0F18BF93EA0C0F0AD051
:1035800030F0004C18BF31F0004CD8D180EA010077
:1035900000F00040704790F0000F17BF90F0004F10
:1035A000084691F0000F91F0004F14D092EA0C0FF2
:1035B00001D142020FD193EA0C0F03D14B0218BF85
:1035C000084608D180EA010000F0004040F0FE40CB
:1035D00040F40000704740F0FE4040F44000704767
:1035E0004FF0FF0C1CEAD0521EBF1CEAD15392EAE6
:1035F0000C0F93EA0C0F69D0A2EB030280EA010CD6
:1036000049024FEA402037D04FF0805343EA11116E
:1036100043EA10130CF000408B4238BF5B0042F1CC
:103620007D024FF4000C8B4224BF5B1A40EA0C0071
:10363000B3EB510F24BFA3EB510340EA5C00B3EBA3
:10364000910F24BFA3EB910340EA9C00B3EBD10F91
:1036500024BFA3EBD10340EADC001B0118BF5FEAE3
:103660001C1CE0D1FD2A3FF650AF8B4240EBC2500C
:1036700008BF20F0010070470CF0004C4CEA5020CD
:103680007F32C2BFD2F1FF0340EAC250704740F41C
:1036900000004FF00003013A37E792F0000F00F00E
:1036A000004C02BF400010F4000F013AF9D040EA8C
:1036B0000C0093F0000F01F0004C02BF490011F420
:1036C000000F013BF9D041EA0C0195E70CEAD15318
:1036D00092EA0C0F08D142027FF47DAF93EA0C0FFF
:1036E0007FF470AF084676E793EA0C0F04D14B02E3
:1036F0003FF44CAF08466EE730F0004C18BF31F095
:10370000004CCAD130F000427FF45CAF31F000438E
:103710007FF43CAF5FE700BF4FEA4002B2F1FE4FDB
:103720000FD34FF09E03B3EB12620DD94FEA002383
:1037300043F0004310F0004F23FA02F018BF40425C
:1037400070474FF00000704712F1610F01D1420243
:1037500005D110F0004008BF6FF0004070474FF0F7
:1037600000007047014B1868704700BFD40000107C
:1037700070B505460C4611B90026304670BD18B12B
:1037800083690BB900F086F91F4B9C4232D16C68FB
:10379000B4F90C30002BEFD02146284600F042F857
:1037A000236B064633B1216A284698470028B8BFE4
:1037B0004FF0FF36A3891B0603D521692846FEF783
:1037C000A9FE616B41B104F14403994202D028463D
:1037D000FEF7A0FE00236363A16C21B12846FEF72B
:1037E00099FE0023A36400F0C1F90023A38100F037
:1037F000BEF9C2E7054B9C4201D1AC68C8E7044B57
:103800009C4208BFEC68C3E7AC7A0000CC7A0000A9
:103810008C7A0000024B01461868FFF7A9BF00BF71
:10382000D40000108A892DE9F041054610070C46A6
:103830005AD44B68002B05DC0B6C002B02DC0020FB
:10384000BDE8F081E66A002EF9D0002312F4805220
:103850002F682B6033D0606DA3895A0705D5636844
:10386000C01A636B0BB1236CC01A00230246E66AD0
:10387000216A2846B047431CA38906D129681D291F
:103880004BD82B4ACA40D60747D50022626022692E
:10389000D904226004D5421C01D12B6803B96065AC
:1038A000616B2F600029CAD004F14403994202D011
:1038B0002846FEF72FFE00206063BDE8F081216AF4
:1038C00001232846B047411CC6D12B68002BC3D02A
:1038D0001D2B01D0162B01D12F60B0E7A38943F037
:1038E0004003A381BDE8F0810F69002FA7D09307A3
:1038F00018BF00230E6808BF4B69A6EB07080F60CE
:103900008B60B8F1000F9ADD43463A46216A28469B
:10391000A66AB047002807DCA38943F04003A381CF
:103920004FF0FF30BDE8F0810744A8EB0008E8E75E
:103930000100402038B50B6905460C46DBB118B1D3
:1039400083690BB900F0A6F80C4B9C4209D16C6856
:10395000B4F90C307BB121462846BDE83840FFF76A
:1039600061BF074B9C4201D1AC68F1E7054B9C421B
:1039700008BFEC68ECE7002038BD00BFAC7A00005F
:10398000CC7A00008C7A0000014620B9044B05492E
:10399000186800F0E3B9044B1868FFF7CBBF00BF0D
:1039A000EC7A000035390000D400001038B50C4620
:1039B000054618B183690BB900F06CF80E4B9C42B8
:1039C0000BD16C686368013B002B63600FDA214602
:1039D0002846BDE8384001F023BB084B9C4201D18A
:1039E000AC68EFE7064B9C4208BFEC68EAE7236847
:1039F0005A1C2260187838BDAC7A0000CC7A0000DE
:103A00008C7A0000024B01461868FFF7CFBF00BF59
:103A1000D4000010014900F0A1B900BF3539000001
:103A2000002310B5044603604360836081814366D0
:103A3000C281036143618361194608225C3000F052
:103A40005CFA054B24626362044BA362044BE3629D
:103A5000044B236310BD00BF015300002753000037
:103A60005F5300008353000070B568254A1E55431C
:103A70000E4605F17401FEF749FD044640B10021F0
:103A800080E842000C30A06005F1680200F035FAD1
:103A9000204670BD836910B5044633BB8364C3649C
:103AA0000365124B124A1B688262984204BF0123CD
:103AB000836100F01FF86060204600F01BF8A060F2
:103AC000204600F017F80022E06004216068FFF74C
:103AD000A7FF01220921A068FFF7A2FF02221221FD
:103AE000E068FFF79DFF0123A36110BDEC7A0000A1
:103AF000153A0000F8B51C4B07461E68B36913B9A8
:103B00003046FFF7C7FF4836B4687368013B03D5FA
:103B1000336833B13668F7E7B4F90C506DB16834E7
:103B2000F4E704213846FFF79FFF30600028F1D109
:103B30000C2304463B602046F8BD4FF6FF73E3813B
:103B400001236566A3812560A560656025616561C7
:103B5000A5610822294604F15C0000F0CEF96563F6
:103B6000A563A564E564E6E7EC7A0000704770475A
:103B7000F7B50F46114601AA054602F0C9FC0646F4
:103B800018B90024204603B0F0BD2846FFF7B2FF65
:103B900004460028F5D04FF4DB73019A39462846D5
:103BA00001F096F9002806DA0025FFF7DFFFA5816E
:103BB000FFF7DDFFE5E70A4BE0816362094BA68171
:103BC000A362094B2462E362084B2363F305D9D552
:103BD000022300222146284600F012F8D2E700BF57
:103BE00001530000275300005F530000835300007F
:103BF000024B0A4601461868FFF7BABFD40000100E
:103C000000F000B82DE9F8430C4691461E460546E3
:103C100018B183690BB9FFF73DFF3F4B9C4212D1AE
:103C20006C68A38903F48473B3F5847F03D12146C0
:103C30002846FFF77FFED4F82C80B8F1000F0CD196
:103C40001D232B6057E0354B9C4201D1AC68E8E75F
:103C5000334B9C4208BFEC68E3E7012E30D0022EC4
:103C600001D0002E55D123691BB92146284600F00A
:103C7000DBF821462846FFF75DFE074600283AD1CB
:103C800033464A46216A2846C047013033D0616B2B
:103C900041B104F14403994202D02846FEF73AFCB0
:103CA000002363630021236961602360A3890822E4
:103CB00023F40263A38104F15C0000F01EF91CE010
:103CC00021462846FFF736FEA28912F480520CD016
:103CD000606DA3895A0713D56368C01A636B0BB173
:103CE000236CC01A81440026BDE7216A334628466A
:103CF000C047411CEDD14FF0FF373846BDE8F8838F
:103D00001B07EFD52368002BECD022699B1A1844BF
:103D1000E8E7162395E700BFAC7A0000CC7A0000F4
:103D20008C7A00002DE9F0418846002600F1480415
:103D300014B93046BDE8F081A5686768013F01D538
:103D40002468F5E7AB89012B06D9B5F90E300133AC
:103D500002D02846C04706436835EFE72DE9F8430F
:103D600080468946002600F1480414B93046BDE873
:103D7000F883A5686768013F01D52468F5E7AB893A
:103D8000012B07D9B5F90E30013303D0294640463F
:103D9000C84706436835EEE770B500250C4E0D4C5C
:103DA000A41BA410A54209D103F0FEFA00250A4E77
:103DB0000A4CA41BA410A54205D170BD56F82530AD
:103DC00098470135EEE756F8253098470135F2E778
:103DD000A4020010A4020010A4020010AC02001003
:103DE00070B50E46B1F90E1090B0002914461D466C
:103DF00007DA00232B60B3891A0610D44FF48063CE
:103E00000EE001AA02F0BAFB0028F2DB029A02F4EB
:103E10007042A2F500535A425A412A60EEE740230D
:103E20000020236010B070BD8B8973B59D070646D6
:103E30000C4607D504F14703236023610123636126
:103E400002B070BD01AB6A46FFF7CAFF0099054694
:103E50003046FEF75BFB48B9B4F90C309A05EFD455
:103E600023F0030343F00203A381E3E70D4BB362A6
:103E7000A389206043F08003A381009B20616361DC
:103E8000019B5BB1B4F90E10304602F089FB28B1FA
:103E9000A38923F0030343F00103A381A3891D43F6
:103EA000A581CDE7153A0000024B01461868FEF7E0
:103EB0002DBB00BFD4000010024B01461868FEF76E
:103EC00029BB00BFD400001010B5C9B20244904213
:103ED000034601D1002010BD1C7801308C42F6D180
:103EE000184610BD10B5431E0A44914200D110BDC2
:103EF00011F8014B03F8014FF7E7034602449342E0
:103F000000D1704703F8011BF9E738B502FB01F453
:103F10002146FEF7FBFA054618B122460021FFF7BD
:103F2000ECFF284638BD000038B50546002943D0CF
:103F300051F8043C0C1F002BB8BFE418FEF73AFC04
:103F40001E4A1368104633B9636014602846BDE802
:103F50003840FEF733BCA3420BD921686218934264
:103F600001BF1A685B685218226063600460EDE765
:103F700013465A680AB1A242FAD919685818A042E1
:103F80000BD120680144581882421960DED11068B4
:103F90005268014419605A60D8E702D90C232B609B
:103FA000D4E7206821188A4201BF116852680918B5
:103FB000216062605C60C9E738BD00BF080900107D
:103FC00070B5CD1C25F0030508350C2D38BF0C2528
:103FD000002D064601DBA94203D90C2333600020E3
:103FE00070BDFEF7E7FB234A1468214691B9224CC5
:103FF00023681BB9304601F03FF82060294630465F
:1040000001F03AF8431C26D10C2330463360FEF70A
:10401000D5FBE4E70B685B1B1AD40B2B0FD90B60A5
:10402000CC18CD503046FEF7C9FB04F10B00231D20
:1040300020F00700C31A1BD05A42E25070BD8C42D8
:104040000BBF63684B681360636018BF0C46E9E7F9
:104050000C464968CAE7C41C24F00304A04205D0FA
:10406000211A304601F008F80130CDD02560D9E79B
:1040700070BD00BF080900100C090010F8B5074614
:1040800014460E4621B91146BDE8F840FEF73EBA87
:1040900022B9FEF73FFA25462846F8BD02F0BFFDDB
:1040A00084420FD921463846FEF730FA05460028EB
:1040B000F2D031462246FFF715FF31463846FEF76B
:1040C00029FAE9E73546E7E7936810B4013B002B8E
:1040D000936008DA9469A34202DBCBB20A2B02D1C7
:1040E00010BC01F0D3BA1368581C10601970C8B224
:1040F00010BC7047F8B506460F461446D518AC42BA
:1041000001D1002007E03A4614F8011B3046FFF7C2
:10411000DBFF431CF3D1F8BD2DE9F04F9DB00C46F9
:1041200017460393064618B183690BB9FFF7B2FC33
:104130007C4B9C4257D17468A38918075DD52369CD
:10414000002B5AD00023099320238DF829303023E7
:104150004FF0010B8DF82A30B846454615F8013B63
:10416000002B55D1B8EB070A0BD053463A462146EF
:104170003046FFF7BFFF013000F0C480099B534475
:10418000099398F80030002B00F0BC8000234FF01A
:10419000FF3204930793059206938DF853301A93D8
:1041A000052229786048FFF78FFE05F10108049B7E
:1041B000002831D1D90644BF20228DF853201A0798
:1041C00044BF2B228DF853202A782A2A2CD0002194
:1041D0000A20079AA84698F800300135303B092B91
:1041E0006DD971B326E0514B9C4201D1B468A3E76D
:1041F0004F4B9C4208BFF4689EE72146304601F0D1
:10420000A9FA00289ED04FF0FF301DB0BDE8F08F16
:10421000252BA7D0A846A0E7434A4546801A0BFAAB
:1042200000F018430490BBE7039A111D1268039134
:10423000002A01DB079204E0524243F00203079296
:10424000049398F800302E2B10D198F8013008F123
:1042500001012A2B37D1039B08F102081A1D1B68A4
:104260000392002BB8BF4FF0FF330593314D03226B
:1042700098F800102846FFF727FE40B14023401B66
:1042800003FA00F0049B08F101080343049398F833
:1042900000100622284808F101078DF82810FFF7C2
:1042A00013FE002834D0254B03BB039B073323F0B8
:1042B000070308330393099B4B4409934CE700FB26
:1042C0000232012186E700230A2518460593884615
:1042D00098F800200131303A092A03D9002BC5D0C3
:1042E0000590C3E705FB00200123F0E703AB009333
:1042F0002246134B04A9304600F0C0F8B0F1FF3F4E
:104300008146D8D1A3895B063FF57DAF09987CE74C
:1043100003AB009322460A4B04A9304600F05EFB33
:10432000ECE700BFAC7A0000F07A0000CC7A000025
:104330008C7A0000F67A0000FA7A00007D440000D2
:10434000F540000013460A46014602480068FFF7A0
:10435000E3BE00BFD4000010002B2DE9F0471E463D
:10436000BBBF03F100431E4600232D2388B0149FDA
:10437000129927F02007462F1446109DDDF84CA017
:104380000B7004D0452F00D10135022300E0032338
:1043900007AA049206AA03928DE82804224633460F
:1043A00001F0E2FA472F804602D1119BDB0726D5A8
:1043B000462F08EB050911D198F80030302B0AD1AF
:1043C000002200232046314602F0A6FF18B9C5F1AD
:1043D0000105CAF80050DAF80030994400220023A1
:1043E0002046314602F098FF38B93022079B9945A4
:1043F00005D9591C07911A70F8E7CDF81C90404672
:10440000079B159AA3EB0803136008B0BDE8F0877B
:104410000346F7B5002903F8022BB6BF2D222B2245
:1044200049420929427021DD0DF1070217460A268B
:1044300091FBF6F506FB1511092D01F1300102F88B
:10444000011C02F1FF34294609DC3031023A04F83C
:10445000011CBA421C4604D3201A03B0F0BD224608
:10446000E6E712F8011B03F8011BF2E730221C46B5
:10447000114404F8022B5970EEE700002DE9F04FCB
:1044800091B00C461A9F93461E46054602F0AAF8C4
:1044900003681846099300F082FF00230E933B68DF
:1044A0000A90073323F0070303F1080294F81880F9
:1044B000D4F800A03A60D3E90023C4E91223D4F869
:1044C0004C90A76C29F000430B934FF0FF32A64BA2
:1044D00038460B9902F052FF002840F0F7814FF068
:1044E000FF32A14B38460B9902F02AFF002840F01A
:1044F000ED81002200233846494602F017FF10B133
:104500002D2384F84330994B994FB8F1470F98BF4A
:104510001F4603234FF0000923612AF004032360A0
:1045200000965B460FAA2146284600F0DFF90130CD
:1045300040F09A804FF0FF3011B0BDE8F08F626814
:104540000EA8531C0DF1340E4AF4806341D10622AB
:10455000626000212360019363680DF133020590CE
:10456000029200933A464B460691CDF81080CDF862
:104570000CE02846FFF7F0FE08F0DF03472B074664
:1045800009D10D9BD81C02DB6268934259DDA8F16A
:1045900002085FFA88F8B8F1650F0D9936D801392D
:1045A000424604F150000D91FFF732FF0E9A81460A
:1045B0008318012A236102DC2268D10701D5013367
:1045C00023619DF83330002BAAD02D2384F843308B
:1045D000A6E7B8F1670F02D0B8F1470FB9D19AB189
:1045E000002106910DF133018DE80C002360059048
:1045F0003A46CDF81080CDF80CE002914B462846A3
:10460000FFF7AAFE0746BCE70122A1E7B8F1660F53
:1046100019D1002963680CDD216113B92268D20722
:1046200002D501330B4423610D9B4FF00009A365B4
:10463000C7E713B92268D00701D50233F3E7012396
:10464000F1E74FF067080D9B0E9A934205DB226855
:104650002361D107E8D50133E5E7002BCCBF012367
:10466000C3F102031344DEE723685A0507D4236924
:104670003A4659462846B04701302AD15AE7B8F1A0
:10468000650F40F2DC80D4E912010022002302F021
:1046900043FE002839D00123364A59462846B04700
:1046A00001303FF447AF0E9B0D9A9A4202DB23681C
:1046B000D8070ED50A9B099A59462846B0470130BB
:1046C0003FF438AF002704F11A080E9B013B9F42CC
:1046D00011DB23689F0708D5002704F11908E36858
:1046E0000F9A9B1A9F42C0F2E780E0680F9B9842A6
:1046F000B8BF184620E70123424659462846B0472E
:1047000001303FF417AF0137DFE70D9B002B33DC9F
:104710000123184A59462846B04701303FF40AAFF2
:104720000D9B23B90E9B13B92368D907D1D50A9BDA
:10473000099A59462846B04701303FF4FBAE4FF086
:10474000000804F11A090D9B5B42984501DB0E9BA2
:104750008EE701234A4659462846B04701303FF4C8
:10476000E9AE08F10108EEE7FFFFEF7F017B0000F3
:10477000057B0000567B00000E9AA36D9A42A8BFED
:104780001A46002A904636DC4FF0000A04F11A035C
:1047900028EAE8780B93D4F85890A9EB08039A45D7
:1047A00031DB0E9B0D9A9A4238DB2368DA0735D449
:1047B0000E9B0D99A3EB0902A3EB01089045A8BF3E
:1047C0009046B8F1000F31DC002728EAE87804F1C0
:1047D0001A090D9A0E9B9B1AA3EB08039F42BFF682
:1047E00078AF01234A4659462846B04701303FF486
:1047F000A1AE0137EDE7134659463A462846B04781
:104800000130C1D196E601230B9A59462846B0479C
:1048100001303FF48FAE0AF1010ABCE70A9B099A06
:1048200059462846B0470130C2D183E6434607EBDC
:10483000090259462846B0470130C5D17AE60E9A9A
:10484000012A01DCDB0734D501233A4659462846C4
:10485000B04701303FF46EAE0A9B099A594628468C
:10486000B04701303FF466AED4E9120100220023C4
:1048700002F052FD50B1002704F11A080E9B013BD3
:104880009F420CDB4B4604F15002F2E60E9B7A1C71
:10489000013B59462846B0470130F3D14AE601238F
:1048A000424659462846B04701303FF443AE0137EF
:1048B000E4E701233A46ECE70123424659462846FD
:1048C000B04701303FF436AE013708E73A464B4671
:1048D0003846494602F052FD00283FF430AE014B05
:1048E000014F12E6097B00000D7B00002DE9F04727
:1048F00091461F468A680B6906469342B8BF134625
:10490000C9F8003091F843200C46DDF8208012B140
:104910000133C9F800302368990642BFD9F8003046
:104920000233C9F80030256815F0060507D104F1F7
:10493000190AE368D9F800209B1A9D422ADB94F8F3
:1049400043302268003318BF012392062FD404F1AC
:10495000430239463046C047013022D02368E5681B
:1049600003F00603042B18BF0025D9F800204FF0F0
:10497000000908BFAD1AA368226908BF25EAE575DA
:104980009342C4BF9B1AED181A344D451BD1002029
:10499000BDE8F0870123524639463046C047013012
:1049A00003D14FF0FF30BDE8F0870135C1E730207B
:1049B000E11881F843005A1C94F845102244023350
:1049C00082F84310C3E70123224639463046C047E8
:1049D0000130E6D009F10109D7E700002DE9F043E5
:1049E00017460A7E85B06E2A984606460C460C9BF2
:1049F00001F1430E00F0BC801AD8632A2ED00AD8E9
:104A0000002A00F0C880582A00F08A8004F142058C
:104A100084F842202AE0642A01D0692AF6D121686C
:104A20001A6811F0800F23D0111D1960136827E058
:104A3000732A00F0B48008D86F2A2AD0702AE5D1F2
:104A40000A6842F020020A6003E0752A21D0782A21
:104A5000DCD178226F4984F8452064E01A6801F1BE
:104A60004205111D1960136884F842300123A3E048
:104A700011F0400F02F104011960D7D0B2F90030F3
:104A8000002B03DA2D225B4284F8432062490A227C
:104A900017E02068196810F0800F03D0081D186017
:104AA0000B6806E010F0400F01F104001860F7D029
:104AB0000B886F2A14BF0A2208225749002084F865
:104AC00043006568002DA560C0F29C80206820F03E
:104AD00004002060002B3FD1002D40F095807546EA
:104AE000082A0BD12368DA0708D5236962689A423D
:104AF000DEBF302305F8013C05F1FF35AEEB0503C1
:104B00002361CDF800803B4603AA21463046FFF7DB
:104B1000EDFE013055D14FF0FF3005B0BDE8F08318
:104B200081F845203C492268186812F0800F00F196
:104B300004051D6001D0036802E05506FBD503881B
:104B4000D00744BF42F0200222601BB9226822F045
:104B5000200222601022B1E77546B3FBF2F002FB9F
:104B60001033CB5C05F8013D03460028F5D1B7E7CB
:104B700008681A6810F0800F496904D0101D186089
:104B80001368196007E010F0400F02F1040018608C
:104B90001368F6D01980002375462361B1E71A68BF
:104BA000111D19601568002162682846FFF78CF90D
:104BB00008B1401B606063682361002384F84330C0
:104BC0009FE723692A4639463046C0470130A2D0C4
:104BD00023689B0707D5002504F11909E368039AA8
:104BE0009B1A9D4205DBE068039B9842B8BF1846BC
:104BF00093E701234A4639463046C04701308AD000
:104C00000135EBE7002BA7D10B7804F1420584F8BE
:104C1000423065E7227B0000117B00002DE9F04166
:104C200015468A6880460C4632B98A69002A0CBF4C
:104C300001224FF0FF328A6000262268D1065FBF52
:104C40001A68111D19601768A369DBB1012B07D120
:104C50002B6862691B78D35CA3B9002E31D106E0C2
:104C6000022B07D0002E2CD1A369012B29D10120C2
:104C7000BDE8F08101F0A8FC2B681B78184443784C
:104C80001B07EFD423680136DA065EBF2B681B785A
:104C90003B702A686B6802F101022A60A26803F186
:104CA000FF3302F1FF326B6058BF0137A26042B19F
:104CB000002BC9DCD4F880312946404698470028AB
:104CC000C2D0236813F0100305D1E2680132E2601C
:104CD000A26902B13B70236900201E442661BDE831
:104CE000F08100002DE9F04F0C469A46744B87B0D6
:104CF0008346164693E8070003ABA76883E80700DE
:104D0000704BA169704A04F11C09032918BF1A46A7
:104D10007B1EB3F5AE7F84BF40F25D13A3602368B2
:104D200088BF6FF4AE7543F45063236098BF0027CB
:104D30004B464FF00008009288BF7F1931680193FD
:104D400003AB53F8280002220978FFF7BDF8019B56
:104D500028B3B8F1010F56D162682AB908226260FF
:104D6000226842F400722260226822F4A06222606B
:104D7000A268511EA16092B132685D1C511C316065
:104D800012781A707368013B002B736006DCD4F84C
:104D90008031314658469847002877D12B4608F194
:104DA0000108B8F1030FC9D162680AB90A2262602A
:104DB000626846496069891A019300F06DF9019BA8
:104DC0004FF000081D46A368002B39D03168606998
:104DD0000A78805C002833D0302A226821D110055F
:104DE0001FD508F1010817B10133013FA3607368B3
:104DF000013B002B73601CDD336801333360A36813
:104E0000013BA360DFE7B8F1020FB1D1226802F4E1
:104E1000C061B1F5007FC2D1102142F4807261609F
:104E2000A5E722F4106222600B78013505F8013CF9
:104E3000DDE7D4F880313146584698470028DED067
:104E40002368D9050CD54D4508D915F8011C6F1EEE
:104E5000D4F87C313246584698473D464D452CD0D3
:104E6000226812F010021ED12A7063684946584623
:104E7000009EB0472268DAF8003012F0200F08D008
:104E80001A1DCAF800201B68186009E04FF00008DE
:104E9000D6E7D207F4D51A1DCAF800201B6818807F
:104EA000E3680133E3600020A5EB0905A844256908
:104EB0004544256107B0BDE8F08F0120FAE700BF47
:104EC000347B0000F5550000D5540000507B0000F5
:104ED00038B50546084611460022054C22601A46A0
:104EE000FDF7A6FC431C02D1236803B12B6038BD3B
:104EF00018090010838903F00903092B01D1FEF77B
:104F000043BD002070470000F8B50C46054618B1B7
:104F100083690BB9FEF7BEFD3C4B9C420AD16C681D
:104F20000023B4F90C20636093B29E060CD54FF0B9
:104F3000FF30F8BD364B9C4201D1AC68F0E7354BF1
:104F40009C4208BFEC68EBE7580749D4D90605D462
:104F5000092342F040022B60A281E8E71A070BD533
:104F600021462846FEF7E6FC0028E0D1A389A06090
:104F700023F00803A381A061A38943F00403A38164
:104F800023691BB921462846FEF74EFFB4F90C7081
:104F9000BEB2B3070FD00123A3811F4B1F4918686E
:104FA00006F00906FEF7BEFE092EA78103D12146B1
:104FB0002846FEF737FC2269666A22606369216A27
:104FC0002846B047002860601DDC18BF0022A38976
:104FD00016BF626043F0200343F04003A381A6E7BD
:104FE000616B0029CCD004F14403994202D02846D9
:104FF000FDF790FA0020236C60636360002BBFD044
:10500000E36B2360F8BD0020F8BD00BFAC7A000060
:10501000CC7A00008C7A0000EC7A0000F54E00009B
:1050200038B50C46054618B183690BB9FEF732FD59
:105030000E4B9C420DD16C6821462846FFF764FF59
:1050400088B96368013B636023685A1C2260187842
:1050500038BD074B9C4201D1AC68EDE7054B9C4243
:1050600008BFEC68E8E74FF0FF3038BDAC7A0000CD
:10507000CC7A00008C7A000038B50023054C054638
:1050800008462360FDF752FB431C02D1236803B19D
:105090002B6038BD1809001070B50B78441E5E2BCC
:1050A00013BF4A1C8A1C4B78002108BF012100F164
:1050B000FF0504F8011FA542FBD113B9013A1046C0
:1050C00070BD81F001041146C4540D784A1C2D2D89
:1050D00006D05D2DF3D00DB90A46F0E72B46F2E776
:1050E0004E785D2EFAD0B342F8DC023101339E4295
:1050F000C454FBDCE9E700294FF480630CBF0222B3
:10510000002200F001B800002DE9F7431D46514B85
:1051100004461E680F46904626B1B36913B930465F
:10512000FEF7B8FC4C4B9C4252D17468B8F1020FA8
:1051300006D0B8F1010F00F28980002DC0F2868000
:1051400021463046FEF7F6FB616B41B104F14403A2
:10515000994202D03046FDF7DDF900236363002356
:10516000A3616360A3891B0603D521693046FDF75F
:10517000D1F9A389B8F1020F23F44A6323F00303A2
:10518000A3815DD001AB6A4621463046FEF728FE7A
:10519000A3891843A0812DBB009D2846FEF784FEFD
:1051A000074600284ED1DDF80090A9453CD14FF0CC
:1051B000FF30A38943F00203A3810023A36004F11D
:1051C0004703236023610123636103B0BDE8F083DB
:1051D000224B9C4201D1B468A8E7214B9C4208BFF6
:1051E000F468A3E7002FD8D0B36913B93046FEF7AF
:1051F00051FCB8F1010F08BFA389276004BF43F039
:105200000103A381A389276113F0080065611BD006
:1052100013F001004FF000031FBF6D42A360A561B2
:10522000184608BFA560D0E74846FEF73DFE074692
:105230000028BCD0A3894D4643F08003A381D3E767
:105240000020B6E7A946F5E7A060BEE74FF0FF30C3
:10525000BBE700BFD4000010AC7A0000CC7A00009D
:105260008C7A00000EB44FF4027100B59CB0ADF81A
:1052700014106FF00041049107914FF6FF711DABC0
:1052800002900690084853F8042BADF816100068F9
:1052900002A9019301F028FD0022029B1A701CB0A4
:1052A0005DF804EB03B07047D40000100EB44FF467
:1052B000017230B59CB01FAC54F8045BADF81420FB
:1052C0000290069000F06BF80B4B03900B930023B9
:1052D0000F9314934FF6FF7307900848ADF81630FC
:1052E0002A46234602A90068019401F04BFE1CB037
:1052F000BDE8304003B0704723530000D4000010D5
:1053000010B50C46B1F90E1001F090FF0028ABBFAC
:10531000636DA3891B1823F48053ACBF6365A3811D
:1053200010BD002070472DE9F0411F468B890546CE
:10533000DB050C46164605D502230022B1F90E10F6
:1053400001F05EF9A389324623F48053A381B4F9B6
:105350000E103B462846BDE8F04100F0E9B910B513
:105360000C46B1F90E1001F04BF9431CA38915BF8F
:10537000606523F4805343F48053A38118BFA38155
:1053800010BDB1F90E1000F053BA10F8012B11F84E
:10539000013B012A28BF9A42F7D0D01A7047034632
:1053A00013F8012B002AFBD1181A0138704710B5E9
:1053B0006AB10139841810F8013B11F8012F9342AA
:1053C00003D1A04201D0002BF5D1981A10BD104690
:1053D00010BD2DE9F84F8046894692461F468B4600
:1053E0005D460A9815F8014B01F0EAF8204446782A
:1053F00016F008060BD12D2C0BD101262C780BF1C1
:10540000020567B1102F14D1302C0AD011E0AB4641
:10541000E6E72B2C04BF2C780BF10205F1E7302CCA
:1054200027D12B7803F0DF03582B4BD110276C7852
:105430000235002E0CBF6FF000414FF000410022FA
:10544000B1FBF7FE104607FB1E1CA4F13003092B2D
:1054500011D81C46A7421DDD531C07D0864516D324
:1054600001D1A44513DB012200FB074015F8014BD5
:10547000EBE70A27DDE7A4F14103192B01D8373CFC
:10548000E8E7A4F16103192B04D8573CE2E74FF099
:10549000FF32EBE7531C08D122230846C8F800303E
:1054A000BAF1000F07D1BDE8F88F06B14042BAF15A
:1054B000000F0CD022B1013DCAF80050BDE8F88FB2
:1054C0004D46F9E73024002FB3D10827B1E7BDE8F6
:1054D000F88F000037B5064C064D2468246A002C6E
:1054E00008BF2C460094FFF774FF03B030BD00BF27
:1054F000D4000010380100102DE9F047804689469D
:1055000092461E460F463D46089815F8014B01F09D
:1055100057F82044437813F008030AD12D2C0AD100
:1055200001232C78BD1C5EB1102E13D1302C09D074
:1055300010E02F46E7E72B2C04BF2C78BD1CF2E7C8
:10554000302C25D12A7802F0DF02582A4AD11026C1
:105550006C7802354FF0FF31B1FBF6F1002706FB06
:1055600001FE38466FEA0E0EA4F13002092A11D866
:105570001446A6421DDD002F18DB814216D301D14F
:10558000A64513DB012700FB064015F8014BEBE7AE
:105590000A26DFE7A4F14102192A01D8373CE8E7DF
:1055A000A4F16102192A04D8573CE2E74FF0FF3713
:1055B000EBE7002F09DA22234FF0FF30C8F8003064
:1055C000BAF1000F07D1BDE8F08703B14042BAF14C
:1055D000000F0CD027B1013DCAF80050BDE8F0879C
:1055E0004D46F9E73024002EB4D10826B2E7BDE8D5
:1055F000F087000037B5064C064D2468246A002C5D
:1056000008BF2C460094FFF777FF03B030BD00BF02
:10561000D4000010380100102DE9F0410C46496B10
:1056200004F1440399421CD14FF48061FCF76EFFF2
:1056300018B94FF0FF30BDE8F0814FF48063A363E9
:1056400094F84630606380F8FF3394F8453000F2F8
:10565000FD30437094F84430037020600020BDE8B2
:10566000F081A66B77003A46FCF752FF054600280A
:10567000DFD000EB0608014632464046FEF732FC1A
:10568000C4F800806563A763E8E70000F8B50E463C
:105690001446054618B183690BB9FEF7FBF9214B97
:1056A0009C422AD16C68A369A360A3891A072ED5EE
:1056B000236963B323692068F6B2C01A6369374669
:1056C000984204DB21462846FEF734F928BBA3683C
:1056D0000130013BA36023685A1C22601E7063697D
:1056E000984204D0A389DB0719D50A2E17D1214689
:1056F0002846FEF71FF990B10FE00B4B9C4201D1F9
:10570000AC68D0E7094B9C4208BFEC68CBE7214668
:10571000284600F01FF80028CCD04FF0FF3738465D
:10572000F8BD00BFAC7A0000CC7A00008C7A000093
:1057300038B50546084611460022054C22601A4637
:10574000FCF732FF431C02D1236803B12B6038BD44
:1057500018090010324B70B51D6806460C4625B17D
:10576000AB6913B92846FEF795F92E4B9C420FD131
:105770006C68B4F90C309AB215072CD4D00611D449
:105780000922326043F04003A3814FF0FF3070BD27
:10579000254B9C4201D1AC68EBE7244B9C4208BFEF
:1057A000EC68E6E7510712D5616B41B104F144039F
:1057B000994202D03046FCF7ADFE00236363A38913
:1057C00023F02403A3810023636023692360A3895A
:1057D00043F00803A38123694BB9A38903F4207321
:1057E000B3F5007F03D021463046FEF71DFBA289AA
:1057F00012F001030CD00023A36063695B42A36134
:10580000236953B9B4F90C3013F08000BAD170BDDC
:10581000920758BF6369A360F2E70020F7E700BF73
:10582000D4000010AC7A0000CC7A00008C7A000022
:1058300038B50023054C054608462360FCF794FE66
:10584000431C02D1236803B12B6038BD1809001036
:105850002DE9F74F03690C6980469C4200F3828072
:10586000013C01F1140700F1140657F8245056F8D2
:1058700024000135B0FBF5F54FEA840E06EB0E036C
:1058800007EB0E0901938DB34FF0000A3846B4467A
:10589000D34650F8042B93B205FB03A3120C4FEA36
:1058A000134A05FB02A29BB2ABEB0303BCF800B0AA
:1058B0004FEA124A5B441FFA82FBDCF80020814564
:1058C000CBEB124202EB23429BB243EA02434FEA84
:1058D000224B4CF8043BDCD256F80E3033B9019B16
:1058E000043B9E421A4631D3C8F81040404601F0AE
:1058F000CEF8002826DB30464FF0000E013557F871
:10590000041BD0F800C08BB2AEEB03031FFA8CF27D
:1059100013440A0CC2EB1C4202EB23429BB243EA43
:105920000243B9454FEA224E40F8043BE7D256F80D
:10593000242006EB84032AB9043B9E421A460BD36B
:10594000C8F81040284603B0BDE8F08F1268043B49
:10595000002AC9D1013CC4E71268043B002AEFD1F8
:10596000013CEAE70020EEE72DE9F04F466A95B0EA
:105970000446219DCDE902233EB91020FEF794FA9A
:105980006062466086600660C660636A196851B1ED
:105990005A68012393404A608B60204600F0A2FEC3
:1059A0000022636A1A60039B002BB7BF0123002308
:1059B0002B60039BAEBF2B6023F000430393DDF805
:1059C0000C90AB4B33EA09031BD142F20F73209AC0
:1059D0001360029B23B9C9F31300002800F08385EC
:1059E000229B53B9A34B21E0A34B06930833229A81
:1059F0001360069815B0BDE8F08F9E4B06930333F5
:105A0000F5E7DDE90267002200233046394601F060
:105A100083FC804660B10123209A1360229B002BF7
:105A200000F05E85954B229A1360013B0693E0E7F8
:105A300012AB019313AB009332463B46204601F074
:105A40009FF8C9F30A558246002D7DD03046C7F332
:105A5000130343F07F5141F44011A5F2FF35CDF817
:105A600040800022864BFCF7BBFF7BA3D3E90023D9
:105A7000FDF76AF97AA3D3E90023FCF7B3FF0646E2
:105A800028460F46FDF7FAF877A3D3E90023FDF780
:105A90005BF902460B4630463946FCF7A3FF064643
:105AA0000F46FDF763FB002283460023304639464C
:105AB00001F03CFC58B15846FDF7E0F802460B46B1
:105AC0003046394601F028FC08B90BF1FF3BBBF129
:105AD000160F58D8DDE902236A4901EBCB01D1E961
