:1000000000800010552A0000852A0000872A000081
:10001000892A00008B2A00008D2A000000000000C1
:100020000000000000000000000000008F2A000017
:10003000912A000000000000932A0000952A000089
:10004000972A0000972A0000972A0000972A0000AC
:10005000972A0000972A0000972A0000972A00009C
:10006000972A0000972A0000972A0000972A00008C
:10007000972A0000972A0000972A0000972A00007C
:10008000972A0000972A0000972A0000972A00006C
:10009000972A0000972A0000972A0000972A00005C
:1000A000972A0000972A0000972A0000972A00004C
:1000B000972A0000972A0000972A0000972A00003C
:1000C000972A0000972A0000972A000010B5054CD7
:1000D000237833B9044B13B10448AFF300800123F4
:1000E000237010BDB00200100000000098750000E1
:1000F0000C4B43B10C4810B50C49AFF300800C48D1
:10010000036823B910BD0A48036833B97047094B27
:10011000002BF7D0BDE810401847064B002BF5D058
:10012000184700BF0000000098750000B4020010DE
:10013000B0020010000000000368DB691847036884
:100140005B69184703689B6A1847704770474FF010
:10015000FF30704738B504460D46036801219B6C9B
:100160009847236829115B6D20469847012001F0CC
:1001700087F9236800219B6C20469847012001F0F5
:100180007FF9236820469B6C012198472368294604
:100190005B6D20469847012001F072F923682046E4
:1001A0009B6C00219847BDE83840012001F068B9F8
:1001B00007B590F8593081B143F0100380F85930F9
:1001C000002390F85810009300F159020123406D6C
:1001D00001F08EFF03B05DF804FB23F01003EDE7A0
:1001E00007B590F8593081B163F07F0380F859303A
:1001F000002390F85810009300F159020123406D3C
:1002000001F076FF03B05DF804FB03F07F03EDE738
:1002100070B504460D461646002102F009F8094B58
:1002200065612360C5F30723A662A36106F47046E7
:10023000C5F3074305F07065E3612562E662204679
:1002400070BD00BF286E000038B504460D46036837
:1002500001219B6C9847236829465B6D204698478F
:10026000012001F00DF9236820469B6C002198477E
:10027000BDE83840012001F003B938B504460D4609
:1002800003680021DB6C9847012001F0F9F823682E
:1002900020469B6D29469847BDE83840282001F04C
:1002A000EFB838B504460D4603680121DB6C98476A
:1002B000012001F0E5F8236820469B6D2946984708
:1002C000BDE83840282001F0DBB8000010B4064B30
:1002D000846A41F008019C4208BF02F00202114307
:1002E00010BCFFF7CABF00BF15000043036A70B51A
:1002F000B3F1407F06460C46154635D00CDCB3F111
:10030000807F26D0B3F1007F27D063B9032A20D89D
:10031000DFE802F02128191CB3F1A06F3BD004DC08
:10032000B3F1806F2ED0002415E0B3F1C06F5ED022
:10033000B3F1E06FF7D1012D67D0022D27D0002D4A
:1003400018BF002407E083691C4404E0836940333C
:10035000FAE705B10834204670BD83695B10994205
:10036000F9DBCC1A4034F6E7032A0BD801A353F883
:1003700022F000BF570300008F0300006503000058
:1003800093030000012DEDD0022D02D01DB92034C1
:10039000E1E76034DFE7012D96F8303013DC7BB104
:1003A000002296F824103046FFF790FF002396F8BD
:1003B0003C2086F8303096F824103046FFF786FF50
:1003C00004EB8514C7E7012B0FD0002296F8241008
:1003D0003046FFF77BFF012396F83C2086F830304B
:1003E00096F824103046FFF771FF023DE8E7012A36
:1003F000B8D0022A02D0002A9DD1ACE783695A10F6
:100400009142A4BF40338C1A9EE71034A3E700BF8B
:100410000A2938B504460D4615D100234363836B82
:10042000C26901339342836301DB0023A363A26BA0
:10043000616B2046FFF75AFF40F080012046FFF72E
:100440001CFF284638BDFFF72CFF636BA269013300
:1004500093426363EBDB00236363A36BE2690133C5
:100460009A42A363E1DDE2E7002910B5044611DA00
:1004700000236363002A14DA0023A363616BA26B79
:100480002046FFF733FF40F080012046BDE81040D2
:10049000FFF7F3BE8369994201DB013BE9E7416362
:1004A000E8E7E3699A4201DB013BE6E7A263E5E79F
:1004B000FFF7DABF38B54269174B04469A4211D1AB
:1004C0000125002290F8241080F83050FFF7FEFE3E
:1004D00029462046FFF7D1FE142000F0DCFF002360
:1004E00084F8303001212046FFF7C7FE142000F0C9
:1004F000D2FF6269084B9A4206D194F83C2094F8E6
:1005000024102046FFF7E2FE00222046BDE83840D6
:100510001146FFF7A9BF00BF0028040503460A469D
:1005200083F83C1090F82410FFF7D0BE38B542692C
:10053000164B04469A4280F8241023D190F830508C
:100540007DB990F83C20FFF7C1FE01232A4684F8CC
:10055000303094F824102046FFF7B8FE84F830506D
:1005600038BD002280F83020FFF7B0FE012320467E
:1005700094F83C2094F8241084F83030BDE83840DA
:10058000FFF7A4BE90F83C20F8E700BF0028040560
:1005900070B50D4603680021DB6C04469847002DBA
:1005A00043D103212046FFF74FFE0F2000F073FFD9
:1005B00003212046FFF748FE0F2000F06CFF0321C7
:1005C0002046FFF741FE0F2000F065FF2046022184
:1005D000FFF73AFE282000F053FFA26AB14B9A427F
:1005E00000F0AF8279D8B04B9A4200F042843FD8F5
:1005F000AE4B9A4200F010841FD8AD4B9A4200F0E7
:1006000032836369AB4A934200F0A28400F297847C
:10061000B3F5883F00F0A58400F28A84B3F5843FE7
:1006200000F09F84082300F09DBC20463021FFF796
:1006300024FE012000F02FFFCFE79F4B9A42636911
:1006400000F0C1809D498A42DBD1B3F5053F00F03F
:10065000058100F2FC80B3F58C3F00F0148100F2BC
:10066000F080B3F5843F00F00E81B3F5883FB7E02A
:10067000934B9A42636900F0438213D891498A42AE
:10068000BFD1914A93420BD000F2B481B3F5883FB9
:1006900006D0B3F58C3F03D0B3F5843F40F0C6815C
:1006A0002564B4E189498A4200F0A98201F57F41BD
:1006B000FF318A42A5D17F4A934200F07C8200F24A
:1006C0007282B3F58C3F00F07882B3F5063F00F0FC
:1006D00094827F4800F016FF76E27E4B9A4249D022
:1006E0003CD87D4B9A4205D01AD8A3F50053023B63
:1006F0009A4286D10A2000F0CEFE6369B3F58C3FA2
:1007000000F0AF8200F29A82B3F5843F00F09F823E
:10071000B3F5883F00F09B826D4800F0F3FE98E24D
:100720006E4B9A42636900F0CF826D498A427FF432
:1007300068AF604A934200F0A18100F28081B3F576
:10074000883F00F09B8100F27481B3F5843F00F094
:100750009581082323640A2363648DE1614B9A42E7
:1007600063691AD8604EB24280F00B815F4B9A42A7
:100770007FF447AF63694F4A934200F0C88000F2AC
:10078000BD80B3F5883F00F0F98000F28480B3F5B6
:10079000843F00F0F3800823F1E055498A427FF45A
:1007A00030AF444A934200F0A48300F29983B3F53A
:1007B000883F00F0BA8300F28D83B3F5843F00F0E8
:1007C000B4830823B2E3B3F5023F47D024D8B3F58E
:1007D000883F58D01AD8B3F5843F54D0B3F5863F3C
:1007E00051D03B4800F08EFE616C204641F0200164
:1007F000FFF743FDA16C204641F00801FFF73DFDE6
:1008000010212046FFF739FD80210BE1B3F58A3F27
:1008100039D0B3F58C3FE3E7B3F5063F1ED006D8D9
:10082000B3F5043F1AD0B3F5053FDAD116E0314AEB
:1008300093421FD002F5006293421BD0B3F5083FEC
:10084000F3E7B3F5023F09D0B3F5043FEDE7B3F5A5
:100850000A3F03D008D8B3F5063FEFD145F00A03AD
:10086000236445F00C0513E0174A93420BD0224A4B
:100870009342B6D145F0020345F004052364656454
:100880000123A364B0E745F00203236445F00405A7
:1008900065640023F5E7B3F58C3F6FD00A4A9342B5
:1008A00077E700BF06000381190009210D0002113E
:1008B00017000809000C03030300082104000821A5
:1008C00005000081150000430008020108000081B6
:1008D0007C6D0000110002C10C20038116000AA1EA
:1008E0000E000BA1130003C1120003C1100003C1CD
:1008F0001A0003C5000C040300180403C74A9342FE
:1009000005D036D8A2F5406293427FF444AFC44884
:1009100000F0F8FD216C204641F02101FFF7ADFC0D
:100920001C212046FFF7A9FC2823782123652046B7
:10093000FFF7A3FCA26ABB4B9A420CBF0C2308230F
:10094000E364216DE36CC1F3011143F050031943DB
:100950002046FFF792FC0A2000F09DFD20466C2106
:10096000FFF78BFC0A2000F096FD216C41F020017E
:10097000A6E1AD4A9342CAD0AC4AC5E7002323643E
:10098000C8E7AB4A934209D00CD8B3F5883F05D0ED
:10099000B3F58C3F02D0B3F5843F29D10023236403
:1009A000042511E09D4A934206D0A04A934208D004
:1009B00002F1FC2293421BD1994800F0A3FD0025CF
:1009C00002E0082305252364216C204641F0210123
:1009D000FFF753FC45F010012046FFF74EFC28239B
:1009E000782123652046FFF748FCA36AB342A4E7B9
:1009F0000823D4E7894A934206D08C4A934203D015
:100A000002F1FC22934211D1854800F07BFD216C5C
:100A1000204641F02401FFF730FC04212046FFF777
:100A20002CFC40212046FFF728FC9EE745F00805F6
:100A300036E6B3F58C3F21D07D4A934287E67D4A66
:100A4000934209D00ED8A2F58232934216D002F515
:100A50007A4293427FF47DAE082323640A23012562
:100A600063640FE06D4A934203D0704A93427FF46F
:100A700070AE6B4800F046FD002503E00025022320
:100A800025646364616C204641F02001FFF7F5FBAB
:100A900006212046FFF7F1FB052000F0FCFC45F0A5
:100AA00008012046FFF7E9FB10212046FFF7E5FB90
:100AB000216C204641F02101FFF7DFFB282378213C
:100AC00023652046FFF7D9FB0C23216DE364C1F3B6
:100AD000011141F05C012046FFF7CFFB0A2000F036
:100AE000DAFC20466E21FFF7C8FB0A2000F0D3FC99
:100AF000616C204641F02001FFF7BFFB102191E718
:100B0000B3F58C3F06D0B3F5033F18D0444800F04E
:100B1000F9FC01E000232364216C204641F021010F
:100B2000FFF7ABFB0A2000F0B6FC05212046FFF7DB
:100B3000A4FB02212046FFF7A0FB082172E7042353
:100B4000E9E76369B3F58C3F06D0B3F5033F28D0DE
:100B5000334800F0D7FC01E000232364216C2046D9
:100B600041F02101FFF789FB04212046FFF785FBB7
:100B700020461021FFF781FB20464221FFF77DFB35
:100B8000202320462365A021FFF777FB94F850101F
:100B9000204641F0C001FFF770FB0A2000F07BFC0B
:100BA000C7E70423D9E7244A934204D002F57F0221
:100BB00093427FF48EAD2E2100E022212046FFF7E4
:100BC0005CFB0A2000F067FC02212046FFF755FB82
:100BD0000A2000F060FC20460621FFF74EFB20466D
:100BE0001421FFF74AFB20460221FFF797FC20461D
:100BF000BDE870400421FFF799BC2A21DEE70E4AC8
:100C0000934208D002F57F02934204D002F17F4262
:100C100093427FF45EAD2C21D0E700BF001804039F
:100C20007C6D0000100003C1000C030400100307DA
:100C30000008020100140403000C0403B3F5023F92
:100C400003D0B3F5043F7FF467AD042300E0022333
:100C50002364216C204641F02101FFF70EFB0721A0
:100C600083E70023F4E717212046FFF706FB0A205D
:100C700000F011FC6369BC4A93423FF42AAD0ED8E0
:100C8000B3F5883F1BD004D8B3F5843F17D0282193
:100C900016E0B3F58C3F12D0B44A9342F6E7B44A5B
:100CA00093423FF416AD04D8A2F540629342EED1D0
:100CB0000FE5B04A93423FF40CADAF4AF6E720216E
:100CC0002046FFF7DAFA7FE7B3F5053F11D016D8D3
:100CD000B3F5883F2AD006D8B3F5843F26D0A7487D
:100CE00000F010FC09E0B3F5023F02D0B3F5043F79
:100CF000F5D1082323640A23636400251AE09A4A85
:100D0000934213D005D8994A93420FD09C4A9342FC
:100D1000EEE79C4A934209D002F582329342DED13B
:100D2000082323640A230125636403E000250223CA
:100D30002564636420460021FFF79FFA616C20461A
:100D400041F02001FFF799FA20467121FFF795FA4B
:100D500020460021FFF7A5FA20467921FFF78DFAFA
:100D60002046D521FFF789FA20467021FFF785FA42
:100D700020467821FFF781FA20460521FFF77DFA0A
:100D800045F008012046FFF778FA20467221FFF768
:100D900074FA20460121FFF784FA20467921FFF7F3
:100DA0006CFA2046DA21FFF768FA20461021FFF797
:100DB00064FA2046DC21FFF760FA20468021FFF725
:100DC0005CFA3F23204623658121FFF756FA216D07
:100DD0002046890041F00301FFF74FFA2046D92150
:100DE000FFF74BFA2046F121FFF747FA2046DB21B7
:100DF000FFF743FA30212046FFF73FFA0A2000F0C0
:100E00004AFB20467821FFF738FA216C204641F052
:100E10002101FFF732FA6BE66369B3F5023F26D092
:100E200014D8B3F5883F03D00AD8B3F5843F14D162
:100E3000002323643F23216C236561F003013FE716
:100E4000B3F58A3FF4D0B3F58C3FF0E7B3F5053F37
:100E50000DD006D8B3F5043F09D0484800F052FB46
:100E6000E8E7B3F5063F02D0404A9342DFE70823A4
:100E7000DFE76369B3F58C3F07D011D8B3F5863F40
:100E800003D007D8B3F5843F12D10223236404238F
:100E90006364FEE4B3F5883FF7D0B3F58A3FF3E728
:100EA000394A934211D007D8A2F5006293420CD080
:100EB0000A2323640C23EBE72D4A93423FF491ACC1
:100EC0002D4A93423FF48DACF2E7022323640423BE
:100ED0006364D5E4B3F58C3F27D0244A93426EE493
:100EE000234A934205D01BD8A2F5406293427FF477
:100EF00068AC224800F006FB216C204641F021013D
:100F0000FFF7BBF92823782123652046FFF7B5F9C1
:100F10000C23216DE364C1F3011141F05C0117E57D
:100F2000144A9342E5D0144AE0E700232364E3E740
:100F3000B3F58C3F15D00D4A9342FFF771BB134AAE
:100F4000934205D008D8A2F57C4293427FF46AAB65
:100F50000A4800F0D7FA08E5054A9342F8D0054A56
:100F6000F3E70023236400E5000C030300080201FB
:100F700000180403000C0304001003077C6D00003C
:100F8000001001020010030300140403000C04030A
:100F900038B5044664200D4600F07DFA62690B4BBB
:100FA0009A4206D10123294684F830302046FFF7C3
:100FB000EFFA0023204684F830302946FFF7E8FA9C
:100FC0002046BDE83840FFF775BA00BF0028040589
:100FD00010B50446024B036001F048F9204610BDED
:100FE000286E000010B50446024B0360FFF7F0FFC7
:100FF000204610BDC46D000010B50446FFF7F2FF97
:10100000204601F058FC204610BD10B50446FFF7FD
:10101000DFFF204601F04FFC204610BD73B515469A
:1010200004460E46069A1946FFF7F2F80E4B25F0D5
:101030000105236084F85850304666650B4901F07D
:101040002BF80025224602F8595F94F85810012326
:101050000095606D01F04CF820462946FFF798FF97
:10106000204602B070BD00BFC46D0000A086010024
:1010700090F8302090F8593042B921B143F0200364
:1010800080F85930704723F02003F9E711B143F09D
:101090004003F5E723F04003F2E713B5FFF7E8FF5D
:1010A000002390F85810009300F159020123406D7D
:1010B00001F01EF802B010BD90F85930CA0703F0D5
:1010C000F00348BF43F0010380F859308B0742BF5B
:1010D00090F8593043F0020380F859304A0742BF74
:1010E00090F8593043F0040380F859300B0742BFA1
:1010F00090F8593043F0080380F85930704713B521
:10110000FFF7DAFF002390F85810009300F159021E
:101110000123406D00F0ECFF02B010BD30B50D466C
:1011200085B00121FFF7A4FF2911FFF7C5FF90F853
:10113000593000218DF80830FFF79AFF90F85930A8
:1011400001218DF80930FFF793FF2946FFF7B4FF1F
:1011500090F8593000218DF80A30FFF789FF90F898
:10116000593090F858108DF80B300023009302AAE4
:101170000423406D00F0BCFF05B030BD7047000097
:1011800070B50546094B064645F80C3B5DB100F1CC
:101190002C04AC4207D0103CE368002BF9D09B68CC
:1011A00020469847F5E7304670BD00BFD07100007B
:1011B00010B50446054B0360203340F8303F01F082
:1011C00055F82046FFF7DCFF204610BD8C7000006C
:1011D000A0F13000ECE700BF10B50446FFF7D0FFE8
:1011E000204601F068FB204610BD10B5044601F012
:1011F00062FB204610BD000008B50D4C0D4E0E4D93
:101200002046FFF757F90321204601F041F801225B
:1012100020460021FFF74CF92B21204601F038F839
:10122000642000F038F93146284601F045F8E7E738
:10123000D8020010846E00006403001010B504464C
:10124000FFF7B6FF204601F036FB204610BDA0F1A7
:101250003000F3E773B5164D164C174A1749284668
:1012600000F004FF22461649284601F0F9FA4FF033
:101270008073144E009329464FF40433124D4E22CE
:101280003046FFF7CBFE22461049304601F0E8FA1F
:101290004FF4E1330E4A0F49284600F0C3FE2246C0
:1012A00028460D4902B0BDE8704001F0D9BA00BF30
:1012B000CC020010C800001001C0092000C00920A5
:1012C0007D110000D802001034030010E50F00006B
:1012D00003C0092002C00920B11100000748084AD4
:1012E00008B5121A002102F05EF901F073FA02F05B
:1012F000A9F801F076FA01F0B5FA00BFB0020010CB
:10130000B4050010022801DD01F016BA0120704773
:1013100008B5012001F0A6FA08B5FFF7F9FF70B58E
:101320000E460446154600F039F9013609D020462C
:10133000002100F04DF929462046BDE8704000F03C
:1013400044B970BD38B504460D4643685AB1C26809
:1013500020461360012100F03BF929462046BDE8F4
:10136000384000F032B90269F2E70322FFF7D7BF35
:1013700070B50E460446154600F010F9013606D049
:101380002A462046BDE870400221FFF7DBBF70BD52
:101390000022FFF7EDBF0000014800F003B800BFD6
:1013A0008C6E0000036870B5DB680446984763687C
:1013B0005A6823681AB99B68BDE8704018475B6893
:1013C000156898476368281A00285A6807DC9168EE
:1013D00059601B68002BEAD050689847E7E72368FC
:1013E00010681B69BDE870401847000010B504463E
:1013F00001300DD110BD9C4209D12046896800F012
:1014000042FD2046BDE81040022100F055BD0C31E0
:101410000B685A1CEFD10248BDE8104000F072B8CA
:10142000D96E0000884208B508D0431C06D00131AF
:1014300006D0044800F066F84FF0FF31084608BDBA
:101440000146FBE7A86E00000B685A1C01D1184644
:101450007047834201D1486870470C31F4E70000BF
:10146000421C10B5044607D0FFF7EEFF431C0446AC
:1014700002D1024800F046F8204610BDB96E0000C7
:1014800038B5044600F002FC054600F0FFFB401BA7
:10149000A042FAD338BD4FF47A735843FFF7F0BF38
:1014A00000F028B8EFF31080C04300F0010070474F
:1014B00008B5FFF7F7FF72B6064B1A6822B980F03D
:1014C0000100054AC0B210701A681A6801321A6029
:1014D00008BD00BF880300108403001030B585B03C
:1014E0006D46182420462946ABBE0446204605B06A
:1014F00030BD0000024B186800F00100704700BFCB
:10150000F0ED00E00FB4012008B501F0ABF90000E8
:1015100000B599B0FFF7CCFF17496846FFF738FFD1
:10152000164906A8FFF734FF15490CA8FFF730FF4E
:10153000144912A8FFF72CFF019A039B96201A600A
:10154000079A0A9B1A600D9A109B1A60139A159BB2
:101550001A60FFF7A0FF019A049B96201A60079A71
:10156000099B1A600D9A0F9B1A60139A169B1A60BA
:10157000FFF791FFE0E700BF32C0092034C0092027
:1015800035C0092037C0092010B50021044600F0FD
:101590007AFC012004F01F04A04010BD38B50546B8
:1015A0004B1C0C4629600FD00846FFF7EDFF24F0D6
:1015B0001F0404F11803EB6004F11C032B6104F118
:1015C000140368606B61AC6038BD006800F074BCE7
:1015D00011B1012907D0704782684168136823EA76
:1015E0000103136070478268416813680B43F8E792
:1015F000012810B408D0022808D010BC70475068E9
:1016000020F00100506010E003460EE038230F4840
:1016100003FB01035868013006D018699C68046018
:1016200093F83630002BEAD0002338225143074884
:10163000421840580028E0D01BB992F83620002A02
:10164000DBD0034A1946126810BC104794030010FF
:101650008C030010034A00219068C0F34200FFF79A
:10166000C7BF00BF00C00040034A01219068C0F31B
:101670004200FFF7BDBF00BF00000140034A022146
:101680009068C0F34200FFF7B3BF00BF008009407D
:10169000034A03219068C0F34200FFF7A9BF00BFCF
:1016A00000C0094070B50B46066829498E4222D019
:1016B00006DCA1F580418E420CD000210C460BE0E7
:1016C00024498E421AD001F580418E42F5D122493B
:1016D000082401E0052421499AB10125726805FA20
:1016E00003F313437360204600F014FC1C4B05FA0F
:1016F00004F41C6070BD1B490624EDE71A49072459
:10170000EAE7012B0AD042683820184900FB021290
:1017100092F8361092F83520D14217D1012202FA00
:1017200003F0B3FA83F371685B0921EA0001716089
:10173000716802FA03F30B4208D1094B02FA04F470
:10174000C3F88040BFF34F8FBFF36F8F70BD00BFF2
:10175000000001400080094091160000551600006D
:1017600000E100E0691600007D16000094030010FF
:101770002DE9F04F644B046887B09C4200F08D80E7
:101780006ADCA3F580439C4279D0604B0801D3F812
:1017900000C0BCFBF0F293B200FB12C2002A00F0C2
:1017A000AA800125E6469946AB464FF0000A019112
:1017B000039100264FEA4E030493DDF804804FEABC
:1017C0008E03EFB20593F3B20093049B002BABBFE3
:1017D000059BB3FBF8F3B3FBF8F31B09A8BF5B0948
:1017E0000133C3F34F03002B00F0888016B1012BA7
:1017F00008BF0223A8195843C000BEFBF0F0013017
:10180000C1EB50000028B8BF40420290029A0398F2
:10181000824262DA91425AD10F2D07D1BB469946D6
:10182000DDF800A05F464B46CDF800A0217B41F0DB
:1018300080012173C3F30721DBB221712370009B68
:1018400043EA0712D2B284F82820237B03F07F03F7
:10185000237307B0BDE8F08F2D4B9C4229D003F5D0
:1018600080439C4291D12B4BD3F8AC2122F44022EF
:10187000C3F8AC21D3F8AC2142F4802224E0254BFC
:10188000D3F8A82122F0C002C3F8A821D3F8A821D8
:1018900042F04002C3F8A82177E71E4BD3F8A821F5
:1018A00022F44072C3F8A821D3F8A82142F4807230
:1018B000F0E7184BD3F8AC2122F44032C3F8AC2146
:1018C000D3F8AC2142F48032C3F8AC215DE7BB46CB
:1018D0009946029ADDF800A003920136F3B2BB42AA
:1018E0008844FFF470AF0F2D9CD0019B01350B4451
:1018F000E64401935DE70127009297E7002E0CBFB5
:101900000123022376E700BF00000140CC00001055
:101910000080094000C00F40034B19603823416824
:101920004B430249CA5070478C03001094030010C7
:1019300010B50268137DDB07FCD5382443680848DE
:10194000117804FB03035868C9B2013006D0586906
:101950009B680360536843F001035360084610BD61
:10196000940300103821114A436801FB0323DA690C
:10197000013209D01A6B1B6A12681A4214D103682B
:10198000187DC0F3801070470268127D920604D55E
:101990000022012083F83420704793F834000F2888
:1019A0008CBF002001207047002070479403001076
:1019B00038B504460D462046FFF7D4FF0028FAD07C
:1019C00038212368EDB21D706368044A01FB0323CC
:1019D00093F83420013283F8342038BD940300108A
:1019E0002DE9F84F9A463C4C03680546A34218BFC0
:1019F00000248946904647681CB1237C03F03F03CE
:101A0000237438234FF0FF32344E284603FB07631C
:101A1000DA615A60002283F835201146FFF742FE52
:101A2000B9F1000F55D02E494046FFF70DFD2D4965
:101A300083465046FFF708FDA9F10203012B1BD88E
:101A4000BAF1FF3F0BD0244B98420DD164B1237CF7
:101A5000244943F0800323745046FFF7C7FCB9F1D3
:101A6000030F0CD0BDE8F88F382000FB076051460B
:101A70001C30FFF77AFCF2E7B9F1010F29D1B8F178
:101A8000FF3F01D1BDE8F88F07222B681A72124B75
:101A90009B450AD14CB1237C404643F0400323745C
:101AA0000F49BDE8F84FFFF7A1BC382404FB0760DD
:101AB000414600220430FFF75BFC01226B68284698
:101AC00004FB036686F835200021BDE8F84FFFF7D8
:101AD000E9BDBDE8F88F00BF00000140940300108D
:101AE000106F0000EC6E00002DE9F0410F46054636
:101AF000464938461646FFF7B3FC4549044630468A
:101B0000FFF7AEFC01462046FFF78CFC414B044634
:101B1000984228605DD047D8A3F58043984250D0C2
:101B200001234FF0000823724FF416512846C4F8E1
:101B30000480FFF71DFE03222B6834491A733846D0
:101B4000FFF754FC32493046FFF750FC7A1C03D0B3
:101B50004146384600F0B0F9731C03D000213046EE
:101B600000F0AAF92B4B9C424BD03ED8A3F5804302
:101B70009C4243D038216A68274B284601FB023239
:101B80004FF0FF3300215360D3611A46FFF728FF5F
:101B9000224B9C4206D10122214B69681A602868B9
:101BA000204B03C3BDE8F0811F4B984217D003F5CB
:101BB00080439842B4D11D4AD2F8C43043F0007338
:101BC00004E01A4AD2F8C43043F00803C2F8C43023
:101BD000A6E7164AD2F8C43043F01003F6E7134ADA
:101BE000D2F8C43043F08073F0E70F4B9C420AD028
:101BF00003F580439C42BDD1032300E000236B60CA
:101C0000B8E70123FBE70223F9E700BFA06F00005C
:101C1000346F0000000001409403001000C0004039
:101C200090030010A80500100080094000C00F407C
:101C300008B5104B1868E0B901210F4A1960D2F8B5
:101C4000C43043F40003C2F8C430A2F5D0221067B8
:101C500002200A4B1B6850600948B3FBF0F3013BBC
:101C6000D36004205160074900F054F91022064B5C
:101C70001A6008BD7404001000C00F40CC000010B2
:101C800000093D009913000000E100E008B5044B95
:101C90001B680BB9FFF7CCFF024B986808BD00BF6B
:101CA0007404001000400940034B98615A6942F0E7
:101CB00001025A61704700BF00400940024A53695F
:101CC00023F0010353617047004009400122014B9A
:101CD0001A607047004009400168054B0A68120706
:101CE00001D500207047013BF8D14FF0FF3070471D
:101CF000A18601003421036810B51A6899611207A2
:101D000048BF08224FF024010446196048BF9A6179
:101D1000FFF7E2FF2022236858689A6110BD000097
:101D2000102203681A6008229A61054A186810F0A8
:101D3000100000D17047013AF8D10120704700BF70
:101D4000A1860100044B49001B689B08B3FBF1F11D
:101D50000368596119617047CC000010F8B50E4650
:101D60000446204930461546FFF77AFB1E490746D0
:101D70002846FFF775FB01463846FFF753FB1B4B20
:101D80002060984221D003F58823984223D0A3F500
:101D90000423984206D1164AD2F8C43043F0800397
:101DA000C2F8C43020461349FFF7CCFF3C22236819
:101DB00030469A6140220B491A60FFF717FB28460C
:101DC000BDE8F8400849FFF711BB094AD2F8C43012
:101DD00043F40023E4E7064AD2F8C43043F08063BA
:101DE000DEE700BF487000000C70000000C0054036
:101DF00000C00F40A08601002DE9F843089F04466B
:101E00000E4691461D46FFF775FF102809D0082899
:101E100007D02046FFF784FF6FF001052846BDE894
:101E2000F8834FF00808236806F0FE069E602046FF
:101E3000C3F81880FFF750FF23685B68182B08D1A0
:101E40000026AE420BDB002FE8D02046FFF768FFEC
:101E5000E4E72046FFF764FF4FF0FF35DEE7236835
:101E600019F8062020469A60C3F81880FFF734FF5F
:101E700023685B68282B04D02046FFF751FF3546C6
:101E8000CCE70136DDE710B5032400F16040A0F592
:101E90001C2043000009800000F1804000F5303034
:101EA000026803F01E039C4022EA040202600268FA
:101EB00099401143016010BD00F16040A0F51C2065
:101EC00043099B0003F1804303F5303330B500F044
:101ED0001F029C6EC1F3800505FA02F224EA020497
:101EE0009C669C6E22439A6695B9032443000009C0
:101EF000800000F1804000F53030026C03F01E03DA
:101F00009C4022EA04020264026C9940114301647D
:101F100030BD000030B50C4CA268A4681346B4F183
:101F2000805F0CD2131F094C094A53F8045F42F832
:101F3000045FA242F9D14FF08053034A93601030FE
:101F400043F8201030BD00BF00ED00E0C0000010DD
:101F5000FCFFFF0F2022264BC3F8A021D3F8A021BD
:101F6000920603D5D3F8A0215006FBD50222C3F870
:101F7000042100220120C3F8A821C3F8AC210B22C0
:101F8000C3F80C01AA21C3F884205522C3F88C1091
:101F9000C3F88C20C3F88000C3F88C10C3F88C20E1
:101FA000134B1A46D3F888104901FBD50321C3F817
:101FB0008010AA21C3F88C105521C3F88C10D2F8D8
:101FC000883013F0407FFAD00523C2F80831094B5E
:101FD000C2F8C4300023C2F8C831136823F4704338
:101FE00023F03A0343F4405343F03A03136070473D
:101FF00000C00F40DE8728047047A0F13000FFF7D3
:10200000FBBFA0F13000FFF7F7BF00F00DBAA0F161
:102010003000FFF7FABF00F00ABAA0F13000FFF776
:10202000FABF000010B5044600F008FA002104F1E0
:10203000300000F0FDF8044B204603F1080228337D
:102040002260236310BD00BF84700000C36810B518
:1020500004460BB19B689847204610BD024B1A6896
:102060000AB91A1D1A60704778040010074B10B5A2
:102070000360002304464360054B04304360FFF7D0
:102080006DFE044B20461C6010BD00BFFC700000BC
:10209000A08601008004001070B504460D46036858
:1020A0001B689847201DA5602946FFF74BFE044B8F
:1020B00020461C602368BDE870405B68184700BF7D
:1020C0008004001070B504460368084D1B689847EB
:1020D0002B689C4204D0A168201DFFF733FE2C60C2
:1020E00023682046BDE870405B68184780040010F4
:1020F000F7B504460E4617461D4603681B68984709
:102100002046FFF7DFFF9DF82030314683F00103C2
:1021100000933A462B46201DFFF76EFE06462368C5
:1021200020465B689847A81B18BF012003B0F0BD8C
:10213000002310B5036043600A7804462F2A0DD1AE
:102140004A785AB1481C1946206023681A782F2A09
:1021500006D10133236000F03BF96060204610BDDA
:10216000002AF8D0013301312360EEE700687047A0
:10217000406808B520B100F0D5F8431E58425841D8
:1021800008BD10B50446FFF7F3FF00B1606810BD4D
:10219000406808B520B100F0C5F8B0FA80F04009F9
:1021A00008BD10B50446FFF7F3FF00B1606810BD2D
:1021B0004068003018BF01207047F8B50E4603682C
:1021C00004469B6B8F1835469847BD4207D023685D
:1021D00015F8011B1B6C204698470130F5D1236888
:1021E0002046DB6B9847A81BF8BDF8B50E46036880
:1021F00004469B6B8F1835469847BD4208D023682C
:1022000020465B6C9847431C02D005F8010BF4E7AD
:1022100023682046DB6B9847A81BF8BD0020704759
:102220000020704770470020704700207047000072
:102230001FB50446002200F07DF8094B22462360BA
:1022400000230849236101A802F0D6FA064901A833
:1022500001F014F8206100F008FB204604B010BD26
:1022600064710000547100005871000010B50446FC
:10227000054B0360006900F047FE044B20462360D5
:1022800000F076F8204610BD647100001471000063
:1022900038B504460D4603689B6B9847206900F0EB
:1022A000EDFE2169284601F015F805462368204611
:1022B000DB6B9847284638BD0EB477B504460368F3
:1022C00007AD55F8046B9B6B98472069019500F0AA
:1022D000D5FE019A3146206901F08AFB0546236844
:1022E0002046DB6B9847284603B0BDE8704003B03A
:1022F00070470368184708B10B6803607047704760
:10230000884238B504460D460AD0FFF79FFE3CB11F
:10231000EB681BB15B68294620469847EB68E36091
:10232000204638BD007B704703680BB9031D03606E
:102330000068704738B50B4B0446036000230D4618
:102340004360A16002730848FFF7EEFF45B1074BF9
:102350001A681C6062600448FFF7E6FF204638BD3B
:102360006560F8E7C0710000880400108404001064
:1023700010B504460E4B03600E48FFF7D5FFA36867
:102380002BB10D4A13689C420CD163681360094855
:10239000FFF7CAFF237B13B9204600F08FFA2046CF
:1023A00010BD13465A689442FBD162685A60EEE74A
:1023B000C0710000880400108404001010B50446A9
:1023C000FFF7D6FF204600F076FA204610BD000049
:1023D000F8B507460D480E46FFF7A6FF0C4B1C68E4
:1023E00064B1A5687DB132463946284602F0A9FAA3
:1023F00048B9284602F09DFA864204D10348FFF707
:1024000093FF2046F8BD6468EAE700BF8804001027
:102410008404001070477047704700EB0112936905
:1024200002F10C001B6818470430FFF781BA10B5A1
:102430000C460430FFF7BCFA204610BD2DE9FF41E1
:102440000F46002104469046174A184E184DC362A5
:102450000260416081608161816269460C30039550
:102460000096FFF74DFF6846FFF7F0FD694604F15F
:102470001C0003950096251DFFF742FF6846FFF7F5
:10248000E5FD424639462846FFF72EFBE16A28461D
:10249000FFF76EF9284622460649FFF73DFA204627
:1024A00004B0BDE8F08100BFD07100001524000029
:1024B000AC7100001B24000010B50446006930B167
:1024C000036861695B6A98470023236110BD6FF060
:1024D000150010BD30B40446006903689D6A1346B8
:1024E000AC460A46616930BC604730B404460069B6
:1024F0000368DD6A1346AC460A46616930BC604732
:10250000036941691A681846126B104703694169EB
:102510001A681846526B104730B4044600690368C5
:102520009D6B1346AC460A46616930BC604703693F
:1025300041691A681846D26B1047036941691A68E5
:102540001846126C1047036941691A681846526CA4
:10255000104770B50D460169044641B929680E6AF5
:1025600000F114012846B04718B9256170BD6FF01D
:10257000150070BD074B10B50360036904460BB12D
:10258000FFF79AFF044B20462360FFF7F1FE204639
:1025900010BD00BFE87100001471000010B50446C2
:1025A000FFF7E8FF204600F086F9204610BD000046
:1025B000002210B504461146FFF7BCFE034B20462F
:1025C000236000232361636110BD00BFE871000038
:1025D00001F04CB801F0A8B800F0FCBF00F0EBBF70
:1025E000034B10B503600446FFF7C4FF204610BD3F
:1025F0003472000008B5084B1B685BB907490848EE
:10260000084AFFF771FA4FF41651BDE80840044834
:10261000FFF7AEB808BD00BF9003001002C009204C
:10262000A805001003C0092070470000022810B55B
:10263000044601DC002010BD00F00EFC092300223E
:102640000360094B033C53F8240043F8242040B1B5
:1026500003681B699847041EECDA00F0FDFB644236
:1026600004604FF0FF3010BD90040010F8B505462F
:102670000E46144600F0F0FB0923022D03600FDC28
:10268000124B1B680BB9FFF7B5FF35463719104ED3
:10269000BD4215D015F8011B3046FFF789F9F7E761
:1026A0000C4B033D53F8250060B103682246DB68FC
:1026B00031469847041E03DA00F0CEFB6342036004
:1026C0002046F8BD4FF0FF34FAE700BF900300103A
:1026D000A80500109004001070B504460D4616467B
:1026E00000F0BAFB0923022C03600BDC0F4B1B68C4
:1026F0000BB9FFF77FFF0E48FFF71AF90124287086
:10270000204670BD0B4B033C53F8240058B10368BE
:1027100032469B6829469847041EF1DA00F09CFB7C
:1027200063420360ECE74FF0FF34E9E790030010E9
:10273000A80500109004001010B5044600F08CFBB2
:102740000923022C036010DD0A4B033C53F82400DC
:1027500040B103689B699847041E08DA00F07CFBCF
:10276000644204604FF0FF3010BD012010BD002016
:1027700010BD00BF9004001070B504460D4616460B
:1027800000F06AFB0923022C03600BDD084B033CBD
:1027900053F8240040B1036832462946BDE8704032
:1027A000DB691847002070BD4FF0FF3070BD00BFDF
:1027B00090040010022808B504DC4FF400530020F8
:1027C0004B6008BD00F048FB092303604FF0FF3069
:1027D00008BD704708B5FFF727FFFFF7FAFF08BDF0
:1027E000704708B5FFF7FCFFBDE80840FEF704BDE1
:1027F0000C4A10B513681844EFF30881884205D3DA
:102800000C22094B4FF0FF301A6010BD07490C68CD
:1028100024B10749096821448842F1D21060184662
:1028200010BD00BFD0000010B005001098050010CA
:102830009C050010094C08B523680546986800F00F
:102840001DFC2368D86800F019FCFEF729FE08B1CA
:10285000FEF744FE0DB1FEF75BFEFEE7D40000106C
:102860000120704708B5FFF7E5FF002101F00DBF1B
:102870007047704708B5FFF7FBFF08BD08B5FFF7C5
:10288000F8FF08BD10B500F065FE044610B9024817
:10289000FEF738FE204610BD7872000008B100F047
:1028A00061BE704710B50446FFF79AFE2046FFF759
:1028B000F5FF204610BDFFF7F1BF000010B504463C
:1028C0000948FFF731FD00231946084A52F8230052
:1028D000A04208BF42F823100133402BF6D1024832
:1028E000FFF722FD10BD00BF9005001090040010FE
:1028F0002DE9F34789464A49064602F010F8044696
:1029000028B9FFF777FE204602B0BDE8F0874549B9
:10291000304602F004F818B9FFF76CFE0124F2E724
:102920004149304601F0FBFF18B9FFF763FE02246E
:10293000E9E700F091FA09233C4F03603C48FFF7B8
:10294000F3FC0024B84657F82450002D52D001342F
:10295000402CF8D100F080FA182303603448FFF7C8
:10296000E3FC0DE031466846FFF7E2FB6846FFF7FF
:102970001FFC40B947F8240000F06EFA0223036000
:102980004FF0FF34BFE76846FFF702FC20B168460E
:10299000FFF707FC05463DE06846FFF7F2FB82467D
:1029A00030B900F059FA0223036047F824A0E7E7A2
:1029B0001820FFF767FF0646FFF7FAFD1D4B684634
:1029C0003360FFF7D3FB29F480330246514630468B
:1029D000FFF7BFFD071E0BDA00F03EFA7F420760EB
:1029E0001EB1336830465B68984748F82450C7E703
:1029F00035460FE04FF0FF330D4847F82430FFF71E
:102A000093FC33783A2BADD16A460B49304601F03E
:102A100017FF009D002DE8D048F82450033472E7DA
:102A20009D720000A47200009572000090040010D6
:102A300090050010347200005471000038B504464F
:102A4000FFF73AFD05461CB1236820465B689847AE
:102A5000284638BD0649074A074B9A42BEBF51F87F
:102A6000040B42F8040BF8E7044880470448004789
:102A70009C750000C8000010B0020010551F000037
:102A8000DD120000FEE7FEE7FEE7FEE7FEE7FEE7F9
:102A9000FEE7FEE7FEE7FEE781F0004102E000BF4F
:102AA00083F0004330B54FEA41044FEA430594EA0E
:102AB000050F08BF90EA020F1FBF54EA000C55EA49
:102AC000020C7FEA645C7FEA655C00F0E2804FEA1A
:102AD0005454D4EB5555B8BF6D420CDD2C4480EAFC
:102AE000020281EA030382EA000083EA010180EA2C
:102AF000020281EA0303362D88BF30BD11F0004F7A
:102B00004FEA01314FF4801C4CEA113102D04042AF
:102B100061EB410113F0004F4FEA03334CEA1333EA
:102B200002D0524263EB430394EA050F00F0A78002
:102B3000A4F10104D5F1200E0DDB02FA0EFC22FAFD
:102B400005F2801841F1000103FA0EF2801843FAF1
:102B500005F359410EE0A5F120050EF1200E012AE2
:102B600003FA0EFC28BF4CF0020C43FA05F3C01820
:102B700051EBE37101F0004507D54FF0000EDCF199
:102B8000000C7EEB00006EEB0101B1F5801F1BD342
:102B9000B1F5001F0CD349085FEA30004FEA3C0C46
:102BA00004F101044FEA445212F5800F80F09A803C
:102BB000BCF1004F08BF5FEA500C50F1000041EB40
:102BC000045141EA050130BD5FEA4C0C404141EB44
:102BD000010111F4801FA4F10104E9D191F0000F6B
:102BE00004BF01460020B1FA81F308BF2033A3F1EE
:102BF0000B03B3F120020CDA0C3208DD02F1140CE5
:102C0000C2F10C0201FA0CF021FA02F10CE002F11F
:102C10001402D8BFC2F1200C01FA02F120FA0CFC18
:102C2000DCBF41EA0C019040E41AA2BF01EB045161
:102C3000294330BD6FEA04041F3C1CDA0C340EDC5F
:102C400004F11404C4F1200220FA04F001FA02F3A2
:102C500040EA030021FA04F345EA030130BDC4F160
:102C60000C04C4F1200220FA02F001FA04F340EA55
:102C70000300294630BD21FA04F0294630BD94F006
:102C8000000F83F4801306BF81F480110134013DED
:102C90004EE77FEA645C18BF7FEA655C29D094EA5E
:102CA000050F08BF90EA020F05D054EA000C04BFDC
:102CB0001946104630BD91EA030F1EBF00210020C7
:102CC00030BD5FEA545C05D14000494128BF41F066
:102CD000004130BD14F580043CBF01F5801130BDCA
:102CE00001F0004545F0FE4141F470014FF0000055
:102CF00030BD7FEA645C1ABF194610467FEA655C06
:102D00001CBF0B46024650EA013406BF52EA0335A7
:102D100091EA030F41F4002130BD00BF90F0000F95
:102D200004BF0021704730B54FF4806404F13204D1
:102D30004FF000054FF0000150E700BF90F0000F8A
:102D400004BF0021704730B54FF4806404F13204B1
:102D500010F0004548BF40424FF000013EE700BF81
:102D600042004FEAE2014FEA31014FEA02701FBF11
:102D700012F07F4393F07F4F81F06051704792F0E3
:102D8000000F14BF93F07F4F704730B54FF460745D
:102D900001F0004521F0004120E700BF50EA0102A8
:102DA00008BF704730B54FF000050AE050EA010255
:102DB00008BF704730B511F0004502D5404261EBC5
:102DC00041014FF4806404F132045FEA915C3FF406
:102DD000DCAE4FF003025FEADC0C18BF03325FEA9F
:102DE000DC0C18BF033202EBDC02C2F1200300FA54
:102DF00003FC20FA02F001FA03FE40EA0E0021FA79
:102E000002F11444C1E600BF4FEA410212F500127C
:102E100015D211D56FF47873B3EB625212D94FEA21
:102E2000C12343F0004343EA505311F0004F23FA0B
:102E300002F018BF404270474FF00000704750EA60
:102E4000013005D111F0004008BF6FF0004070471D
:102E50004FF00000704700BF014B1868704700BF7B
:102E6000D400001070B505460C4611B90026304656
:102E700070BD18B183690BB900F052F91F4B9C4229
:102E800032D16C68B4F90C30002BEFD021462846C3
:102E900000F042F8236B064633B1216A2846984772
:102EA0000028B8BF4FF0FF36A3891B0603D5216960
:102EB0002846FFF791FB616B41B104F1440399424D
:102EC00002D02846FFF788FB00236363A16C21B181
:102ED0002846FFF781FB0023A36400F08DF900234F
:102EE000A38100F08AF9C2E7054B9C4201D1AC688E
:102EF000C8E7044B9C4208BFEC68C3E7CC720000F3
:102F0000EC720000AC720000024B01461868FFF73B
:102F1000A9BF00BFD40000108A892DE9F041054601
:102F200010070C465AD44B68002B05DC0B6C002BA9
:102F300002DC0020BDE8F081E66A002EF9D0002313
:102F400012F480522F682B6033D0606DA3895A072A
:102F500005D56368C01A636B0BB1236CC01A0023DC
:102F60000246E66A216A2846B047431CA38906D177
:102F700029681D294BD82B4ACA40D60747D50022BD
:102F800062602269D904226004D5421C01D12B68F9
:102F900003B96065616B2F600029CAD004F1440356
:102FA000994202D02846FFF717FB00206063BDE876
:102FB000F081216A01232846B047411CC6D12B6805
:102FC000002BC3D01D2B01D0162B01D12F60B0E7F1
:102FD000A38943F04003A381BDE8F0810F69002F6E
:102FE000A7D0930718BF00230E6808BF4B69A6EB54
:102FF00007080F608B60B8F1000F9ADD43463A4630
:10300000216A2846A66AB047002807DCA38943F056
:103010004003A3814FF0FF30BDE8F0810744A8EBE7
:103020000008E8E70100402038B50B6905460C466A
:10303000DBB118B183690BB900F072F80C4B9C42FC
:1030400009D16C68B4F90C307BB121462846BDE843
:103050003840FFF761BF074B9C4201D1AC68F1E7F4
:10306000054B9C4208BFEC68ECE7002038BD00BF70
:10307000CC720000EC720000AC720000014620B976
:10308000044B0549186800F0BFB9044B1868FFF7F6
:10309000CBBF00BF0C73000029300000D40000102B
:1030A000014900F0B1B900BF29300000002310B57C
:1030B000044603604360836081814366C28103618B
:1030C00043618361194608225C3000F06CFA054BBD
:1030D00024626362044BA362044BE362044B2363E8
:1030E00010BD00BF95480000BB480000F348000039
:1030F0001749000070B568254A1E55430E4605F174
:103100007401FFF765FA044640B1002180E84200EF
:103110000C30A06005F1680200F045FA204670BD51
:10312000836910B5044633BB8364C3640365124BE3
:10313000124A1B688262984204BF0123836100F037
:103140001FF86060204600F01BF8A060204600F0E9
:1031500017F80022E06004216068FFF7A7FF012252
:103160000921A068FFF7A2FF02221221E068FFF701
:103170009DFF0123A36110BD0C730000A13000006E
:10318000F8B51C4B07461E68B36913B93046FFF704
:10319000C7FF4836B4687368013B03D5336833B161
:1031A0003668F7E7B4F90C506DB16834F4E70421E0
:1031B0003846FFF79FFF30600028F1D10C2304460A
:1031C0003B602046F8BD4FF6FF73E381012365663F
:1031D000A3812560A560656025616561A561082200
:1031E000294604F15C0000F0DEF96563A563A5647F
:1031F000E564E6E70C73000070477047F7B50F46CB
:10320000114601AA054602F04FFC064618B90024F3
:10321000204603B0F0BD2846FFF7B2FF0446002861
:10322000F5D04FF4DB73019A3946284601F0A6F930
:10323000002806DA0025FFF7DFFFA581FFF7DDFF95
:10324000E5E70A4BE0816362094BA681A362094B63
:103250002462E362084B2363F305D9D502230022DD
:103260002146284600F03EF8D2E700BF954800000E
:10327000BB480000F348000017490000024B0A4613
:1032800001461868FFF7BABFD400001070B50E46AB
:103290001446054618B183690BB9FFF741FF0A4B85
:1032A0009C4207D16C68224631462846BDE87040F2
:1032B00001F076B9054B9C4201D1AC68F3E7044BB1
:1032C0009C4208BFEC68EEE7CC720000EC72000094
:1032D000AC720000024B0A4601461868FFF7D6BFE1
:1032E000D400001000F000B82DE9F8430C469146D8
:1032F0001E46054618B183690BB9FFF711FF3F4B16
:103300009C4212D16C68A38903F48473B3F5847F63
:1033100003D121462846FFF787FED4F82C80B8F168
:10332000000F0CD11D232B6057E0354B9C4201D17F
:10333000AC68E8E7334B9C4208BFEC68E3E7012E3A
:1033400030D0022E01D0002E55D123691BB9214661
:10335000284600F0BFF821462846FFF765FE0746DD
:1033600000283AD133464A46216A2846C0470130F0
:1033700033D0616B41B104F14403994202D0284635
:10338000FFF72AF90023636300212369616023604A
:10339000A389082223F40263A38104F15C0000F0F6
:1033A00002F91CE021462846FFF73EFEA28912F4EE
:1033B00080520CD0606DA3895A0713D56368C01A78
:1033C000636B0BB1236CC01A81440026BDE7216AF0
:1033D00033462846C047411CEDD14FF0FF373846F1
:1033E000BDE8F8831B07EFD52368002BECD02269DA
:1033F0009B1A1844E8E7162395E700BFCC7200003B
:10340000EC720000AC7200002DE9F843804689465A
:10341000002600F1480414B93046BDE8F883A568D9
:103420006768013F01D52468F5E7AB89012B07D90F
:10343000B5F90E30013303D029464046C84706434C
:103440006835EEE770B500250C4E0D4CA41BA4109A
:10345000A54209D103F086FC00250A4E0A4CA41BA4
:10346000A410A54205D170BD56F825309847013506
:10347000EEE756F8253098470135F2E7A402001030
:10348000A4020010A4020010AC02001070B50E4699
:10349000B1F90E1090B0002914461D4607DA00233A
:1034A0002B60B3891A0610D44FF480630EE001AA92
:1034B00002F030FB0028F2DB029A02F47042A2F51F
:1034C00000535A425A412A60EEE74023002023600D
:1034D00010B070BD8B8973B59D0706460C4607D5A5
:1034E00004F14703236023610123636102B070BDCF
:1034F00001AB6A46FFF7CAFF009905463046FFF761
:1035000067F848B9B4F90C309A05EFD423F00303F7
:1035100043F00203A381E3E70D4BB362A38920606C
:1035200043F08003A381009B20616361019B5BB139
:10353000B4F90E10304602F0FFFA28B1A38923F047
:10354000030343F00103A381A3891D43A581CDE7B4
:10355000A1300000024B01461868FFF739B800BFE0
:10356000D4000010024B01461868FFF735B800BFC1
:10357000D400001010B5C9B202449042034601D1F4
:10358000002010BD1C7801308C42F6D1184610BDC9
:1035900010B5431E0A44914200D110BD11F8014BF1
:1035A00003F8014FF7E703460244934200D1704706
:1035B00003F8011BF9E738B502FB01F42146FFF7D8
:1035C00007F8054618B122460021FFF7ECFF284610
:1035D00038BD000038B50546002943D051F8043CF9
:1035E0000C1F002BB8BFE418FFF744F91E4A1368FC
:1035F000104633B9636014602846BDE83840FFF7D1
:103600003DB9A3420BD921686218934201BF1A68E1
:103610005B685218226063600460EDE713465A68E5
:103620000AB1A242FAD919685818A0420BD12068F1
:103630000144581882421960DED110685268014472
:1036400019605A60D8E702D90C232B60D4E72068B0
:1036500021188A4201BF116852680918216062600E
:103660005C60C9E738BD00BFA005001070B5CD1C77
:1036700025F0030508350C2D38BF0C25002D064616
:1036800001DBA94203D90C233360002070BDFFF792
:10369000F1F8234A1468214691B9224C23681BB9DA
:1036A000304600F0B3FF20602946304600F0AEFF00
:1036B000431C26D10C2330463360FFF7DFF8E4E7E4
:1036C0000B685B1B1AD40B2B0FD90B60CC18CD5099
:1036D0003046FFF7D3F804F10B00231D20F007005C
:1036E000C31A1BD05A42E25070BD8C420BBF6368B4
:1036F0004B681360636018BF0C46E9E70C464968E5
:10370000CAE7C41C24F00304A04205D0211A3046A5
:1037100000F07CFF0130CDD02560D9E770BD00BF3F
:10372000A0050010A4050010F8B5074614460E4683
:1037300021B91146BDE8F840FEF74ABF22B9FEF7AD
:103740004BFF25462846F8BD02F035FD84420FD9CF
:1037500021463846FEF73CFF05460028F2D03146A8
:103760002246FFF715FF31463846FEF735FFE9E7F9
:103770003546E7E7936810B4013B002B936008DA05
:103780009469A34202DBCBB20A2B02D110BC01F038
:1037900047BA1368581C10601970C8B210BC704743
:1037A000F8B506460F461446D518AC4201D10020A4
:1037B00007E03A4614F8011B3046FFF7DBFF431CD5
:1037C000F3D1F8BD2DE9F04F9DB00C461746039399
:1037D000064618B183690BB9FFF7A2FC7C4B9C42EB
:1037E00057D17468A38918075DD52369002B5AD077
:1037F0000023099320238DF8293030234FF0010B4B
:103800008DF82A30B846454615F8013B002B55D1B6
:10381000B8EB070A0BD053463A4621463046FFF72D
:10382000BFFF013000F0C480099B5344099398F80E
:103830000030002B00F0BC8000234FF0FF320493D7
:103840000793059206938DF853301A930522297831
:103850006048FFF78FFE05F10108049B002831D175
:10386000D90644BF20228DF853201A0744BF2B22CB
:103870008DF853202A782A2A2CD000210A20079A72
:10388000A84698F800300135303B092B6DD971B34B
:1038900026E0514B9C4201D1B468A3E74F4B9C42B8
:1038A00008BFF4689EE72146304601F01DFA002863
:1038B0009ED04FF0FF301DB0BDE8F08F252BA7D074
:1038C000A846A0E7434A4546801A0BFA00F0184381
:1038D0000490BBE7039A111D12680391002A01DBD3
:1038E000079204E0524243F002030792049398F8CF
:1038F00000302E2B10D198F8013008F101012A2B4D
:1039000037D1039B08F102081A1D1B680392002B94
:10391000B8BF4FF0FF330593314D032298F80010E4
:103920002846FFF727FE40B14023401B03FA00F072
:10393000049B08F101080343049398F80010062241
:10394000284808F101078DF82810FFF713FE00281A
:1039500034D0254B03BB039B073323F00703083305
:103960000393099B4B4409934CE700FB023201216E
:1039700086E700230A2518460593884698F8002014
:103980000131303A092A03D9002BC5D00590C3E78D
:1039900005FB00200123F0E703AB00932246134B05
:1039A00004A9304600F0C0F8B0F1FF3F8146D8D1FD
:1039B000A3895B063FF57DAF09987CE703AB0093D5
:1039C00022460A4B04A9304600F05EFBECE700BF3C
:1039D000CC72000010730000EC720000AC720000AA
:1039E000167300001A730000293B0000A137000085
:1039F00013460A46014602480068FFF7E3BE00BFCF
:103A0000D4000010002B2DE9F0471E46BBBF03F188
:103A100000431E4600232D2388B0149F129927F0DF
:103A20002007462F1446109DDDF84CA00B7004D0E3
:103A3000452F00D10135022300E0032307AA049299
:103A400006AA03928DE828042246334601F058FA6C
:103A5000472F804602D1119BDB0726D5462F08EB66
:103A6000050911D198F80030302B0AD1002200232B
:103A70002046314603F02EF918B9C5F10105CAF800
:103A80000050DAF8003099440022002320463146E5
:103A900003F020F938B93022079B994505D9591C04
:103AA00007911A70F8E7CDF81C904046079B159ACD
:103AB000A3EB0803136008B0BDE8F0870346F7B531
:103AC000002903F8022BB6BF2D222B2249420929D7
:103AD000427021DD0DF1070217460A2691FBF6F52B
:103AE00006FB1511092D01F1300102F8011C02F14C
:103AF000FF34294609DC3031023A04F8011CBA428D
:103B00001C4604D3201A03B0F0BD2246E6E712F8A3
:103B1000011B03F8011BF2E730221C46114404F894
:103B2000022B5970EEE700002DE9F04F91B00C46E2
:103B30001A9F93461E46054602F020F80368184671
:103B4000099300F0F6FE00230E933B680A900733BA
:103B500023F0070303F1080294F81880D4F800A0BA
:103B60003A60D3E90023C4E91223D4F84C90A76C3F
:103B700029F000430B934FF0FF32A64B38460B99C8
:103B800003F0DAF8002840F0F7814FF0FF32A14B44
:103B900038460B9903F0B2F8002840F0ED8100227E
:103BA00000233846494603F09FF810B12D2384F8CE
:103BB0004330994B994FB8F1470F98BF1F460323E5
:103BC0004FF0000923612AF00403236000965B464E
:103BD0000FAA2146284600F0DFF9013040F09A8014
:103BE0004FF0FF3011B0BDE8F08F62680EA8531C93
:103BF0000DF1340E4AF4806341D106226260002147
:103C00002360019363680DF13302059002920093E3
:103C10003A464B460691CDF81080CDF80CE0284688
:103C2000FFF7F0FE08F0DF03472B074609D10D9B95
:103C3000D81C02DB6268934259DDA8F102085FFAE2
:103C400088F8B8F1650F0D9936D80139424604F16C
:103C500050000D91FFF732FF0E9A81468318012A1A
:103C6000236102DC2268D10701D5013323619DF86D
:103C70003330002BAAD02D2384F84330A6E7B8F1C7
:103C8000670F02D0B8F1470FB9D19AB10021069160
:103C90000DF133018DE80C00236005903A46CDF814
:103CA0001080CDF80CE002914B462846FFF7AAFEA3
:103CB0000746BCE70122A1E7B8F1660F19D1002938
:103CC00063680CDD216113B92268D20702D5013384
:103CD0000B4423610D9B4FF00009A365C7E713B99F
:103CE0002268D00701D50233F3E70123F1E74FF053
:103CF00067080D9B0E9A934205DB22682361D1076A
:103D0000E8D50133E5E7002BCCBF0123C3F1020363
:103D10001344DEE723685A0507D423693A46594617
:103D20002846B04701302AD15AE7B8F1650F40F272
:103D3000DC80D4E912010022002302F0CBFF00282E
:103D400039D00123364A59462846B04701303FF45E
:103D500047AF0E9B0D9A9A4202DB2368D8070ED517
:103D60000A9B099A59462846B04701303FF438AFBC
:103D7000002704F11A080E9B013B9F4211DB2368C8
:103D80009F0708D5002704F11908E3680F9A9B1ACA
:103D90009F42C0F2E780E0680F9B9842B8BF184688
:103DA00020E70123424659462846B04701303FF4F8
:103DB00017AF0137DFE70D9B002B33DC0123184AD7
:103DC00059462846B04701303FF40AAF0D9B23B94E
:103DD0000E9B13B92368D907D1D50A9B099A594676
:103DE0002846B04701303FF4FBAE4FF0000804F125
:103DF0001A090D9B5B42984501DB0E9B8EE7012360
:103E00004A4659462846B04701303FF4E9AE08F12A
:103E10000108EEE7FFFFEF7F21730000257300002C
:103E2000767300000E9AA36D9A42A8BF1A46002A24
:103E3000904636DC4FF0000A04F11A0328EAE878CD
:103E40000B93D4F85890A9EB08039A4531DB0E9BED
:103E50000D9A9A4238DB2368DA0735D40E9B0D9908
:103E6000A3EB0902A3EB01089045A8BF9046B8F167
:103E7000000F31DC002728EAE87804F11A090D9ACE
:103E80000E9B9B1AA3EB08039F42BFF678AF01235A
:103E90004A4659462846B04701303FF4A1AE0137A3
:103EA000EDE7134659463A462846B0470130C1D19E
:103EB00096E601230B9A59462846B04701303FF455
:103EC0008FAE0AF1010ABCE70A9B099A59462846B7
:103ED000B0470130C2D183E6434607EB0902594699
:103EE0002846B0470130C5D17AE60E9A012A01DC96
:103EF000DB0734D501233A4659462846B0470130FE
:103F00003FF46EAE0A9B099A59462846B0470130E5
:103F10003FF466AED4E912010022002302F0DAFE7B
:103F200050B1002704F11A080E9B013B9F420CDBA5
:103F30004B4604F15002F2E60E9B7A1C013B5946B7
:103F40002846B0470130F3D14AE60123424659469C
:103F50002846B04701303FF443AE0137E4E7012380
:103F60003A46ECE70123424659462846B04701301D
:103F70003FF436AE013708E73A464B4638464946E5
:103F800002F0DAFE00283FF430AE014B014F12E69A
:103F9000297300002D7300002DE9F04791461F465C
:103FA0008A680B6906469342B8BF1346C9F80030C9
:103FB00091F843200C46DDF8208012B10133C9F896
:103FC00000302368990642BFD9F800300233C9F89F
:103FD0000030256815F0060507D104F1190AE368D9
:103FE000D9F800209B1A9D422ADB94F843302268BE
:103FF000003318BF012392062FD404F1430239463F
:104000003046C047013022D02368E56803F006033C
:10401000042B18BF0025D9F800204FF0000908BF75
:10402000AD1AA368226908BF25EAE5759342C4BFAB
:104030009B1AED181A344D451BD10020BDE8F087BE
:104040000123524639463046C047013003D14FF074
:10405000FF30BDE8F0870135C1E73020E11881F875
:1040600043005A1C94F845102244023382F843104E
:10407000C3E70123224639463046C0470130E6D027
:1040800009F10109D7E700002DE9F04317460A7E40
:1040900085B06E2A984606460C460C9B01F1430EED
:1040A00000F0BC801AD8632A2ED00AD8002A00F06B
:1040B000C880582A00F08A8004F1420584F8422022
:1040C0002AE0642A01D0692AF6D121681A6811F021
:1040D000800F23D0111D1960136827E0732A00F0A8
:1040E000B48008D86F2A2AD0702AE5D10A6842F035
:1040F00020020A6003E0752A21D0782ADCD17822D8
:104100006F4984F8452064E01A6801F14205111DE9
:104110001960136884F842300123A3E011F0400FC6
:1041200002F104011960D7D0B2F90030002B03DA94
:104130002D225B4284F8432062490A2217E020685E
:10414000196810F0800F03D0081D18600B6806E096
:1041500010F0400F01F104001860F7D00B886F2AAF
:1041600014BF0A2208225749002084F843006568DA
:10417000002DA560C0F29C80206820F00400206023
:10418000002B3FD1002D40F095807546082A0BD1B9
:104190002368DA0708D5236962689A42DEBF3023B4
:1041A00005F8013C05F1FF35AEEB05032361CDF8C1
:1041B00000803B4603AA21463046FFF7EDFE013062
:1041C00055D14FF0FF3005B0BDE8F08381F84520B0
:1041D0003C492268186812F0800F00F104051D6048
:1041E00001D0036802E05506FBD50388D00744BF21
:1041F00042F0200222601BB9226822F020022260D5
:104200001022B1E77546B3FBF2F002FB1033CB5C32
:1042100005F8013D03460028F5D1B7E708681A689C
:1042200010F0800F496904D0101D186013681960E0
:1042300007E010F0400F02F1040018601368F6D098
:104240001980002375462361B1E71A68111D1960B2
:104250001568002162682846FFF78CF908B1401BF9
:10426000606063682361002384F843309FE723691B
:104270002A4639463046C0470130A2D023689B0702
:1042800007D5002504F11909E368039A9B1A9D429A
:1042900005DBE068039B9842B8BF184693E701230B
:1042A0004A4639463046C04701308AD00135EBE7EF
:1042B000002BA7D10B7804F1420584F8423065E762
:1042C00042730000317300002DE9F04115468A6801
:1042D00080460C4632B98A69002A0CBF01224FF091
:1042E000FF328A6000262268D1065FBF1A68111D5E
:1042F00019601768A369DBB1012B07D12B686269CC
:104300001B78D35CA3B9002E31D106E0022B07D075
:10431000002E2CD1A369012B29D10120BDE8F08109
:1043200001F01EFC2B681B78184443781B07EFD460
:1043300023680136DA065EBF2B681B783B702A685B
:104340006B6802F101022A60A26803F1FF3302F1F7
:10435000FF326B6058BF0137A26042B1002BC9DC4D
:10436000D4F880312946404698470028C2D02368B7
:1043700013F0100305D1E2680132E260A26902B1D4
:104380003B70236900201E442661BDE8F0810000D7
:104390002DE9F04F0C469A46744B87B0834616467B
:1043A00093E8070003ABA76883E80700704BA16997
:1043B000704A04F11C09032918BF1A467B1EB3F585
:1043C000AE7F84BF40F25D13A360236888BF6FF4A3
:1043D000AE7543F45063236098BF00274B464FF0FF
:1043E0000008009288BF7F193168019303AB53F82E
:1043F000280002220978FFF7BDF8019B28B3B8F125
:10440000010F56D162682AB908226260226842F41C
:1044100000722260226822F4A0622260A268511E0B
:10442000A16092B132685D1C511C316012781A7023
:104430007368013B002B736006DCD4F88031314691
:1044400058469847002877D12B4608F10108B8F163
:10445000030FC9D162680AB90A22626062684649DC
:104460006069891A019300F0E1F8019B4FF00008A0
:104470001D46A368002B39D0316860690A78805CDA
:10448000002833D0302A226821D110051FD508F129
:10449000010817B10133013FA3607368013B002B92
:1044A00073601CDD336801333360A368013BA36094
:1044B000DFE7B8F1020FB1D1226802F4C061B1F5B3
:1044C000007FC2D1102142F480726160A5E722F41E
:1044D000106222600B78013505F8013CDDE7D4F865
:1044E00080313146584698470028DED02368D905E8
:1044F0000CD54D4508D915F8011C6F1ED4F87C3138
:104500003246584698473D464D452CD0226812F019
:1045100010021ED12A70636849465846009EB04773
:104520002268DAF8003012F0200F08D01A1DCAF8FD
:1045300000201B68186009E04FF00008D6E7D2079A
:10454000F4D51A1DCAF800201B681880E3680133EF
:10455000E3600020A5EB0905A844256945442561D1
:1045600007B0BDE8F08F0120FAE700BF54730000E8
:10457000894B0000694A00007073000038B5054699
:10458000084611460022054C22601A46FEF7B0F993
:10459000431C02D1236803B12B6038BDB005001065
:1045A00070B50D461446064618B183690BB9FEF77F
:1045B000B7FD134B9C4212D17468A368013B002BDA
:1045C000A36016DAA269934202DBEBB20A2B10D188
:1045D000224629463046BDE8704000F021BB094B19
:1045E0009C4201D1B468E8E7074B9C4208BFF468DD
:1045F000E3E72368E8B25A1C22601D7070BD00BF5B
:10460000CC720000EC720000AC72000038B50023E0
:10461000054C054608462360FEF7EAF8431C02D124
:10462000236803B12B6038BDB005001070B50B785E
:10463000441E5E2B13BF4A1C8A1C4B78002108BF06
:10464000012100F1FF0504F8011FA542FBD113B9B8
:10465000013A104670BD81F001041146C4540D7832
:104660004A1C2D2D06D05D2DF3D00DB90A46F0E77A
:104670002B46F2E74E785D2EFAD0B342F8DC0231D9
:1046800001339E42C454FBDCE9E700294FF4806308
:104690000CBF0222002200F001B800002DE9F74310
:1046A0001D46514B04461E680F46904626B1B3691D
:1046B00013B93046FEF734FD4C4B9C4252D174681E
:1046C000B8F1020F06D0B8F1010F00F28980002D79
:1046D000C0F2868021463046FEF7A6FC616B41B1F0
:1046E00004F14403994202D03046FDF775FF0023E0
:1046F00063630023A3616360A3891B0603D521695B
:104700003046FDF769FFA389B8F1020F23F44A632D
:1047100023F00303A3815DD001AB6A4621463046F6
:10472000FEF7B4FEA3891843A0812DBB009D284647
:10473000FEF710FF074600284ED1DDF80090A9458E
:104740003CD14FF0FF30A38943F00203A381002343
:10475000A36004F14703236023610123636103B075
:10476000BDE8F083224B9C4201D1B468A8E7214BFD
:104770009C4208BFF468A3E7002FD8D0B36913B9EF
:104780003046FEF7CDFCB8F1010F08BFA3892760C2
:1047900004BF43F00103A381A389276113F008003C
:1047A00065611BD013F001004FF000031FBF6D4285
:1047B000A360A561184608BFA560D0E74846FEF78C
:1047C000C9FE07460028BCD0A3894D4643F08003AC
:1047D000A381D3E70020B6E7A946F5E7A060BEE7CE
:1047E0004FF0FF30BBE700BFD4000010CC720000D8
:1047F000EC720000AC7200000EB44FF4027100B510
:104800009CB0ADF814106FF00041049107914FF681
:10481000FF711DAB02900690084853F8042BADF8C9
:104820001610006802A9019301F02AFD0022029BE4
:104830001A701CB05DF804EB03B07047D400001090
:104840000EB44FF4017230B59CB01FAC54F8045B49
:10485000ADF814200290069000F06BF80B4B03901B
:104860000B9300230F9314934FF6FF7307900848A0
:10487000ADF816302A46234602A90068019401F0DB
:104880004DFE1CB0BDE8304003B07047B748000093
:10489000D400001010B50C46B1F90E1001F092FFD3
:1048A0000028ABBF636DA3891B1823F48053ACBFF2
:1048B0006365A38110BD002070472DE9F0411F46BC
:1048C0008B890546DB050C46164605D502230022DA
:1048D000B1F90E1001F060F9A389324623F4805338
:1048E000A381B4F90E103B462846BDE8F04100F024
:1048F000E9B910B50C46B1F90E1001F04DF9431CA1
:10490000A38915BF606523F4805343F48053A381CA
:1049100018BFA38110BDB1F90E1000F053BA10F802
:10492000012B11F8013B012A28BF9A42F7D0D01A77
:104930007047034613F8012B002AFBD1181A0138DF
:10494000704710B56AB10139841810F8013B11F8AD
:10495000012F934203D1A04201D0002BF5D1981A28
:1049600010BD104610BD2DE9F84F8046894692468D
:104970001F468B465D460A9815F8014B01F0ECF88E
:104980002044467816F008060BD12D2C0BD10126B9
:104990002C780BF1020567B1102F14D1302C0AD0FE
:1049A00011E0AB46E6E72B2C04BF2C780BF1020597
:1049B000F1E7302C27D12B7803F0DF03582B4BD1B4
:1049C00010276C780235002E0CBF6FF000414FF0BD
:1049D00000410022B1FBF7FE104607FB1E1CA4F1AC
:1049E0003003092B11D81C46A7421DDD531C07D0EC
:1049F000864516D301D1A44513DB012200FB0740F5
:104A000015F8014BEBE70A27DDE7A4F14103192B69
:104A100001D8373CE8E7A4F16103192B04D8573CCF
:104A2000E2E74FF0FF32EBE7531C08D122230846A0
:104A3000C8F80030BAF1000F07D1BDE8F88F06B111
:104A40004042BAF1000F0CD022B1013DCAF800502B
:104A5000BDE8F88F4D46F9E73024002FB3D1082781
:104A6000B1E7BDE8F88F000037B5064C064D246865
:104A7000246A002C08BF2C460094FFF774FF03B093
:104A800030BD00BFD4000010380100102DE9F04700
:104A90008046894692461E460F463D46089815F8C0
:104AA000014B01F059F82044437813F008030AD170
:104AB0002D2C0AD101232C78BD1C5EB1102E13D1F0
:104AC000302C09D010E02F46E7E72B2C04BF2C78C0
:104AD000BD1CF2E7302C25D12A7802F0DF02582ADB
:104AE0004AD110266C7802354FF0FF31B1FBF6F158
:104AF000002706FB01FE38466FEA0E0EA4F13002D5
:104B0000092A11D81446A6421DDD002F18DB814268
:104B100016D301D1A64513DB012700FB064015F88B
:104B2000014BEBE70A26DFE7A4F14102192A01D87D
:104B3000373CE8E7A4F16102192A04D8573CE2E7C0
:104B40004FF0FF37EBE7002F09DA22234FF0FF3059
:104B5000C8F80030BAF1000F07D1BDE8F08703B103
:104B60004042BAF1000F0CD027B1013DCAF8005005
:104B7000BDE8F0874D46F9E73024002EB4D1082671
:104B8000B2E7BDE8F087000037B5064C064D246853
:104B9000246A002C08BF2C460094FFF777FF03B06F
:104BA00030BD00BFD4000010380100102DE9F041E5
:104BB0000C46496B04F1440399421CD14FF48061C7
:104BC000FDF706FD18B94FF0FF30BDE8F0814FF456
:104BD0008063A36394F84630606380F8FF3394F8F1
:104BE000453000F2FD30437094F84430037020608B
:104BF0000020BDE8F081A66B77003A46FDF7EAFC9D
:104C000005460028DFD000EB060801463246404644
:104C1000FEF7BEFCC4F800806563A763E8E7000008
:104C2000F8B50E461446054618B183690BB9FEF770
:104C300077FA214B9C422AD16C68A369A360A389AF
:104C40001A072ED5236963B323692068F6B2C01A08
:104C500063693746984204DB21462846FEF7E4F9AB
:104C600028BBA3680130013BA36023685A1C226063
:104C70001E706369984204D0A389DB0719D50A2EF8
:104C800017D121462846FEF7CFF990B10FE00B4B24
:104C90009C4201D1AC68D0E7094B9C4208BFEC684C
:104CA000CBE72146284600F01FF80028CCD04FF073
:104CB000FF373846F8BD00BFCC720000EC72000030
:104CC000AC72000038B50546084611460022054C76
:104CD00022601A46FDF7CAFC431C02D1236803B1C7
:104CE0002B6038BDB0050010324B70B51D6806460C
:104CF0000C4625B1AB6913B92846FEF711FA2E4BC5
:104D00009C420FD16C68B4F90C309AB215072CD4C0
:104D1000D00611D40922326043F04003A3814FF042
:104D2000FF3070BD254B9C4201D1AC68EBE7244BB2
:104D30009C4208BFEC68E6E7510712D5616B41B1B0
:104D400004F14403994202D03046FDF745FC0023AC
:104D50006363A38923F02403A38100236360236991
:104D60002360A38943F00803A38123694BB9A38976
:104D700003F42073B3F5007F03D021463046FEF7DD
:104D8000A9FBA28912F001030CD00023A360636980
:104D90005B42A361236953B9B4F90C3013F080006E
:104DA000BAD170BD920758BF6369A360F2E70020D3
:104DB000F7E700BFD4000010CC720000EC720000D6
:104DC000AC72000038B50023054C05460846236048
:104DD000FDF72CFC431C02D1236803B12B6038BDC6
:104DE000B00500102DE9F74F03690C6980469C421D
:104DF00000F38280013C01F1140700F1140657F81A
:104E0000245056F824000135B0FBF5F54FEA840E26
:104E100006EB0E0307EB0E0901938DB34FF0000A6A
:104E20003846B446D34650F8042B93B205FB03A38F
:104E3000120C4FEA134A05FB02A29BB2ABEB030331
:104E4000BCF800B04FEA124A5B441FFA82FBDCF860
:104E500000208145CBEB124202EB23429BB243EA96
:104E600002434FEA224B4CF8043BDCD256F80E309A
:104E700033B9019B043B9E421A4631D3C8F8104017
:104E8000404601F0D0F8002826DB30464FF0000EF7
:104E9000013557F8041BD0F800C08BB2AEEB03030A
:104EA0001FFA8CF213440A0CC2EB1C4202EB2342A1
:104EB0009BB243EA0243B9454FEA224E40F8043B15
:104EC000E7D256F8242006EB84032AB9043B9E421D
:104ED0001A460BD3C8F81040284603B0BDE8F08F3F
:104EE0001268043B002AC9D1013CC4E71268043BA4
:104EF000002AEFD1013CEAE70020EEE700000000C5
:104F00002DE9F04F466A95B00446219DCDE9022374
:104F10003EB91020FEF71EFB6062466086600660A8
:104F2000C660636A196851B15A68012393404A60A8
:104F30008B60204600F0A2FE0022636A1A60039B89
:104F4000002BB7BF012300232B60039BAEBF2B6058
:104F500023F000430393DDF80C90AB4B33EA0903D5
:104F60001BD142F20F73209A1360029B23B9C9F33D
:104F70001300002800F08385229B53B9A34B21E046
:104F8000A34B06930833229A1360069815B0BDE828
:104F9000F08F9E4B06930333F5E7DDE902670022AD
:104FA00000233046394601F095FE804660B101236A
:104FB000209A1360229B002B00F05E85954B229A6D
:104FC0001360013B0693E0E712AB019313AB009330
:104FD00032463B46204601F09FF8C9F30A55824607
:104FE000002D7DD03046C7F3130343F07F5141F4C9
:104FF0004011A5F2FF35CDF840800022864BFDF729
:105000004FFD7BA3D3E9002301F0FCFB7AA3D3E996
:105010000023FDF747FD064628460F46FDF78EFEA6
:1050200077A3D3E9002301F0EDFB02460B4630469F
:105030003946FDF737FD06460F46FDF7E5FE00222F
:10504000834600233046394601F04EFE58B158469B
:10505000FDF774FE02460B463046394601F03AFE33
:1050600008B90BF1FF3BBBF1160F58D8DDE902235D
:105070006A4901EBCB01D1E9000101F053FE0028A0
:105080004FD000230BF1FF3B0D93129B5D1B6B1E5A
:10509000079343BF0023C5F1010807934FF00008B1
:1050A000BBF1000F3FDB079BCDF830B05B440793AB
:1050B000002308931E9B092B00F2B480052BC4BF6C
:1050C000043B1E931E9BC8BF0026A3F10203D8BF5A
:1050D0000126032B00F2B280DFE803F084862D78EE
:1050E000139B129D1D4405F23243202B11DD029AC1
:1050F00005F21240C3F1400322FA00F009FA03F36B
:105100001843FDF70BFE0123A1F1F871013D109347
:1051100073E7C3F12000029B03FA00F0F1E70123DB
:10512000B2E70D90B1E7CBF1000308930023A8EBA1
:105130000B080C93BEE7012309931F9B002B40F340
:1051400080809946049300220421656A6A6001F117
:1051500014029A427AD96968204600F05BFD636ABE
:1051600028601B68B9F10E0F069300F2F080002E44
:1051700000F0ED80DDE90223BBF1000FCDE90E2345
:1051800079DD264A0BF00F034FEA2B1602EBC3031F
:10519000F006D3E90023CDE90A235CD5DDE90E0151
:1051A0001F4B0325D3E9082301F056FCCDE902018A
:1051B00006F00F061A4F002E4FD1DDE90A23DDE974
:1051C000020101F049FCCDE902016EE001230993DF
:1051D0001F9B5B4403F1010904934B46012BB8BFAD
:1051E0000123B0E70023A7E70023F0E7AFF3008037
:1051F00061436F63A787D23FB3C8608B288AC63FDD
:10520000FB799F501344D33F0000F07F847300006C
:105210007B730000777300000000F83FC07300004C
:10522000987300000126002309961E934FF0FF3368
:1052300000220493994612231F9284E701230993C5
:10524000F4E70123049399461A46F5E76A68490092
:1052500001326A607BE70225ACE7F10708D5DDE99A
:105260000A01D7E9002301F0CDFACDE90A010135A1
:10527000761008379FE700F0A580DDE90E01CBF13D
:105280000006A24B06F00F0203EBC203D3E9002392
:1052900001F0B8FA02250023CDE902019C4F361136
:1052A000002E40F08480002B8DD10D9B002B00F050
:1052B0008B80DDE90223CDE90A23DDE90A01002222
:1052C000944B01F011FD00287ED0B9F1000F7BD086
:1052D000049B002B37DDDDE90A0100228E4B01F033
:1052E00091FACDE90201049E0BF1FF370135284602
:1052F000FDF724FDDDE9022301F084FA874B00224B
:10530000FDF7D0FBCDE90A010B9BA3F150750B957E
:10531000002E5CD1DDE902010022814BFDF7C0FBCC
:105320000A9A2B46CDE9020101F0FCFC002840F06E
:10533000F782DDE902010A9A05F1004301F0D4FC8D
:10534000002840F0EB82DDE90E23CDE90223139B18
:10535000002BC0F25081BBF10E0F00F34C816B4B60
:1053600003EBCB03D3E90023CDE904231F9B002BE0
:1053700080F2DA80B9F1000F00F3D68040F0CD82E0
:10538000DDE904010022664B01F03CFADDE902236D
:1053900001F0BEFC4E464F46002840F0A482069B1A
:1053A000069A5D1C31230BF1010B13709FE2F2078B
:1053B00005D5D7E9002301F025FA01230135761040
:1053C00008376DE7022570E75F464E468FE7069A7D
:1053D0004E4B32441192099A711E002A48D003EBB9
:1053E000C103D3E9002300204E4901F035FBDDE97C
:1053F0000A23FDF755FBCDE90A01069DDDE902010F
:10540000FDF702FD0646FDF799FC02460B46DDE975
:105410000201FDF745FBDDE90A23303605F8016B93
:10542000CDE9020101F060FC002864D1DDE902232E
:1054300000203849FDF734FBDDE90A2301F054FC74
:10544000002840F0B980119B9D423FF47CAFDDE91C
:105450000A010022304B01F0D5F90022CDE90A0102
:10546000DDE902012C4B01F0CDF9CDE90201C5E7E0
:1054700003EBC101D1E90001DDE90A2301F0C2F922
:10548000CDE90A01069DDDE90201FDF7BDFC0646F6
:10549000FDF754FC02460B46DDE90201FDF700FB77
:1054A0003036119B05F8016BAB42CDE902014FF09C
:1054B000000224D11B4BDDE90A01FDF7F3FA024695
:1054C0000B46DDE9020101F02DFC002874D1DDE975
:1054D0000A2300201349FDF7E3FA02460B46DDE9F3
:1054E000020101F001FC00283FF42DAF15F8013C4A
:1054F0006A1E302B01D0BB464DE01546F6E7064B41
:1055000001F080F9CDE90201BDE700BFC0730000E2
:10551000987300000000F03F0000244000001C4091
:10552000000014400000E03F069DDDE90267DDE970
:1055300004233046394601F08FFAFDF765FC8046BA
:10554000FDF7FCFBDDE9042301F05CF902460B46A4
:1055500030463946FDF7A4FA08F1300605F8016B2C
:10556000069E0246AE1BB1450B4637D1FDF79AFAAF
:1055700006460F4602460B46DDE9040101F0B4FB86
:10558000C8B9DDE9040132463B4601F0A3FB10B186
:1055900018F0010F0FD15146204600F06FFB002399
:1055A000209A2B700BF101031360229B002B3FF418
:1055B000ECAC1D60E9E45F4615F8012C6B1E392A3E
:1055C00006D1069A9A4207D1302313701346013749
:1055D0001A7801321A708EE71D46EDE70022B54BAE
:1055E00001F010F90022002306460F4601F072FB7D
:1055F00000289CD0CFE7099A002A00F029811E9A42
:10560000012A00F30E81109A002A00F0068103F2AD
:1056100033434546089E079A01211A442046984480
:10562000079200F0CBFB0746002D0BDD079B002BFC
:1056300008DDAB42A8BF2B46079AA8EB0308ED1A7A
:10564000D31A0793089BFBB1099B002B00F0048140
:10565000002E11DD39463246204600F045FC524608
:1056600001460746204600F0B2FB51460A9020460C
:1056700000F004FB0A9B9A46089B9A1B04D05146F3
:10568000204600F031FC82460121204600F096FBC6
:105690000C9B0646002B40F3E1801A46014620464B
:1056A00000F022FC1E9B0646012B40F3DA8000230B
:1056B0000893336906EB8303186900F031FBC0F1EE
:1056C0002000079B184410F01F0000F0F080C0F18C
:1056D0002003042B40F3E280079BC0F11C008044B0
:1056E000054403440793B8F1000F05DD51464246D7
:1056F000204600F047FC8246079B002B05DD314623
:105700001A46204600F03EFC06460D9B002B00F09A
:10571000D3803146504600F086FC002880F2CC80D1
:10572000002351460A22204600F0BFFA099B0BF1E4
:10573000FF3B8246002B00F0A981002339460A2254
:10574000204600F0B2FA049B0746002B03DC1E9BA8
:10575000022B00F3B980002D05DD39462A4620468C
:1057600000F010FC0746089B002B00F010817968C0
:10577000204600F04FFA05463A6907F10C01023263
:1057800092000C30FDF704FF01222946204600F06C
:10579000F9FB07970746029BDDF8188003F0010329
:1057A000089331465046FFF71DFB0799054600F167
:1057B0003009504600F037FC3A4602903146204608
:1057C00000F04BFCC3680246002B40F0E28001462B
:1057D0000990504600F027FC0346099A11462046DE
:1057E000099300F04BFA099B002B40F0D4801E9ADD
:1057F000002A40F0D080089A002A40F0CC80B9F10D
:10580000390F00F0E880029B002B01DD05F1310922
:1058100008F1010588F800906BE0129BC3F1360394
:10582000F7E6089B09F1FF36B342B7BF089B9E1B02
:10583000F21A0C9BBFBF08969B180C930026B9F177
:10584000000FB9BFA8EB0905002345464B46E2E629
:10585000089E4546099FE7E6089A10E71E9B012B24
:1058600018DC029BB3B9039BC3F31303A3B9039BD7
:1058700023F000431B0D1B052BB1079B08F101080A
:1058800001330793012308930C9B002B7FF411AF86
:10589000012016E70023F6E7029BF4E73FF423AF6D
:1058A000079A1C331A4498441D4413461AE70346CA
:1058B000F6E700BF00002440B9F1000F33DC1E9B67
:1058C000022B30DDCDF81090049B63B931460522E0
:1058D000204600F0EAF901460646504600F0A3FBD8
:1058E00000283FF75CAD1F9B069D6FEA030B00236A
:1058F00007933146204600F0C1F9002F3FF44BAE2C
:10590000079B2BB1BB4203D01946204600F0B6F9E5
:105910003946204600F0B2F93DE600263746E2E778
:10592000BB4637463BE5099BCDF81090002B7FF432
:1059300012AF069D31465046FFF754FA069B00F120
:10594000300905F8019B049AEB1A9A4200F3818012
:10595000069B012AACBF9B1801339846002307938E
:1059600051460122204600F00DFB3146824600F0F0
:105970005AFB002834DC02D119F0010F30D1454622
:1059800015F8013C6A1E302BB3D11546F8E73846AE
:10599000FFE6012322E7029A002A04DB28D11E9A9F
:1059A00032BB089A22BB002B7FF732AF514601224F
:1059B000204600F0E7FA3146824600F034FB00282A
:1059C00005DC7FF425AF19F0010F3FF421AFB9F1E9
:1059D000390F7FF41BAF392308F1010808F8013CA7
:1059E000454615F8013C6A1E392B3AD001333FE099
:1059F000002B08F1010505DDB9F1390FEBD009F1F4
:105A0000010907E7069B049AEB1A9342A84605F89A
:105A1000019CA5D0514600230A22204600F045F9FA
:105A2000079B8246BB424FF00A024FF000030799E2
:105A3000204604D100F039F907900746B1E600F09E
:105A400034F9002307900A223946204600F02DF948
:105A5000F3E7514600230A22204600F026F9824649
:105A600068E7069B934205D13123069A0BF1010B9F
:105A700013703EE71546B4E7094BFFF7A3BA229B24
:105A8000002B7FF47DAA074BFFF79CBA049B002BE9
:105A90003FF74FAF1E9B022B7FF74BAF14E700BFC2
:105AA000767300007B7300000B7830B5722B13D037
:105AB000772B07D0612B13D14FF4027401234FF4DD
:105AC000847003E04FF4C0640123082011F8015FE3
:105AD00055B92343136030BD002404202346F5E765
