:100000000080001031130000611300006313000032
:100010006513000067130000691300000000000072
:100020000000000000000000000000006B13000052
:100030006D130000000000006F130000711300003A
:100040007313000073130000731300007313000098
:100050007313000073130000731300007313000088
:100060007313000073130000731300007313000078
:100070007313000073130000731300007313000068
:100080007313000073130000731300007313000058
:100090007313000073130000731300007313000048
:1000A0007313000073130000731300007313000038
:1000B0007313000073130000731300007313000028
:1000C00073130000731300007313000010B5054C88
:1000D000237833B9044B13B10448AFF300800123F4
:1000E000237010BD4401001000000000BC1B000084
:1000F0000C4B43B10C4810B50C49AFF300800C48D1
:10010000036823B910BD0A48036833B97047094B27
:10011000002BF7D0BDE810401847064B002BF5D058
:10012000184700BF00000000BC1B00004801001081
:100130004401001000000000436811B1C268136060
:1001400070470269FBE70368184708B10B68036052
:1001500070477047044843691A6843681A420CBFE5
:1001600001210021FFF7E8BF9001001038B50446D7
:100170000D461822002101F0BDFA2046294600F064
:1001800043F9204638BD38B50D46044600F01CFA48
:100190006B6920461A686B681A4214BF012100215E
:1001A000FFF7CAFF00F026FA204638BD044843692D
:1001B0001A6843681A420CBF01210021FFF7BCBF37
:1001C00060010010044843691A6843681A420CBF72
:1001D00001210021FFF7B0BF78010010C36810B5FE
:1001E00004460BB19B689847204610BD38B50546BC
:1001F0000446064B45F8183B00F0DCFE2846FFF7A6
:10020000EDFF204600F068FF204638BD381B000097
:1002100010B50446FFF7EAFF204601F086F82046B5
:1002200010BD38B5CB6804460D460BB15B689847E6
:10023000EB682046E36038BD00B5224889B000F085
:10024000DAFE214800F0D7FE204B69460093204B90
:1002500004A80393FFF7E5FF1E48FFF7BFFF04A9BB
:100260001C48FFF7DEFF1C491C4800F08FFE04A865
:10027000FFF7B4FF6846FFF7B1FF19491948CB688B
:100280004A68104D1A60FFF77EFF01461648FFF7D7
:100290007AFF0D4C0B4800F0DAFEB0F57A7F04DBF4
:1002A000FFF784FF284600F0DAFE074800F0CFFE93
:1002B000B0F5FA6FEEDBFFF785FF204600F0CFFECA
:1002C000E8E700BFD0010010E00100105501000078
:1002D000A4190000C0010010C0C62D00A801001024
:1002E00090010010780100106001001010B5104955
:1002F0001048FFF73BFF10491048FFF737FF104940
:100300001048FFF733FF104C104800F0B6FE1048BD
:1003100000F0B3FE204600F0C1FE0E4B20462360E5
:1003200000230D4A63620D49BDE8104000F0EABFAA
:1003300032C009206001001034C00920780100108B
:1003400035C0092090010010A8010010D001001054
:10035000E0010010381B0000C8000010ED01000093
:100360000748084A08B5121A002101F0C3F900F045
:1003700082FF01F093F900F085FF00F0C5FF00BF98
:10038000440100100804001008B5012000F0BCFF73
:1003900008B5FFF7F9FF70B50E460446154600F0A4
:1003A0009DF9013609D02046002100F0B1F9294617
:1003B0002046BDE8704000F0A8B970BD38B50446CD
:1003C0000D4643685AB1C26820461360012100F00F
:1003D0009FF929462046BDE8384000F096B90269E9
:1003E000F2E70322FFF7D7BF70B50E460446154665
:1003F00000F074F9013606D02A462046BDE8704068
:100400000221FFF7DBBF70BD0022FFF7EDBF000048
:1004100000487047B0190000014800F00CB800BF58
:10042000B019000038B504460D4603681B689847AC
:1004300063681D6038BD036870B5DB680446984783
:1004400063685A6823681AB99B68BDE8704018470A
:100450005B68156898476368281A00285A6807DCA3
:10046000916859601B68002BEAD050689847E7E70D
:10047000236810681B69BDE870401847F8B5064648
:100480000C461F46154600F09FF80021706884E86E
:10049000A000436853B9A36079B9336844601B690D
:1004A00028469847BDE8F84000F0A4B81A68AA1A90
:1004B000002AF0DB19469B68ECE78C60F2E738B560
:1004C00005460C4600F080F86A685368A3420ED1D6
:1004D0009B6853602A682BB993689847BDE83840F9
:1004E00000F088B8126918689047F7E71346002BA8
:1004F000F4D09A689442F9D1A2689A60EEE7036852
:100500005B68184710B5044601300DD110BD9C4200
:1005100009D12046896800F073FC2046BDE81040F0
:10052000022100F086BC0C310B685A1CEFD1024846
:10053000BDE8104000F086B8FD190000884208B5FB
:1005400008D0431C06D0013106D0044800F07AF8E8
:100550004FF0FF31084608BD0146FBE7CC1900000B
:100560000B685A1C01D118467047834201D1486874
:1005700070470C31F4E70000421C10B5044607D068
:10058000FFF7EEFF431C044602D1024800F05AF880
:10059000204610BDDD19000038B5044600F00AFC05
:1005A000054600F007FC401BA042FAD338BD4FF4CB
:1005B0007A735843FFF7F0BF00F03CB8EFF31080B8
:1005C000C04300F00100704708B5FFF7F7FF72B6AF
:1005D000064B1A6822B980F00100054AC0B21070BB
:1005E0001A681A6801321A6008BD00BFFC010010C9
:1005F000F801001008B5074B1A6852B1FFF7DEFF8B
:100600001A68013A1A601B681BB9034B1B7803B9BF
:1006100062B608BDFC010010F801001030B585B0CD
:100620006D46182420462946ABBE0446204605B038
:1006300030BD0000024B186800F00100704700BF99
:10064000F0ED00E00FB4012008B500F05DFE000001
:1006500000B599B0FFF7B8FF17496846FFF7D4FE19
:10066000164906A8FFF7D0FE15490CA8FFF7CCFEE7
:10067000144912A8FFF7C8FE019A039B96201A603E
:10068000079A0A9B1A600D9A109B1A60139A159B81
:100690001A60FFF78CFF019A049B96201A60079A54
:1006A000099B1A600D9A0F9B1A60139A169B1A6089
:1006B000FFF77DFFE0E700BF32C0092034C009200A
:1006C00035C0092037C0092010B50021044600F0CC
:1006D00097FB012004F01F04A04010BD38B505466B
:1006E0004B1C0C4629600FD00846FFF7EDFF24F0A5
:1006F0001F0404F11803EB6004F11C032B6104F1E7
:10070000140368606B61AC6038BD006800F091BB99
:1007100011B1012907D0704782684168136823EA44
:100720000103136070478268416813680B43F8E760
:10073000012810B408D0022808D010BC70475068B7
:1007400020F00100506010E003460EE038230F480F
:1007500003FB01035868013006D018699C680460E7
:1007600093F83630002BEAD0002338225143074853
:10077000421840580028E0D01BB992F83620002AD1
:10078000DBD0034A1946126810BC1047080200105B
:1007900000020010034A00219068C0F34200FFF7F6
:1007A000C7BF00BF00C00040034A01219068C0F3EA
:1007B0004200FFF7BDBF00BF00000140034A022115
:1007C0009068C0F34200FFF7B3BF00BF008009404C
:1007D000034A03219068C0F34200FFF7A9BF00BF9E
:1007E00000C0094070B50B46066829498E4222D0E8
:1007F00006DCA1F580418E420CD000210C460BE0B6
:1008000024498E421AD001F580418E42F5D1224909
:10081000082401E0052421499AB10125726805FAEE
:1008200003F313437360204600F030FB1C4B05FAC2
:1008300004F41C6070BD1B490624EDE71A49072427
:10084000EAE7012B0AD042683820184900FB02125F
:1008500092F8361092F83520D14217D1012202FACF
:1008600003F0B3FA83F371685B0921EA0001716058
:10087000716802FA03F30B4208D1094B02FA04F43F
:10088000C3F88040BFF34F8FBFF36F8F70BD00BFC1
:100890000000014000800940D107000095070000DA
:1008A00000E100E0A9070000BD07000008020010F9
:1008B0002DE9F04F644B046887B09C4200F08D80B6
:1008C0006ADCA3F580439C4279D0604B0801D3F8E1
:1008D00000C0BCFBF0F293B200FB12C2002A00F091
:1008E000AA800125E6469946AB464FF0000A0191E1
:1008F000039100264FEA4E030493DDF804804FEA8B
:100900008E03EFB20593F3B20093049B002BABBFB1
:10091000059BB3FBF8F3B3FBF8F31B09A8BF5B0916
:100920000133C3F34F03002B00F0888016B1012B75
:1009300008BF0223A8195843C000BEFBF0F00130E5
:10094000C1EB50000028B8BF40420290029A0398C1
:10095000824262DA91425AD10F2D07D1BB469946A5
:10096000DDF800A05F464B46CDF800A0217B41F0AA
:1009700080012173C3F30721DBB221712370009B37
:1009800043EA0712D2B284F82820237B03F07F03C6
:10099000237307B0BDE8F08F2D4B9C4229D003F59F
:1009A00080439C4291D12B4BD3F8AC2122F44022BE
:1009B000C3F8AC21D3F8AC2142F4802224E0254BCB
:1009C000D3F8A82122F0C002C3F8A821D3F8A821A7
:1009D00042F04002C3F8A82177E71E4BD3F8A821C4
:1009E00022F44072C3F8A821D3F8A82142F48072FF
:1009F000F0E7184BD3F8AC2122F44032C3F8AC2115
:100A0000D3F8AC2142F48032C3F8AC215DE7BB4699
:100A10009946029ADDF800A003920136F3B2BB4278
:100A20008844FFF470AF0F2D9CD0019B01350B441F
:100A3000E64401935DE70127009297E7002E0CBF83
:100A40000123022376E700BF00000140CC00001024
:100A50000080094000C00F4010B50268137DDB071D
:100A6000FCD5382443680848117804FB0303586810
:100A7000C9B2013006D058699B680360536843F0DF
:100A800001035360084610BD080200103821114AC6
:100A9000436801FB0323DA69013209D01A6B1B6A30
:100AA00012681A4214D10368187DC0F38010704791
:100AB0000268127D920604D50022012083F83420BA
:100AC000704793F834000F288CBF00200120704736
:100AD000002070470802001038B504460D46204635
:100AE000FFF7D4FF0028FAD038212368EDB21D703B
:100AF0006368044A01FB032393F83420013283F82E
:100B0000342038BD080200102DE9F84F9A463C4CBD
:100B100003680546A34218BF0024894690464768EB
:100B20001CB1237C03F03F03237438234FF0FF32C2
:100B3000344E284603FB0763DA615A60002283F8CB
:100B400035201146FFF74EFEB9F1000F55D02E4962
:100B50004046FFF705FD2D4983465046FFF700FD4F
:100B6000A9F10203012B1BD8BAF1FF3F0BD0244B94
:100B700098420DD164B1237C244943F0800323744F
:100B80005046FFF7BFFCB9F1030F0CD0BDE8F88F5A
:100B9000382000FB076051461C30FFF722FCF2E7CB
:100BA000B9F1010F29D1B8F1FF3F01D1BDE8F88FAC
:100BB00007222B681A72124B9B450AD14CB1237C39
:100BC000404643F0400323740F49BDE8F84FFFF758
:100BD00099BC382404FB0760414600220430FFF72B
:100BE00003FC01226B68284604FB036686F8352067
:100BF0000021BDE8F84FFFF7F5BDBDE8F88F00BF55
:100C00000000014008020010341A0000101A000011
:100C10002DE9F0410F460546464938461646FFF78E
:100C2000ABFC454904463046FFF7A6FC014620468A
:100C3000FFF784FC414B0446984228605DD047D8BA
:100C4000A3F58043984250D001234FF0000823724F
:100C50004FF416512846C4F80480FFF729FE0322FA
:100C60002B6834491A733846FFF74CFC324930463A
:100C7000FFF748FC7A1C03D04146384600F0D9F80B
:100C8000731C03D00021304600F0D3F82B4B9C425C
:100C90004BD03ED8A3F580439C4243D038216A68AC
:100CA000274B284601FB02324FF0FF3300215360EF
:100CB000D3611A46FFF728FF224B9C4206D101223E
:100CC000214B69681A602868204B03C3BDE8F08196
:100CD0001F4B984217D003F580439842B4D11D4A68
:100CE000D2F8C43043F0007304E01A4AD2F8C4309A
:100CF00043F00803C2F8C430A6E7164AD2F8C4305D
:100D000043F01003F6E7134AD2F8C43043F080737F
:100D1000F0E70F4B9C420AD003F580439C42BDD1C3
:100D2000032300E000236B60B8E70123FBE7022305
:100D3000F9E700BFC41A0000581A00000000014083
:100D40000802001000C0004004020010FC03001064
:100D50000080094000C00F4008B5104B1868E0B98A
:100D600001210F4A1960D2F8C43043F40003C2F8DD
:100D7000C430A2F5D022106702200A4B1B685060D5
:100D80000948B3FBF0F3013BD360042051600749ED
:100D900000F07CF81022064B1A6008BDE802001033
:100DA00000C00F40CC00001000093D0019040000F5
:100DB00000E100E008B5044B1B680BB9FFF7CCFF5E
:100DC000024B986808BD00BFE802001000400940CF
:100DD000034B98615A6942F001025A61704700BFA3
:100DE00000400940024A536923F0010353617047F0
:100DF000004009400122014B1A6070470040094041
:100E000010B5032400F16040A0F51C204300000948
:100E1000800000F1804000F53030026803F01E03CE
:100E20009C4022EA0402026002689940114301607A
:100E300010BD00F16040A0F51C2043099B0003F1A8
:100E4000804303F5303330B500F01F029C6EC1F3D0
:100E5000800505FA02F224EA02049C669C6E224395
:100E60009A6695B9032443000009800000F1804090
:100E700000F53030026C03F01E039C4022EA0402AD
:100E80000264026C99401143016430BD30B50C4CD2
:100E9000A268A4681346B4F1805F0CD2131F094CFA
:100EA000094A53F8045F42F8045FA242F9D14FF0B7
:100EB0008053034A9360103043F8201030BD00BFC8
:100EC00000ED00E0C0000010FCFFFF0F2022264BC9
:100ED000C3F8A021D3F8A021920603D5D3F8A0210E
:100EE0005006FBD50222C3F8042100220120C3F8DA
:100EF000A821C3F8AC210B22C3F80C01AA21C3F826
:100F000084205522C3F88C10C3F88C20C3F88000CD
:100F1000C3F88C10C3F88C20134B1A46D3F88810F2
:100F20004901FBD50321C3F88010AA21C3F88C1016
:100F30005521C3F88C10D2F8883013F0407FFAD0D6
:100F40000523C2F80831094BC2F8C4300023C2F8A7
:100F5000C831136823F4704323F03A0343F4405339
:100F600043F03A031360704700C00F40DE87280447
:100F700010B5044643694168194400F0A3F8636A58
:100F800004F118001B68BDE81040184738B5044646
:100F90000D46FFF719FB204600F09AF865612069BD
:100FA000FFF7ADFA2918204600F08CF8BDE838406C
:100FB000FFF720BB7FB506466D46FFF705FB3046C1
:100FC00000F086F8002306F11804AC4203930BD01E
:100FD0002046FFF703F93CB1039B1BB15B686946F0
:100FE00020469847039B73622846FFF7F7F8FFF700
:100FF00001FB04B070BD10B50446FFF7E5FA2368A5
:101000002BB9E068FFF77BFA012360602360BDE83D
:101010001040FFF7EFBA38B50546FFF7D5FA2C6850
:1010200024B1E868FFF76BFA6C68041BFFF7E2FA7B
:10103000204638BD38B50546FFF7C6FA2846AC68E5
:10104000FFF7E9FF0444FFF7D5FA204638BD08B59D
:10105000FFF7F0FF4FF47A7390FBF3F008BD10B583
:101060000446FFF7B1FAE068FFF749FA0023606031
:10107000A360BDE81040FFF7BDBA002310B50360C0
:10108000436083600446FFF7C3F9E0602046FFF742
:10109000E6FF204610BD03689B681847074B10B554
:1010A0000360002343608360C3600446FFF7B0F928
:1010B00003492061FFF7B6F9204610BD4C1B000024
:1010C0009710000003460A46011D0069FFF7D6B9D4
:1010D000011D0069FFF7F3B910B50446024B036028
:1010E000FFF7F6FF204610BD4C1B000000F056BB7A
:1010F00000F008BB08B5084B1B685BB907490848F6
:10110000084AFFF785FD4FF41651BDE80840044832
:10111000FFF7CEBB08BD00BF0402001002C00920CB
:10112000FC03001003C0092070470000022810B51E
:10113000044601DC002010BD00F01CF90923002248
:101140000360094B033C53F8240043F8242040B1CA
:1011500003681B699847041EECDA00F00BF964423F
:1011600004604FF0FF3010BDEC020010F8B50546EA
:101170000E46144600F0FEF80923022D03600FDC32
:10118000124B1B680BB9FFF7B5FF35463719104EE8
:10119000BD4215D015F8011B3046FFF79DFCF7E75F
:1011A0000C4B033D53F8250060B103682246DB6811
:1011B00031469847041E03DA00F0DCF8634203600E
:1011C0002046F8BD4FF0FF34FAE700BF04020010DC
:1011D000FC030010EC02001070B504460D461646E4
:1011E00000F0C8F80923022C03600BDC0F4B1B68CE
:1011F0000BB9FFF77FFF0E48FFF72EFC0124287084
:10120000204670BD0B4B033C53F8240058B10368D3
:1012100032469B6829469847041EF1DA00F0AAF886
:1012200063420360ECE74FF0FF34E9E7040200108B
:10123000FC030010EC02001070B504460D46164683
:1012400000F098F80923022C03600BDD084B033CE7
:1012500053F8240040B1036832462946BDE8704087
:10126000DB691847002070BD4FF0FF3070BD00BF34
:10127000EC020010704708B5FFF756FFFFF7FAFFC2
:1012800008BD704708B5FFF7FCFFBDE80840FEF752
:10129000D3BF00000C4A10B513681844EFF308815F
:1012A000884205D30C22094B4FF0FF301A6010BD65
:1012B00007490C6824B10749096821448842F1D2E2
:1012C0001060184610BD00BFD000001004040010CC
:1012D000EC030010F0030010094C08B52368054624
:1012E000986800F0FFF82368D86800F0FBF8FFF773
:1012F00063F908B1FFF792F90DB1FFF7A9F9FEE71D
:10130000D40000100120704708B5FFF7E5FF7047D3
:10131000704708B5FFF7FBFF08BD08B5FFF7F8FFFA
:1013200008BD08B100F0DEB97047FFF7FABF000052
:101330000649074A074B9A42BEBF51F8040B42F8D0
:10134000040BF8E70448804704480047C01B00002E
:10135000C800001044010010CD0E00006103000021
:10136000FEE7FEE7FEE7FEE7FEE7FEE7FEE7FEE755
:10137000FEE7FEE7014B1868704700BFD40000107D
:101380008A892DE9F041054610070C465AD44B686E
:10139000002B05DC0B6C002B02DC0020BDE8F0818B
:1013A000E66A002EF9D0002312F480522F682B60D9
:1013B00033D0606DA3895A0705D56368C01A636B83
:1013C0000BB1236CC01A00230246E66A216A284644
:1013D000B047431CA38906D129681D294BD82B4A45
:1013E000CA40D60747D5002262602269D90422602C
:1013F00004D5421C01D12B6803B96065616B2F6075
:101400000029CAD004F14403994202D02846FFF7CC
:101410006FFE00206063BDE8F081216A0123284649
:10142000B047411CC6D12B68002BC3D01D2B01D067
:10143000162B01D12F60B0E7A38943F04003A381AD
:10144000BDE8F0810F69002FA7D0930718BF0023D4
:101450000E6808BF4B69A6EB07080F608B60B8F1F8
:10146000000F9ADD43463A46216A2846A66AB047ED
:10147000002807DCA38943F04003A3814FF0FF302D
:10148000BDE8F0810744A8EB0008E8E70100402030
:1014900038B50B6905460C46DBB118B183690BB949
:1014A00000F072F80C4B9C4209D16C68B4F90C3016
:1014B0007BB121462846BDE83840FFF761BF074BA6
:1014C0009C4201D1AC68F1E7054B9C4208BFEC6837
:1014D000ECE7002038BD00BF781B0000981B00001F
:1014E000581B0000014620B9044B0549186800F05C
:1014F000B7B8044B1868FFF7CBBF00BFB81B00009C
:1015000091140000D4000010014900F0A9B800BFF8
:1015100091140000002310B504460360436083600B
:1015200081814366C2810361436183611946082258
:101530005C3000F0DFF8054B24626362044BA36269
:10154000044BE362044B236310BD00BF7918000015
:101550009B180000D3180000F718000070B568252C
:101560004A1E55430E4605F17401FFF7BFFD0446C0
:1015700040B1002180E842000C30A06005F1680213
:1015800000F0B8F8204670BD836910B5044633BB3F
:101590008364C3640365124B124A1B6882629842DB
:1015A00004BF0123836100F01FF86060204600F053
:1015B0001BF8A060204600F017F80022E06004212C
:1015C0006068FFF7A7FF01220921A068FFF7A2FFCB
:1015D00002221221E068FFF79DFF0123A36110BDE5
:1015E000B81B000009150000F8B51C4B07461E6823
:1015F000B36913B93046FFF7C7FF4836B46873685C
:10160000013B03D5336833B13668F7E7B4F90C50C2
:101610006DB16834F4E704213846FFF79FFF30606E
:101620000028F1D10C2304463B602046F8BD4FF65C
:10163000FF73E38101236566A3812560A560656072
:1016400025616561A5610822294604F15C0000F06E
:1016500051F86563A563A564E564E6E7B81B00007F
:101660002DE9F84380468946002600F1480414B964
:101670003046BDE8F883A5686768013F01D5246856
:10168000F5E7AB89012B07D9B5F90E30013303D04B
:1016900029464046C84706436835EEE770B5002541
:1016A0000C4E0D4CA41BA410A54209D100F06EF9FC
:1016B00000250A4E0A4CA41BA410A54205D170BDFA
:1016C00056F8253098470135EEE756F8253098470B
:1016D0000135F2E738010010380100103801001020
:1016E00040010010024B01461868FFF701BD00BF22
:1016F000D400001003460244934200D1704703F81F
:10170000011BF9E738B50546002943D051F8043CE0
:101710000C1F002BB8BFE418FFF7FBFD1E4A13682F
:10172000104633B9636014602846BDE83840FFF7BF
:10173000F4BDA3420BD921686218934201BF1A6815
:101740005B685218226063600460EDE713465A68D4
:101750000AB1A242FAD919685818A0420BD12068E0
:101760000144581882421960DED110685268014461
:1017700019605A60D8E702D90C232B60D4E720689F
:1017800021188A4201BF11685268091821606260FD
:101790005C60C9E738BD00BFF403001070B5CD1C14
:1017A00025F0030508350C2D38BF0C25002D064605
:1017B00001DBA94203D90C233360002070BDFFF781
:1017C000A8FD234A1468214691B9224C23681BB90D
:1017D000304600F041F820602946304600F03CF8E1
:1017E000431C26D10C2330463360FFF796FDE4E717
:1017F0000B685B1B1AD40B2B0FD90B60CC18CD5088
:101800003046FFF78AFD04F10B00231D20F007008E
:10181000C31A1BD05A42E25070BD8C420BBF6368A2
:101820004B681360636018BF0C46E9E70C464968D3
:10183000CAE7C41C24F00304A04205D0211A304694
:1018400000F00AF80130CDD02560D9E770BD00BFA7
:10185000F4030010F803001038B50023054C0546CA
:1018600008462360FFF716FD431C02D1236803B12D
:101870002B6038BD0404001010B50C46B1F90E10F1
:1018800000F072F80028ABBF636DA3891B1823F426
:101890008053ACBF6365A38110BD2DE9F0411F46A5
:1018A0008B890546DB050C46164605D5022300222A
:1018B000B1F90E1000F046F8A389324623F48053A4
:1018C000A381B4F90E103B462846BDE8F04100F074
:1018D00017B810B50C46B1F90E1000F033F8431CE0
:1018E000A38915BF606523F4805343F48053A3811B
:1018F00018BFA38110BDB1F90E1000F013B800009D
:1019000038B50546084611460022054C22601A46A5
:10191000FFF72CFC431C02D1236803B12B6038BDB8
:101920000404001038B50023054C05460846236022
:10193000FFF7FCFB431C02D1236803B12B6038BDC9
:101940000404001038B50546084611460022054C2F
:1019500022601A46FFF770FC431C02D1236803B1D2
:101960002B6038BD0404001038B505460846114602
:101970000022054C22601A46FFF72EFC431C02D1C0
:10198000236803B12B6038BD04040010F8B500BF14
:10199000F8BC08BC9E467047F8B500BFF8BC08BC50
:1019A0009E467047470100004B01000053010000B4
:1019B000B8190000F0010010590D0000B50D00002D
:1019C000E50D0000F50D0000D10D000070696E6D91
:1019D0006170206D69732D6D617463680070696E4C
:1019E0006D6170206E6F7420666F756E6420666F17
:1019F00072207065726970686572616C00636F75E2
:101A00006C64206E6F742070696E6F7574000000D6
:101A100011C00920000001400100000042C009205F
:101A20000000014002000000FFFFFFFFFFFFFFFF7B
:101A30000000000016C00920000001400100000065
:101A400047C009200000014002000000FFFFFFFF27
:101A5000FFFFFFFF0000000001C0092000C0094097
:101A60000200000003C0092000C000400100000087
:101A70000BC00920008009400100000010C00920AF
:101A800000000140010000001AC0092000C0094008
:101A90000300000041C009200000014002000000D6
:101AA00049C0092000800940020000009DC00920B3
:101AB00000C0094003000000FFFFFFFFFFFFFFFF22
:101AC0000000000000C0092000C009400200000022
:101AD00002C0092000C00040010000000AC0092027
:101AE00000800940010000000FC0092000000140F3
:101AF0000100000019C0092000C0094003000000D7
:101B000040C00920000001400200000048C0092038
:101B100000800940020000009CC0092000C009406C
:101B200003000000FFFFFFFFFFFFFFFF00000000BA
:101B30000000000000000000ED01000011020000A4
:101B4000710F000000000000000000000000000015
:101B500000000000910300000000000000000000F1
:101B60000000000000000000000000000000000075
:101B70000000000000000000000000000000000065
:101B80000000000000000000000000000000000055
:101B90000000000000000000000000000000000045
:101BA0000000000000000000000000000000000035
:101BB0000000000000000000D8000010000000003D
:101BC0000000000000D8B80508040010D80000107C
:101BD00000000000781B0000981B0000581B00004C
:101BE00000000000000000000000000000000000F5
:101BF00000000000000000000000000000000000E5
:101C000000000000000000000000000000000000D4
:101C100000000000000000000000000000000000C4
:101C200000000000000000000000000000000000B4
:0C1C3000F1000000ED020000CD000000FB
:0400000300001331B5
:00000001FF
