:1000000000800010551800008518000087180000B7
:10001000891800008B1800008D18000000000000F7
:100020000000000000000000000000008F18000029
:1000300091180000000000009318000095180000BF
:1000400097180000971800009718000097180000F4
:1000500097180000971800009718000097180000E4
:1000600097180000971800009718000097180000D4
:1000700097180000971800009718000097180000C4
:1000800097180000971800009718000097180000B4
:1000900097180000971800009718000097180000A4
:1000A0009718000097180000971800009718000094
:1000B0009718000097180000971800009718000084
:1000C00097180000971800009718000010B5054C0D
:1000D000237833B9044B13B10448AFF300800123F4
:1000E000237010BDB002001000000000F0410000BD
:1000F0000C4B43B10C4810B50C49AFF300800C48D1
:10010000036823B910BD0A48036833B97047094B27
:10011000002BF7D0BDE810401847064B002BF5D058
:10012000184700BF00000000F0410000B4020010BA
:10013000B00200100000000070B50546094B0646ED
:1001400045F80C3B5DB100F12C04AC4207D0103CEB
:10015000E368002BF9D09B6820469847F5E73046C6
:1001600070BD00BF483F000010B50446054B03605A
:10017000203340F8303F00F08FFF2046FFF7DCFFD0
:10018000204610BD1C3E0000A0F13000ECE700BF8F
:1001900010B50446FFF7D0FF204601F08CFA204648
:1001A00010BD00002DE9F04700254FF07C56184F98
:1001B000DFF870800324DFF87090013500210123FF
:1001C0000A22A14202DA53430131FAE795FBF3F325
:1001D00093FBF2FA02FB1A3A57F82410404600F05B
:1001E0004BFA59F82A100B4800F046FA52460A49D1
:1001F0000A4800F063FF14F1FF34DFD22A460849B1
:10020000064800F05BFF304600F030F9D2E700BF4F
:10021000503C0000E0020010883C00002403001065
:100220008C3C0000CC020010603C000010B504467D
:10023000FFF79AFF204601F03EFA204610BDA0F1DC
:100240003000F3E710B500F02BF9104C0123104AF1
:100250000021104800F0E8F900F038F900F020F92A
:1002600001230D4A00210D4800F0DEF900F02EF9BF
:100270000B4A0C4920464FF4E13300F051FE204672
:10028000BDE81040084A094901F0EAB9F40200103B
:1002900082808000CC02001041030701E0020010C0
:1002A00003C0092002C00920C80000106901000035
:1002B0000748084A08B5121A002101F0DEFF01F0D4
:1002C00089F901F029FF01F08CF901F0CBF900BFA9
:1002D000B002001068050010022801DD01F02CB901
:1002E0000120704708B5012001F0BCF908B5FFF7FF
:1002F000F9FF70B50E460446154600F05BF901366D
:1003000009D02046002100F06FF929462046BDE8BB
:10031000704000F066B970BD38B504460D464368BC
:100320005AB1C26820461360012100F05DF92946E8
:100330002046BDE8384000F054B90269F2E70322D4
:10034000FFF7D7BF70B50E460446154600F032F9E8
:10035000013606D02A462046BDE870400221FFF74C
:10036000DBBF70BD0022FFF7EDBF0000014800F0C9
:1003700003B800BF943C0000036870B5DB68044616
:10038000984763685A6823681AB99B68BDE870404B
:1003900018475B68156898476368281A00285A68E8
:1003A00007DC916859601B68002BEAD050689847B9
:1003B000E7E7236810681B69BDE870401847000034
:1003C00010B5044601300DD110BD9C4209D1204624
:1003D000896800F0CFFC2046BDE81040022100F003
:1003E000E2BC0C310B685A1CEFD10248BDE810404A
:1003F00000F094B8E13C0000884208B508D0431CE6
:1004000006D0013106D0044800F088F84FF0FF31E3
:10041000084608BD0146FBE7B03C00000B685A1CCB
:1004200001D118467047834201D1486870470C31AA
:10043000F4E70000421C10B5044607D0FFF7EEFFBA
:10044000431C044602D1024800F068F8204610BD63
:10045000C13C000038B5044600F066FC054600F0DB
:1004600063FC401BA042FAD338BD000008B5044924
:1004700001F012FA01F060FBBDE80840FFF7EABFA7
:10048000002474494FF47A735843FFF7E3BF00F038
:100490003DB8EFF31080C04300F00100704700004A
:1004A00008B5FFF7F6FF72B6064B1A6822B980F05E
:1004B0000100054AC0B210701A681A6801321A6049
:1004C00008BD00BF480300104403001008B5074BE7
:1004D0001A6852B1FFF7DDFF1A68013A1A601B680B
:1004E0001BB9034B1B7803B962B608BD4803001063
:1004F0004403001030B585B06D46182420462946C7
:10050000ABBE0446204605B030BD0000024B186863
:1005100000F00100704700BFF0ED00E00FB40120D3
:1005200008B501F09FF8000000B599B0FFF7B8FFDB
:1005300017496846FFF716FF164906A8FFF712FF8E
:1005400015490CA8FFF70EFF144912A8FFF70AFF80
:10055000019A039B96201A60079A0A9B1A600D9ACB
:10056000109B1A60139A159B1A60FFF78BFF019A74
:10057000049B96201A60079A099B1A600D9A0F9B9C
:100580001A60139A169B1A60FFF77CFFE0E700BF22
:1005900032C0092034C0092035C0092037C00920E5
:1005A00010B50021044600F0E5FB012004F01F0413
:1005B000A04010BD38B505464B1C0C4629600FD035
:1005C0000846FFF7EDFF24F01F0404F11803EB6069
:1005D00004F11C032B6104F1140368606B61AC60CF
:1005E00038BD006800F0DFBB11B1012907D07047AA
:1005F00082684168136823EA0103136070478268C8
:10060000416813680B43F8E711B1012907D070471F
:1006100002680169136823EA0103136070470268E6
:10062000016913680B43F8E7F8B504460025012774
:1006300002614A0102F1005202F51C221E4602F13B
:1006400014030173436083600260236907FA05F2B3
:100650001A4208D0207B45EA401000F1005000F516
:100660001C20FFF79DFF0135202DEED1314620469D
:10067000BDE8F840FFF7C8BF836842681B6800699F
:10068000594001405940116070470000012810B4E2
:1006900008D0022808D010BC7047506820F0010034
:1006A000506010E003460EE038230F4803FB0103BF
:1006B0005868013006D018699C68046093F8363099
:1006C000002BEAD0002338225143074842184058F3
:1006D0000028E0D01BB992F83620002ADBD0034A6C
:1006E0001946126810BC1047540300104C03001048
:1006F000034A00219068C0F34200FFF7C7BF00BF64
:1007000000C00040034A01219068C0F34200FFF797
:10071000BDBF00BF00000140034A02219068C0F342
:100720004200FFF7B3BF00BF00800940034A032126
:100730009068C0F34200FFF7A9BF00BF00C00940A6
:1007400070B50B46066829498E4222D006DCA1F519
:1007500080418E420CD000210C460BE024498E4291
:100760001AD001F580418E42F5D12249082401E0DA
:10077000052421499AB10125726805FA03F3134350
:100780007360204600F03CFB1C4B05FA04F41C602F
:1007900070BD1B490624EDE71A490724EAE7012B3F
:1007A0000AD042683820184900FB021292F836102D
:1007B00092F83520D14217D1012202FA03F0B3FAA0
:1007C00083F371685B0921EA00017160716802FAC4
:1007D00003F30B4208D1094B02FA04F4C3F880403A
:1007E000BFF34F8FBFF36F8F70BD00BF000001409C
:1007F000008009402D070000F106000000E100E044
:100800000507000019070000540300102DE9F04F00
:10081000644B046887B09C4200F08D806ADCA3F5CD
:1008200080439C4279D0604B0801D3F800C0BCFBE8
:10083000F0F293B200FB12C2002A00F0AA80012558
:10084000E6469946AB464FF0000A01910391002617
:100850004FEA4E030493DDF804804FEA8E03EFB2B3
:100860000593F3B20093049B002BABBF059BB3FB36
:10087000F8F3B3FBF8F31B09A8BF5B090133C3F31B
:100880004F03002B00F0888016B1012B08BF022314
:10089000A8195843C000BEFBF0F00130C1EB500076
:1008A0000028B8BF40420290029A0398824262DA5E
:1008B00091425AD10F2D07D1BB469946DDF800A0D1
:1008C0005F464B46CDF800A0217B41F080012173AB
:1008D000C3F30721DBB221712370009B43EA0712A7
:1008E000D2B284F82820237B03F07F03237307B060
:1008F000BDE8F08F2D4B9C4229D003F580439C42EC
:1009000091D12B4BD3F8AC2122F44022C3F8AC2177
:10091000D3F8AC2142F4802224E0254BD3F8A8215F
:1009200022F0C002C3F8A821D3F8A82142F0400267
:10093000C3F8A82177E71E4BD3F8A82122F4407210
:10094000C3F8A821D3F8A82142F48072F0E7184B2D
:10095000D3F8AC2122F44032C3F8AC21D3F8AC2157
:1009600042F48032C3F8AC215DE7BB469946029A57
:10097000DDF800A003920136F3B2BB428844FFF4D5
:1009800070AF0F2D9CD0019B01350B44E6440193C1
:100990005DE70127009297E7002E0CBF0123022399
:1009A00076E700BF00000140CC0000100080094045
:1009B00000C00F40034B1960382341684B43024984
:1009C000CA5070474C0300105403001010B5026861
:1009D000137DDB07FCD5382443680848117804FBF5
:1009E00003035868C9B2013006D058699B68036098
:1009F000536843F001035360084610BD54030010D0
:100A00003821114A436801FB0323DA69013209D016
:100A10001A6B1B6A12681A4214D10368187DC0F35E
:100A2000801070470268127D920604D500220120D2
:100A300083F83420704793F834000F288CBF0020CF
:100A400001207047002070475403001038B5044659
:100A50000D462046FFF7D4FF0028FAD0382123683E
:100A6000EDB21D706368044A01FB032393F8342040
:100A7000013283F8342038BD540300102DE9F84FBB
:100A80009A463C4C03680546A34218BF0024894699
:100A9000904647681CB1237C03F03F03237438233E
:100AA0004FF0FF32344E284603FB0763DA615A6089
:100AB000002283F835201146FFF742FEB9F1000FFE
:100AC00055D02E494046FFF7A9FC2D498346504694
:100AD000FFF7A4FCA9F10203012B1BD8BAF1FF3FD9
:100AE0000BD0244B98420DD164B1237C244943F0B0
:100AF000800323745046FFF763FCB9F1030F0CD059
:100B0000BDE8F88F382000FB076051461C30FFF726
:100B100016FCF2E7B9F1010F29D1B8F1FF3F01D17D
:100B2000BDE8F88F07222B681A72124B9B450AD139
:100B30004CB1237C404643F0400323740F49BDE889
:100B4000F84FFFF73DBC382404FB07604146002204
:100B50000430FFF7F7FB01226B68284604FB0366AD
:100B600086F835200021BDE8F84FFFF7E9BDBDE864
:100B7000F88F00BF0000014054030010183D000032
:100B8000F43C00002DE9F0410F4605464649384641
:100B90001646FFF74FFC454904463046FFF74AFC2E
:100BA00001462046FFF728FC414B04469842286046
:100BB0005DD047D8A3F58043984250D001234FF031
:100BC000000823724FF416512846C4F80480FFF73A
:100BD0001DFE03222B6834491A733846FFF7F0FBD9
:100BE00032493046FFF7ECFB7A1C03D041463846C9
:100BF00000F0D9F8731C03D00021304600F0D3F880
:100C00002B4B9C424BD03ED8A3F580439C4243D013
:100C100038216A68274B284601FB02324FF0FF3328
:100C200000215360D3611A46FFF728FF224B9C42F4
:100C300006D10122214B69681A602868204B03C342
:100C4000BDE8F0811F4B984217D003F580439842CE
:100C5000B4D11D4AD2F8C43043F0007304E01A4AFC
:100C6000D2F8C43043F00803C2F8C430A6E7164AED
:100C7000D2F8C43043F01003F6E7134AD2F8C43078
:100C800043F08073F0E70F4B9C420AD003F580439A
:100C90009C42BDD1032300E000236B60B8E7012331
:100CA000FBE70223F9E700BFA83D00003C3D000040
:100CB000000001405403001000C000405003001029
:100CC0005C0500100080094000C00F4008B5104BC3
:100CD0001868E0B901210F4A1960D2F8C43043F412
:100CE0000003C2F8C430A2F5D022106702200A4BDC
:100CF0001B6850600948B3FBF0F3013BD36004204C
:100D00005160074900F07CF81022064B1A6008BDBC
:100D10003404001000C00F40CC00001000093D005A
:100D20006D03000000E100E008B5044B1B680BB93F
:100D3000FFF7CCFF024B986808BD00BF34040010D9
:100D400000400940034B98615A6942F001025A6120
:100D5000704700BF00400940024A536923F0010375
:100D600053617047004009400122014B1A607047EF
:100D70000040094010B5032400F16040A0F51C209C
:100D800043000009800000F1804000F53030026827
:100D900003F01E039C4022EA0402026002689940AC
:100DA0001143016010BD00F16040A0F51C20430913
:100DB0009B0003F1804303F5303330B500F01F0290
:100DC0009C6EC1F3800505FA02F224EA02049C66D7
:100DD0009C6E22439A6695B9032443000009800063
:100DE00000F1804000F53030026C03F01E039C409F
:100DF00022EA04020264026C99401143016430BD8E
:100E000030B50C4CA268A4681346B4F1805F0CD2D4
:100E1000131F094C094A53F8045F42F8045FA242C9
:100E2000F9D14FF08053034A9360103043F82010FB
:100E300030BD00BF00ED00E0C0000010FCFFFF0F60
:100E40002022264BC3F8A021D3F8A021920603D577
:100E5000D3F8A0215006FBD50222C3F804210022BA
:100E60000120C3F8A821C3F8AC210B22C3F80C0160
:100E7000AA21C3F884205522C3F88C10C3F88C2013
:100E8000C3F88000C3F88C10C3F88C20134B1A46AB
:100E9000D3F888104901FBD50321C3F88010AA219B
:100EA000C3F88C105521C3F88C10D2F8883013F099
:100EB000407FFAD00523C2F80831094BC2F8C4308C
:100EC0000023C2F8C831136823F4704323F03A03B7
:100ED00043F4405343F03A031360704700C00F409F
:100EE000DE8728040368DB69184703685B691847D5
:100EF00003689B6A18477047A0F13000FFF7FBBFFB
:100F0000A0F13000FFF7F7BF00F090B9A0F130007A
:100F1000FFF7FABF00F08DB9A0F13000FFF7FABF7C
:100F200010B5044600F08CF9002104F1300000F007
:100F300095F8044B204603F108022833226023630E
:100F400010BD00BF143E0000C36810B504460BB1CD
:100F50009B689847204610BD002310B5036043608E
:100F60000A7804462F2A0DD14A785AB1481C1946EE
:100F7000206023681A782F2A06D10133236000F0FD
:100F800029F96060204610BD002AF8D001330131F4
:100F90002360EEE700687047406808B520B100F0B4
:100FA000C3F8431E5842584108BD10B50446FFF728
:100FB000F3FF00B1606810BD406808B520B100F0D3
:100FC000B3F8B0FA80F0400908BD10B50446FFF749
:100FD000F3FF00B1606810BD4068003018BF012009
:100FE000704770477047F8B50E46036804469B6B20
:100FF0008F1835469847BD4207D0236815F8011B66
:101000001B6C204698470130F5D123682046DB6BE6
:101010009847A81BF8BDF8B50E46036804469B6BBD
:101020008F1835469847BD4208D0236820465B6C30
:101030009847431C02D005F8010BF4E723682046CB
:10104000DB6B9847A81BF8BD002070470020704755
:101050007047002070470020704700001FB504460D
:10106000002200F069F8094B22462360002308495A
:10107000236101A801F01CFF064901A800F094FFBC
:10108000206100F0F2FA204604B010BDDC3E000002
:10109000CC3E0000D03E000010B50446054B036076
:1010A000006900F0C7FD044B2046236000F062F8A1
:1010B000204610BDDC3E00008C3E00000EB477B52B
:1010C0000446036807AD55F8046B9B6B984720698D
:1010D000019500F069FE019A3146206901F0E4FAB9
:1010E000054623682046DB6B9847284603B0BDE8D9
:1010F000704003B070470368184708B10B6803607D
:1011000070477047884238B504460D460AD0FFF74D
:101110001BFF3CB1EB681BB15B6829462046984732
:10112000EB68E360204638BD007B704703680BB96D
:10113000031D03600068704738B50B4B044603601D
:1011400000230D464360A16002730848FFF7EEFFDD
:1011500045B1074B1A681C6062600448FFF7E6FF60
:10116000204638BD6560F8E7383F00003C040010B9
:101170003804001010B504460E4B03600E48FFF70C
:10118000D5FFA3682BB10D4A13689C420CD163684C
:1011900013600948FFF7CAFF237B13B9204600F00C
:1011A0008DFA204610BD13465A689442FBD16268FE
:1011B0005A60EEE7383F00003C040010380400108D
:1011C00010B50446FFF7D6FF204600F074FA20461B
:1011D00010BD0000F8B507460D480E46FFF7A6FF04
:1011E0000C4B1C6864B1A5687DB13246394628466F
:1011F00001F003FF48B9284601F0F7FE864204D10A
:101200000348FFF793FF2046F8BD6468EAE700BF94
:101210003C0400103804001070477047704700EB22
:101220000112936902F10C001B6818470430FFF7A4
:10123000CDBB10B50C460430FFF708FC204610BDAE
:101240002DE9FF410F46002104469046174A184EEB
:10125000184DC362026041608160816181626946AC
:101260000C3003950096FFF74DFF6846FFF76CFEC4
:10127000694604F11C0003950096251DFFF742FF07
:101280006846FFF761FE424639462846FFF77AFC7A
:10129000E16A2846FFF7BAFA284622460649FFF7D0
:1012A00089FB204604B0BDE8F08100BF483F000044
:1012B00019120000243F00001F12000010B5044660
:1012C000006930B1036861695B6A98470023236154
:1012D00010BD6FF0150010BD30B4044600690368FE
:1012E0009D6A1346AC460A46616930BC604730B41B
:1012F000044600690368DD6A1346AC460A46616924
:1013000030BC6047036941691A681846126B104780
:10131000036941691A681846526B104730B4044695
:10132000006903689D6B1346AC460A46616930BC90
:101330006047036941691A681846D26B1047036910
:1013400041691A681846126C1047036941691A68A6
:101350001846526C104770B50D460169044641B9F4
:1013600029680E6A00F114012846B04718B92561B2
:1013700070BD6FF0150070BD074B10B503600369B9
:1013800004460BB1FFF79AFF044B20462360FFF79A
:10139000F1FE204610BD00BF603F00008C3E000003
:1013A00010B50446FFF7E8FF204600F084F9204618
:1013B00010BD0000002210B504461146FFF7BCFE28
:1013C000034B2046236000232361636110BD00BFEF
:1013D000603F000000F0A6BF01F002B800F056BF69
:1013E000034B10B503600446FFF7C6FF204610BD4F
:1013F000AC3F000008B5084B1B685BB907490848BB
:10140000084AFFF7BFFB4FF41651BDE808400448F7
:10141000FFF7FCB908BD00BF5003001002C009204F
:101420005C05001003C0092070470000022810B5B9
:10143000044601DC002010BD00F0A4FB09230022BB
:101440000360094B033C53F8240043F8242040B1C7
:1014500003681B699847041EECDA00F093FB6442B2
:1014600004604FF0FF3010BD44040010F8B505468D
:101470000E46144600F086FB0923022D03600FDCA4
:10148000124B1B680BB9FFF7B5FF35463719104EE5
:10149000BD4215D015F8011B3046FFF7D7FAF7E724
:1014A0000C4B033D53F8250060B103682246DB680E
:1014B00031469847041E03DA00F064FB6342036080
:1014C0002046F8BD4FF0FF34FAE700BF500300108C
:1014D0005C0500104404001070B504460D46164625
:1014E00000F050FB0923022C03600BDC0F4B1B6840
:1014F0000BB9FFF77FFF0E48FFF768FA0124287049
:10150000204670BD0B4B033C53F8240058B10368D0
:1015100032469B6829469847041EF1DA00F032FBF8
:1015200063420360ECE74FF0FF34E9E7500300103B
:101530005C0500104404001010B5044600F022FBC6
:101540000923022C036010DD0A4B033C53F82400EE
:1015500040B103689B699847041E08DA00F012FB4B
:10156000644204604FF0FF3010BD012010BD002028
:1015700010BD00BF4404001070B504460D46164669
:1015800000F000FB0923022C03600BDD084B033C39
:1015900053F8240040B1036832462946BDE8704044
:1015A000DB691847002070BD4FF0FF3070BD00BFF1
:1015B00044040010022808B504DC4FF40053002056
:1015C0004B6008BD00F0DEFA092303604FF0FF30E6
:1015D00008BD704708B5FFF727FFFFF7FAFF08BD02
:1015E000704708B5FFF7FCFFBDE80840FEF7DABD1D
:1015F0000C4A10B513681844EFF30881884205D3EC
:101600000C22094B4FF0FF301A6010BD07490C68DF
:1016100024B10749096821448842F1D21060184674
:1016200010BD00BFD0000010640500104C05001074
:1016300050050010094C08B523680546986800F06D
:10164000B3FB2368D86800F0AFFBFEF720FF08B1BA
:10165000FEF750FF0DB1FEF767FFFEE7D400001064
:101660000120704708B5FFF7E5FF002101F069BBD5
:101670007047704708B5FFF7FBFF08BD08B5FFF7D7
:10168000F8FF08BD10B500F0CFFD044610B90248C0
:10169000FEF744FF204610BDF03F000008B100F007
:1016A000CBBD704710B50446FFF79AFE2046FFF702
:1016B000F5FF204610BDFFF7F1BF000010B504464E
:1016C0000948FFF733FD00231946084A52F8230062
:1016D000A04208BF42F823100133402BF6D1024844
:1016E000FFF724FD10BD00BF4405001044040010A6
:1016F0002DE9F34789464A49064601F06CFC044649
:1017000028B9FFF777FE204602B0BDE8F0874549CB
:10171000304601F060FC18B9FFF76CFE0124F2E7D7
:101720004149304601F057FC18B9FFF763FE022427
:10173000E9E700F027FA09233C4F03603C48FFF734
:10174000F5FC0024B84657F82450002D52D001343F
:10175000402CF8D100F016FA182303603448FFF744
:10176000E5FC0DE031466846FFF7F6FB6846FFF7FB
:1017700033FC40B947F8240000F004FA0223036068
:101780004FF0FF34BFE76846FFF716FC20B168460C
:10179000FFF71BFC05463DE06846FFF706FC824666
:1017A00030B900F0EFF90223036047F824A0E7E71F
:1017B0001820FFF767FF0646FFF7FCFD1D4B684644
:1017C0003360FFF7E7FB29F4803302465146304689
:1017D000FFF7C1FD071E0BDA00F0D4F97F42076066
:1017E0001EB1336830465B68984748F82450C7E715
:1017F00035460FE04FF0FF330D4847F82430FFF730
:1018000095FC33783A2BADD16A460B49304601F04E
:1018100073FB009D002DE8D048F82450033472E794
:10182000154000001C4000000D4000004404001062
:1018300044050010AC3F0000CC3E000038B5044623
:10184000FFF73CFD05461CB1236820465B689847BE
:10185000284638BD0649074A074B9A42BEBF51F891
:10186000040B42F8040BF8E704488047044800479B
:10187000F4410000C8000010B0020010410E00004A
:10188000B1020000FEE7FEE7FEE7FEE7FEE7FEE747
:10189000FEE7FEE7FEE7FEE74FF0FF0C1CEAD05242
:1018A0001EBF1CEAD15392EA0C0F93EA0C0F6FD0C3
:1018B0001A4480EA010C400218BF5FEA41211ED0A1
:1018C0004FF0006343EA501043EA5111A0FB01318D
:1018D0000CF00040B1F5000F3EBF490041EAD37162
:1018E0005B0040EA010062F17F02FD2A1DD8B3F1DE
:1018F000004F40EBC25008BF20F00100704790F04D
:10190000000F0CF0004C08BF49024CEA502040EA9E
:1019100051207F3AC2BFD2F1FF0340EAC250704764
:1019200040F400004FF00003013A5DDC12F1190FA2
:10193000DCBF00F000407047C2F10002410021FA14
:1019400002F1C2F1200200FA02FC5FEA310040F12C
:10195000000053EA4C0308BF20EADC70704792F0A5
:10196000000F00F0004C02BF400010F4000F013ADD
:10197000F9D040EA0C0093F0000F01F0004C02BFD8
:10198000490011F4000F013BF9D041EA0C018FE747
:101990000CEAD15392EA0C0F18BF93EA0C0F0AD04D
:1019A00030F0004C18BF31F0004CD8D180EA010073
:1019B00000F00040704790F0000F17BF90F0004F0C
:1019C000084691F0000F91F0004F14D092EA0C0FEE
:1019D00001D142020FD193EA0C0F03D14B0218BF81
:1019E000084608D180EA010000F0004040F0FE40C7
:1019F00040F40000704740F0FE4040F44000704763
:101A00004FF0FF0C1CEAD0521EBF1CEAD15392EAE1
:101A10000C0F93EA0C0F69D0A2EB030280EA010CD1
:101A200049024FEA402037D04FF0805343EA11116A
:101A300043EA10130CF000408B4238BF5B0042F1C8
:101A40007D024FF4000C8B4224BF5B1A40EA0C006D
:101A5000B3EB510F24BFA3EB510340EA5C00B3EB9F
:101A6000910F24BFA3EB910340EA9C00B3EBD10F8D
:101A700024BFA3EBD10340EADC001B0118BF5FEADF
:101A80001C1CE0D1FD2A3FF650AF8B4240EBC25008
:101A900008BF20F0010070470CF0004C4CEA5020C9
:101AA0007F32C2BFD2F1FF0340EAC250704740F418
:101AB00000004FF00003013A37E792F0000F00F00A
:101AC000004C02BF400010F4000F013AF9D040EA88
:101AD0000C0093F0000F01F0004C02BF490011F41C
:101AE000000F013BF9D041EA0C0195E70CEAD15314
:101AF00092EA0C0F08D142027FF47DAF93EA0C0FFB
:101B00007FF470AF084676E793EA0C0F04D14B02DE
:101B10003FF44CAF08466EE730F0004C18BF31F090
:101B2000004CCAD130F000427FF45CAF31F000438A
:101B30007FF43CAF5FE700BF4FEA4002B2F1FE4FD7
:101B40000FD34FF09E03B3EB12620DD94FEA00237F
:101B500043F0004310F0004F23FA02F018BF404258
:101B600070474FF00000704712F1610F01D142023F
:101B700005D110F0004008BF6FF0004070474FF0F3
:101B800000007047014B1868704700BFD400001078
:101B900070B505460C4611B90026304670BD18B127
:101BA00083690BB900F052F91F4B9C4232D16C682B
:101BB000B4F90C30002BEFD02146284600F042F853
:101BC000236B064633B1216A284698470028B8BFE0
:101BD0004FF0FF36A3891B0603D521692846FFF77E
:101BE000FDFB616B41B104F14403994202D02846E8
:101BF000FFF7F4FB00236363A16C21B12846FFF7D4
:101C0000EDFB0023A36400F08DF90023A38100F015
:101C10008AF9C2E7054B9C4201D1AC68C8E7044B86
:101C20009C4208BFEC68C3E74440000064400000E9
:101C300024400000024B01461868FFF7A9BF00BF0F
:101C4000D40000108A892DE9F041054610070C46A2
:101C50005AD44B68002B05DC0B6C002B02DC0020F7
:101C6000BDE8F081E66A002EF9D0002312F480521C
:101C70002F682B6033D0606DA3895A0705D5636840
:101C8000C01A636B0BB1236CC01A00230246E66ACC
:101C9000216A2846B047431CA38906D129681D291B
:101CA0004BD82B4ACA40D60747D50022626022692A
:101CB000D904226004D5421C01D12B6803B96065A8
:101CC000616B2F600029CAD004F14403994202D00D
:101CD0002846FFF783FB00206063BDE8F081216A9E
:101CE00001232846B047411CC6D12B68002BC3D026
:101CF0001D2B01D0162B01D12F60B0E7A38943F033
:101D00004003A381BDE8F0810F69002FA7D093079E
:101D100018BF00230E6808BF4B69A6EB07080F60C9
:101D20008B60B8F1000F9ADD43463A46216A284697
:101D3000A66AB047002807DCA38943F04003A381CB
:101D40004FF0FF30BDE8F0810744A8EB0008E8E75A
:101D50000100402038B50B6905460C46DBB118B1CF
:101D600083690BB900F072F80C4B9C4209D16C6886
:101D7000B4F90C307BB121462846BDE83840FFF766
:101D800061BF074B9C4201D1AC68F1E7054B9C4217
:101D900008BFEC68ECE7002038BD00BF44400000FD
:101DA0006440000024400000014620B9044B05496E
:101DB000186800F093B9044B1868FFF7CBBF00BF59
:101DC00084400000551D0000D4000010014900F0BF
:101DD00085B900BF551D0000002310B504460360FF
:101DE0004360836081814366C28103614361836193
:101DF000194608225C3000F040FA054B2462636209
:101E0000044BA362044BE362044B236310BD00BF89
:101E10004D2F0000732F0000AB2F0000CF2F0000CC
:101E200070B568254A1E55430E4605F17401FFF74B
:101E3000D1FA044640B1002180E842000C30A06095
:101E400005F1680200F019FA204670BD836910B5EB
:101E5000044633BB8364C3640365124B124A1B6898
:101E60008262984204BF0123836100F01FF8606022
:101E7000204600F01BF8A060204600F017F8002272
:101E8000E06004216068FFF7A7FF01220921A06834
:101E9000FFF7A2FF02221221E068FFF79DFF012356
:101EA000A36110BD84400000CD1D0000F8B51C4B9F
:101EB00007461E68B36913B93046FFF7C7FF4836B7
:101EC000B4687368013B03D5336833B13668F7E70C
:101ED000B4F90C506DB16834F4E704213846FFF7CB
:101EE0009FFF30600028F1D10C2304463B60204660
:101EF000F8BD4FF6FF73E38101236566A38125607A
:101F0000A560656025616561A5610822294604F127
:101F10005C0000F0B2F96563A563A564E564E6E7DB
:101F20008440000070477047F7B50F46114601AA7C
:101F3000054601F0B3FA064618B90024204603B05E
:101F4000F0BD2846FFF7B2FF04460028F5D04FF455
:101F5000DB73019A3946284600F0A2FE002806DA13
:101F60000025FFF7DFFFA581FFF7DDFFE5E70A4B5F
:101F7000E0816362094BA681A362094B2462E3629C
:101F8000084B2363F305D9D50223002221462846B6
:101F900000F012F8D2E700BF4D2F0000732F0000B1
:101FA000AB2F0000CF2F0000024B0A4601461868F5
:101FB000FFF7BABFD400001000F000B82DE9F843D5
:101FC0000C4691461E46054618B183690BB9FFF7CA
:101FD0003DFF3F4B9C4212D16C68A38903F484738C
:101FE000B3F5847F03D121462846FFF7B3FED4F82A
:101FF0002C80B8F1000F0CD11D232B6057E0354B1E
:102000009C4201D1AC68E8E7334B9C4208BFEC68C6
:10201000E3E7012E30D0022E01D0002E55D12369E6
:102020001BB92146284600F0BFF821462846FFF795
:1020300091FE074600283AD133464A46216A28468F
:10204000C047013033D0616B41B104F14403994280
:1020500002D02846FFF7C2F90023636300212369F9
:1020600061602360A389082223F40263A38104F141
:102070005C0000F002F91CE021462846FFF76AFEEA
:10208000A28912F480520CD0606DA3895A0713D52F
:102090006368C01A636B0BB1236CC01A81440026BD
:1020A000BDE7216A33462846C047411CEDD14FF0B9
:1020B000FF373846BDE8F8831B07EFD52368002BB0
:1020C000ECD022699B1A1844E8E7162395E700BF75
:1020D0004440000064400000244000002DE9F84323
:1020E00080468946002600F1480414B93046BDE810
:1020F000F883A5686768013F01D52468F5E7AB89D7
:10210000012B07D9B5F90E30013303D029464046DB
:10211000C84706436835EEE770B500250C4E0D4CF8
:10212000A41BA410A54209D101F086FD00250A4E8A
:102130000A4CA41BA410A54205D170BD56F8253049
:1021400098470135EEE756F8253098470135F2E714
:10215000A4020010A4020010A4020010AC0200109F
:1021600070B50E46B1F90E1090B0002914461D4608
:1021700007DA00232B60B3891A0610D44FF480636A
:102180000EE001AA01F0C0F90028F2DB029A02F485
:102190007042A2F500535A425A412A60EEE74023AA
:1021A0000020236010B070BD8B8973B59D07064673
:1021B0000C4607D504F147032360236101236361C3
:1021C00002B070BD01AB6A46FFF7CAFF0099054631
:1021D0003046FFF7FFF848B9B4F90C309A05EFD450
:1021E00023F0030343F00203A381E3E70D4BB36243
:1021F000A389206043F08003A381009B2061636179
:10220000019B5BB1B4F90E10304601F08FF928B193
:10221000A38923F0030343F00103A381A3891D4392
:10222000A581CDE7CD1D0000024B01461868FFF7E0
:10223000D1B800BFD4000010024B01461868FFF768
:10224000CDB800BFD400001010B5C9B2024490420E
:10225000034601D1002010BD1C7801308C42F6D11C
:10226000184610BD10B5431E0A44914200D110BD5E
:1022700011F8014B03F8014FF7E70346024493427C
:1022800000D1704703F8011BF9E7000038B5054697
:10229000002943D051F8043C0C1F002BB8BFE418B0
:1022A000FFF7E8F91E4A1368104633B963601460FB
:1022B0002846BDE83840FFF7E1B9A3420BD92168B1
:1022C0006218934201BF1A685B685218226063600B
:1022D0000460EDE713465A680AB1A242FAD91968B8
:1022E0005818A0420BD12068014458188242196046
:1022F000DED110685268014419605A60D8E702D9EB
:102300000C232B60D4E7206821188A4201BF116892
:1023100052680918216062605C60C9E738BD00BF7F
:102320005405001070B5CD1C25F0030508350C2DA3
:1023300038BF0C25002D064601DBA94203D90C232A
:102340003360002070BDFFF795F9234A14682146D9
:1023500091B9224C23681BB9304600F0B3FC2060D1
:102360002946304600F0AEFC431C26D10C233046F3
:102370003360FFF783F9E4E70B685B1B1AD40B2B80
:102380000FD90B60CC18CD503046FFF777F904F128
:102390000B00231D20F00700C31A1BD05A42E25045
:1023A00070BD8C420BBF63684B681360636018BFDD
:1023B0000C46E9E70C464968CAE7C41C24F003044C
:1023C000A04205D0211A304600F07CFC0130CDD06F
:1023D0002560D9E770BD00BF5405001058050010F6
:1023E000F8B5074614460E4621B91146BDE8F84037
:1023F000FEF7F0BF22B9FEF7F1FF25462846F8BDEB
:1024000001F0F4F884420FD921463846FEF7E2FF86
:1024100005460028F2D031462246FFF723FF314619
:102420003846FEF7DBFFE9E73546E7E7936810B487
:10243000013B002B936008DA9469A34202DBCBB224
:102440000A2B02D110BC00F047BF1368581C106063
:102450001970C8B210BC7047F8B506460F4614464E
:10246000D518AC4201D1002007E03A4614F8011B10
:102470003046FFF7DBFF431CF3D1F8BD2DE9F04FE9
:102480009DB00C4617460393064618B183690BB9F5
:10249000FFF7DCFC7C4B9C4257D17468A38918077A
:1024A0005DD52369002B5AD00023099320238DF892
:1024B000293030234FF0010B8DF82A30B8464546BD
:1024C00015F8013B002B55D1B8EB070A0BD053464A
:1024D0003A4621463046FFF7BFFF013000F0C48086
:1024E000099B5344099398F80030002B00F0BC80FE
:1024F00000234FF0FF3204930793059206938DF863
:1025000053301A93052229786048FFF79DFE05F1A4
:102510000108049B002831D1D90644BF20228DF840
:1025200053201A0744BF2B228DF853202A782A2AD9
:102530002CD000210A20079AA84698F800300135CF
:10254000303B092B6DD971B326E0514B9C4201D130
:10255000B468A3E74F4B9C4208BFF4689EE721464E
:10256000304600F01DFF00289ED04FF0FF301DB018
:10257000BDE8F08F252BA7D0A846A0E7434A4546E3
:10258000801A0BFA00F018430490BBE7039A111D60
:1025900012680391002A01DB079204E0524243F0E3
:1025A00002030792049398F800302E2B10D198F86C
:1025B000013008F101012A2B37D1039B08F10208F1
:1025C0001A1D1B680392002BB8BF4FF0FF33059311
:1025D000314D032298F800102846FFF735FE40B130
:1025E0004023401B03FA00F0049B08F10108034359
:1025F000049398F800100622284808F101078DF886
:102600002810FFF721FE002834D0254B03BB039B85
:10261000073323F0070308330393099B4B440993C3
:102620004CE700FB0232012186E700230A25184609
:102630000593884698F800200131303A092A03D9D9
:10264000002BC5D00590C3E705FB00200123F0E770
:1026500003AB00932246134B04A93046AFF300802E
:10266000B0F1FF3F8146D8D1A3895B063FF57DAF2E
:1026700009987CE703AB009322460A4B04A9304635
:1026800000F094F8ECE700BF4440000088400000F0
:1026900064400000244000008E4000009240000092
:1026A000000000005924000013460A460146024873
:1026B0000068FFF7E3BE00BFD40000102DE9F0472B
:1026C00091461F468A680B6906469342B8BF134677
:1026D000C9F8003091F843200C46DDF8208012B193
:1026E0000133C9F800302368990642BFD9F8003099
:1026F0000233C9F80030256815F0060507D104F14A
:10270000190AE368D9F800209B1A9D422ADB94F845
:1027100043302268003318BF012392062FD404F1FE
:10272000430239463046C047013022D02368E5686D
:1027300003F00603042B18BF0025D9F800204FF042
:10274000000908BFAD1AA368226908BF25EAE5752C
:102750009342C4BF9B1AED181A344D451BD100207B
:10276000BDE8F0870123524639463046C047013064
:1027700003D14FF0FF30BDE8F0870135C1E73020CD
:10278000E11881F843005A1C94F8451022440233A2
:1027900082F84310C3E70123224639463046C0473A
:1027A0000130E6D009F10109D7E700002DE9F04337
:1027B00017460A7E85B06E2A984606460C460C9B44
:1027C00001F1430E00F0BC801AD8632A2ED00AD83B
:1027D000002A00F0C880582A00F08A8004F14205DF
:1027E00084F842202AE0642A01D0692AF6D12168BF
:1027F0001A6811F0800F23D0111D1960136827E0AB
:10280000732A00F0B48008D86F2A2AD0702AE5D144
:102810000A6842F020020A6003E0752A21D0782A73
:10282000DCD178226F4984F8452064E01A6801F110
:102830004205111D1960136884F842300123A3E09A
:1028400011F0400F02F104011960D7D0B2F9003045
:10285000002B03DA2D225B4284F8432062490A22CE
:1028600017E02068196810F0800F03D0081D186069
:102870000B6806E010F0400F01F104001860F7D07B
:102880000B886F2A14BF0A2208225749002084F8B7
:1028900043006568002DA560C0F29C80206820F090
:1028A00004002060002B3FD1002D40F0958075463C
:1028B000082A0BD12368DA0708D5236962689A428F
:1028C000DEBF302305F8013C05F1FF35AEEB050313
:1028D0002361CDF800803B4603AA21463046FFF72E
:1028E000EDFE013055D14FF0FF3005B0BDE8F0836B
:1028F00081F845203C492268186812F0800F00F1E9
:1029000004051D6001D0036802E05506FBD503886D
:10291000D00744BF42F0200222601BB9226822F097
:10292000200222601022B1E77546B3FBF2F002FBF1
:102930001033CB5C05F8013D03460028F5D1B7E71D
:1029400008681A6810F0800F496904D0101D1860DB
:102950001368196007E010F0400F02F104001860DE
:102960001368F6D01980002375462361B1E71A6811
:10297000111D19601568002162682846FFF764FC84
:1029800008B1401B606063682361002384F8433012
:102990009FE723692A4639463046C0470130A2D016
:1029A00023689B0707D5002504F11909E368039AFA
:1029B0009B1A9D4205DBE068039B9842B8BF18460E
:1029C00093E701234A4639463046C04701308AD052
:1029D0000135EBE7002BA7D10B7804F1420584F811
:1029E000423065E7AA400000994000002DE9F0411F
:1029F00015468A6880460C4632B98A69002A0CBF9F
:102A000001224FF0FF328A6000262268D1065FBFA4
:102A10001A68111D19601768A369DBB1012B07D172
:102A20002B6862691B78D35CA3B9002E31D106E014
:102A3000022B07D0002E2CD1A369012B29D1012014
:102A4000BDE8F08100F086FD2B681B7818444378C0
:102A50001B07EFD423680136DA065EBF2B681B78AC
:102A60003B702A686B6802F101022A60A26803F1D8
:102A7000FF3302F1FF326B6058BF0137A26042B1F1
:102A8000002BC9DCD4F880312946404698470028FD
:102A9000C2D0236813F0100305D1E2680132E2606E
:102AA000A26902B13B70236900201E442661BDE883
:102AB000F08100002DE9F04F0C469A46744B87B028
:102AC0008346164693E8070003ABA76883E8070030
:102AD000704BA169704A04F11C09032918BF1A46FA
:102AE0007B1EB3F5AE7F84BF40F25D13A360236805
:102AF00088BF6FF4AE7543F45063236098BF00271E
:102B00004B464FF00008009288BF7F19316801934F
:102B100003AB53F8280002220978FFF795FB019BCD
:102B200028B3B8F1010F56D162682AB90822626051
:102B3000226842F400722260226822F4A0622260BD
:102B4000A268511EA16092B132685D1C511C3160B7
:102B500012781A707368013B002B736006DCD4F89E
:102B60008031314658469847002877D12B4608F1E6
:102B70000108B8F1030FC9D162680AB90A2262607C
:102B8000626846496069891A019300F0ABF8019BBD
:102B90004FF000081D46A368002B39D031686069EA
:102BA0000A78805C002833D0302A226821D11005B1
:102BB0001FD508F1010817B10133013FA360736805
:102BC000013B002B73601CDD336801333360A36865
:102BD000013BA360DFE7B8F1020FB1D1226802F434
:102BE000C061B1F5007FC2D1102142F480726160F2
:102BF000A5E722F4106222600B78013505F8013C4C
:102C0000DDE7D4F880313146584698470028DED0B9
:102C10002368D9050CD54D4508D915F8011C6F1E40
:102C2000D4F87C313246584698473D464D452CD025
:102C3000226812F010021ED12A7063684946584675
:102C4000009EB0472268DAF8003012F0200F08D05A
:102C50001A1DCAF800201B68186009E04FF0000830
:102C6000D6E7D207F4D51A1DCAF800201B681880D1
:102C7000E3680133E3600020A5EB0905A84425695A
:102C80004544256107B0BDE8F08F0120FAE700BF99
:102C9000BC4000004132000021310000D84000005B
:102CA00038B50546084611460022054C22601A46F2
:102CB000FEF71EFD431C02D1236803B12B6038BD13
:102CC0006405001038B50023054C0546084623600E
:102CD000FEF78EFC431C02D1236803B12B6038BD84
:102CE0006405001070B50B78441E5E2B13BF4A1CA0
:102CF0008A1C4B78002108BF012100F1FF0504F870
:102D0000011FA542FBD113B9013A104670BD81F0F5
:102D100001041146C4540D784A1C2D2D06D05D2D9A
:102D2000F3D00DB90A46F0E72B46F2E74E785D2E58
:102D3000FAD0B342F8DC023101339E42C454FBDCCA
:102D4000E9E700294FF480630CBF0222002200F063
:102D500001B800002DE9F7431D46514B04461E689B
:102D60000F46904626B1B36913B93046FFF76EF8A7
:102D70004C4B9C4252D17468B8F1020F06D0B8F1A6
:102D8000010F00F28980002DC0F286802146304676
:102D9000FEF7E0FF616B41B104F14403994202D0B8
:102DA0003046FEF71BFB002363630023A3616360CF
:102DB000A3891B0603D521693046FEF70FFBA389C3
:102DC000B8F1020F23F44A6323F00303A3815DD01B
:102DD00001AB6A4621463046FFF7C2F9A389184382
:102DE000A0812DBB009D2846FFF71EFA074600284C
:102DF0004ED1DDF80090A9453CD14FF0FF30A389BA
:102E000043F00203A3810023A36004F1470323607E
:102E100023610123636103B0BDE8F083224B9C4230
:102E200001D1B468A8E7214B9C4208BFF468A3E72E
:102E3000002FD8D0B36913B93046FFF707F8B8F1BF
:102E4000010F08BFA389276004BF43F00103A381DA
:102E5000A389276113F0080065611BD013F00100FE
:102E60004FF000031FBF6D42A360A561184608BF65
:102E7000A560D0E74846FFF7D7F907460028BCD041
:102E8000A3894D4643F08003A381D3E70020B6E732
:102E9000A946F5E7A060BEE74FF0FF30BBE700BFF3
:102EA000D4000010444000006440000024400000B2
:102EB0000EB44FF4027100B59CB0ADF814106FF071
:102EC0000041049107914FF6FF711DAB02900690EF
:102ED000084853F8042BADF81610006802A90193B6
:102EE00000F0E8FB0022029B1A701CB05DF804EBB6
:102EF00003B07047D40000100EB44FF4017230B527
:102F00009CB01FAC54F8045BADF8142002900690FE
:102F100000F06BF80B4B03900B9300230F9314936B
:102F20004FF6FF7307900848ADF816302A4623463F
:102F300002A90068019400F00BFD1CB0BDE8304010
:102F400003B070476F2F0000D400001010B50C467E
:102F5000B1F90E1000F050FE0028ABBF636DA389DD
:102F60001B1823F48053ACBF6365A38110BD002000
:102F700070472DE9F0411F468B890546DB050C465D
:102F8000164605D502230022B1F90E1000F0F0FA22
:102F9000A389324623F48053A381B4F90E103B4633
:102FA0002846BDE8F04100F0E9B910B50C46B1F98A
:102FB0000E1000F0DDFA431CA38915BF606523F4F1
:102FC000805343F48053A38118BFA38110BDB1F98E
:102FD0000E1000F053BA10F8012B11F8013B012A32
:102FE00028BF9A42F7D0D01A7047034613F8012B36
:102FF000002AFBD1181A0138704710B56AB101399F
:10300000841810F8013B11F8012F934203D1A0421C
:1030100001D0002BF5D1981A10BD104610BD2DE936
:10302000F84F8046894692461F468B465D460A9871
:1030300015F8014B00F08AFA2044467816F008068D
:103040000BD12D2C0BD101262C780BF1020567B189
:10305000102F14D1302C0AD011E0AB46E6E72B2C10
:1030600004BF2C780BF10205F1E7302C27D12B7827
:1030700003F0DF03582B4BD110276C780235002E5C
:103080000CBF6FF000414FF000410022B1FBF7FE92
:10309000104607FB1E1CA4F13003092B11D81C4657
:1030A000A7421DDD531C07D0864516D301D1A44588
:1030B00013DB012200FB074015F8014BEBE70A2761
:1030C000DDE7A4F14103192B01D8373CE8E7A4F16F
:1030D0006103192B04D8573CE2E74FF0FF32EBE7CE
:1030E000531C08D122230846C8F80030BAF1000F5B
:1030F00007D1BDE8F88F06B14042BAF1000F0CD0FD
:1031000022B1013DCAF80050BDE8F88F4D46F9E7FD
:103110003024002FB3D10827B1E7BDE8F88F0000B5
:1031200037B5064C064D2468246A002C08BF2C468F
:103130000094FFF774FF03B030BD00BFD40000104F
:10314000380100102DE9F0478046894692461E4618
:103150000F463D46089815F8014B00F0F7F920445A
:10316000437813F008030AD12D2C0AD101232C78BF
:10317000BD1C5EB1102E13D1302C09D010E02F46AB
:10318000E7E72B2C04BF2C78BD1CF2E7302C25D1AF
:103190002A7802F0DF02582A4AD110266C780235CC
:1031A0004FF0FF31B1FBF6F1002706FB01FE384678
:1031B0006FEA0E0EA4F13002092A11D81446A64275
:1031C0001DDD002F18DB814216D301D1A64513DB8C
:1031D000012700FB064015F8014BEBE70A26DFE765
:1031E000A4F14102192A01D8373CE8E7A4F16102B1
:1031F000192A04D8573CE2E74FF0FF37EBE7002FDE
:1032000009DA22234FF0FF30C8F80030BAF1000F7E
:1032100007D1BDE8F08703B14042BAF1000F0CD0EE
:1032200027B1013DCAF80050BDE8F0874D46F9E7E7
:103230003024002EB4D10826B2E7BDE8F0870000A4
:1032400037B5064C064D2468246A002C08BF2C466E
:103250000094FFF777FF03B030BD00BFD40000102B
:10326000380100102DE9F0410C46496B04F144038C
:1032700099421CD14FF48061FEF7ACF818B94FF0B9
:10328000FF30BDE8F0814FF48063A36394F84630CB
:10329000606380F8FF3394F8453000F2FD304370EE
:1032A00094F84430037020600020BDE8F081A66BE4
:1032B00077003A46FEF790F805460028DFD000EB8D
:1032C0000608014632464046FEF7CCFFC4F80080AF
:1032D0006563A763E8E70000F8B50E4614460546A7
:1032E00018B183690BB9FEF7B1FD214B9C422AD17D
:1032F0006C68A369A360A3891A072ED5236963B3F9
:1033000023692068F6B2C01A63693746984204DB25
:1033100021462846FEF71EFD28BBA3680130013B6D
:10332000A36023685A1C22601E706369984204D00F
:10333000A389DB0719D50A2E17D121462846FEF7A7
:1033400009FD90B10FE00B4B9C4201D1AC68D0E776
:10335000094B9C4208BFEC68CBE72146284600F0A9
:103360001FF80028CCD04FF0FF373846F8BD00BF1B
:1033700044400000644000002440000038B5054689
:10338000084611460022054C22601A46FEF76EF8E8
:10339000431C02D1236803B12B6038BD64050010C3
:1033A000324B70B51D6806460C4625B1AB6913B9A2
:1033B0002846FEF74BFD2E4B9C420FD16C68B4F9AA
:1033C0000C309AB215072CD4D00611D409223260E1
:1033D00043F04003A3814FF0FF3070BD254B9C426A
:1033E00001D1AC68EBE7244B9C4208BFEC68E6E7F0
:1033F000510712D5616B41B104F14403994202D0E7
:103400003046FDF7EBFF00236363A38923F0240319
:10341000A3810023636023692360A38943F0080329
:10342000A38123694BB9A38903F42073B3F5007F0B
:1034300003D021463046FEF7B7FEA28912F0010301
:103440000CD00023A36063695B42A361236953B975
:10345000B4F90C3013F08000BAD170BD920758BF98
:103460006369A360F2E70020F7E700BFD400001013
:1034700044400000644000002440000038B50023B0
:10348000054C054608462360FDF7D0FF431C02D1DA
:10349000236803B12B6038BD640500100B7830B58C
:1034A000722B13D0772B07D0612B13D14FF40274FA
:1034B00001234FF4847003E04FF4C064012308201B
:1034C00011F8015F55B92343136030BD0024042077
:1034D0002346F5E716230360002030BD622D0CD093
:1034E000782D0DD02B2DEBD120F01C0023F0030301
:1034F00040F0100043F00203E2E743F48033DFE7DB
:1035000043F40063DCE7000038B50023064C0546B1
:10351000084611462360FEF74DF8431C02D123688C
:1035200003B12B6038BD00BF6405001038B500231F
:10353000054C054608462360FCF7CEFE431C02D12D
:10354000236803B12B6038BD64050010D0F8EC008F
:1035500070470000044B054A1B681B6A002B08BF1C
:103560001346D3F8EC007047D40000103801001067
:1035700038B50546084611460022054C22601A4619
:10358000FDF7FAFF431C02D1236803B12B6038BD5D
:103590006405001082B001B901A942B14BB11378A2
:1035A0000B601278101C18BF012002B07047104643
:1035B000FBE76FF00100F8E7884210B501EB02036A
:1035C00003D8421E99420CD110BD9842F9D28118FD
:1035D000D21AD34200D110BD13F8014D01F8014DAC
:1035E000F7E711F8014B02F8014FEBE751F8040C33
:1035F0000028A0F10400BCBF0B58C01870472DE98B
:10360000F0478E6882469E420C469146984635D8D1
:103610008A8912F4906F31D00223256809696F1AE4
:10362000656905EB450595FBF3F508F101033B449E
:103630009D4238BF1D46530531D52946FDF7CAFEC8
:10364000064650B90C23CAF80030A3894FF0FF306A
:1036500043F04003A381BDE8F0873A462169FEF7B5
:1036600001FEA38923F4906343F08003A3812661C4
:103670003E44266046466561ED1BA560464528BF71
:103680004646494632462068FFF796FFA368002069
:103690009B1BA36023681E442660BDE8F0872A4672
:1036A000FDF79AFE06460028E1D121695046FDF754
:1036B00095FEC7E72DE9F04F9DB003938B898046B7
:1036C0001C060D4616460FD50B696BB94021FDF758
:1036D00081FE2860286128B90C23C8F800304FF01B
:1036E000FF30C4E040236B610023099320238DF851
:1036F000293030234FF0010B8DF82A3037463C46F5
:1037000014F8013B002B3CD1B7EB060A0BD0534613
:10371000324629464046FFF772FF013000F0A28092
:10372000099B534409933B78002B00F09B800023B6
:103730004FF0FF3204930793059206938DF85330B0
:103740001A93052221785048FEF77EFD671C049BE2
:10375000D8B9D90644BF20228DF853201A0744BF98
:103760002B228DF8532022782A2A16D000210A20F5
:10377000079A27463B780134303B092B50D9C9B111
:1037800011E0252BC0D02746B9E73F4A3C46801AB6
:103790000BFA00F018430490D3E7039A111D126846
:1037A0000391002A01DB079204E0524243F0020336
:1037B000079204933B782E2B0DD17B78791C2A2B12
:1037C00032D1039B02371A1D1B680392002BB8BF2E
:1037D0004FF0FF3305932D4C032239782046FEF736
:1037E00033FD38B14023001B03FA00F0049B01377E
:1037F000034304933978062225487E1C8DF828104F
:10380000FEF722FD002835D0224BFBB9039B07337E
:1038100023F0070308330393099B4B4409936DE797
:1038200000FB02320121A4E700230A241846059375
:103830000F463A780131303A092A03D9002BCAD011
:103840000590C8E704FB00200123F1E703AB0093D8
:103850002A46114B04A94046AFF30080B0F1FF3F68
:103860008146D9D1AB895B063FF539AF09981DB0C8
:10387000BDE8F08F03AB00932A46074B04A94046EE
:10388000FEF794FFEAE700BF884000008E4000008A
:103890009240000000000000FF35000038B54B1CCE
:1038A000144603D14FF0FF35284638BD9389CDB279
:1038B00023F020039381536B52688BB1A36B9A4220
:1038C00008DA23685A1E226003F8015C636801333A
:1038D0006360E9E72146FFF7C5FC0028F1D0E1E786
:1038E0002169236851B1994208D213F8011C8D4215
:1038F00004D1013B013223606260D5E7E36304F148
:10390000440363630323A3632346226403F8465FEF
:1039100023600123DCE710B50C46496B69B104F163
:103920004403994201D0FDF759FD0020236C6063E8
:10393000636013B1E36B236010BD23694FF0FF3068
:10394000236000236360A38943F02003A38110BD9B
:103950002DE9F04FADF5257D0193002306460C4679
:1039600092460A27469347939F4B0DF10C08A2936A
:103970009E4BDFF87C92CDF82081A3939AF800301B
:10398000002B00F02F81FFF7E5FD9AF800B05844B6
:10399000437813F0080343D1BBF1250F0AF1010569
:1039A00040F09980459343939AF801302A2B03D134
:1039B00010230AF1020543932978AA46A1F13002A7
:1039C000092A05F1010541D903228948FEF73CFC8B
:1039D00038B1A0EB09030120AA469840439B184345
:1039E00043909AF800300AF10105672B4AD8652BFD
:1039F00080F0B780472B2FD8452B80F0B280002B6A
:103A000000F08280252B66D003234497499345E03C
:103A10004799013301314791616823600139616041
:103A20006368002B0BDDFFF795FD236819780844C8
:103A300041780D07ECD40AF10105AA469EE7A39B45
:103A40002146304698470028EDD0F4E7459B07FB18
:103A50000313303B4593AFE75B2B61D00CD8582B59
:103A6000D2D1439A42F400724392102244926F2BB7
:103A7000B4BF0323042310E0632B5CD0642BC3D1B9
:103A80004497F4E7702B42D01DD86E2B59D043D801
:103A9000692BB9D100234493032349936368002B16
:103AA00061DD439B59066FD5499B022B7CDC01AB42
:103AB000224643A93046FEF799FF012800F0928084
:103AC0000228BAD11DE0752BDAD0782BC9D0732B20
:103AD0009AD10223E1E76368002B0CDD23681A7892
:103AE00093457FD1013362682360479B013A0133DC
:103AF00062604793A1E7A39B214630469847002880
:103B0000ECD04698002863D14FF0FF3066E0439A2E
:103B100042F020024392A4E7082344930423BCE725
:103B200029464046FFF7DEF8439B054643F0400335
:103B300043930123B1E7439B43F0400343930023A6
:103B4000ABE7439AD0063FF578AF12F0010F019A28
:103B5000479B02F104010191126814BF13801360A6
:103B60006BE7052399E7A39B214630469847002839
:103B700097D0C6E7479A013247926268013A002A15
:103B800062600ADD01332360FFF7E4FC23681A78E2
:103B9000104442781207EDD486E7A39B21463046B5
:103BA00098470028F0D0ACE7042B06DC01AB224696
:103BB00043A93046FEF77EFF7FE70E4B002B3FF414
:103BC0003CAF01AB224643A93046AFF3008074E717
:103BD000A38913F0400F18BF4FF0FF300DF5257D7E
:103BE000BDE8F08F4698F9E79D38000017390000CE
:103BF0008E4000000000000038B50546084611461A
:103C00000022054C22601A46FDF766FC431C02D1D7
:103C1000236803B12B6038BD6405001049B1FF2A49
:103C20008BBF8A230A700360012088BF4FF0FF30EA
:103C30007047084670470000F8B500BFF8BC08BCE4
:103C40009E467047F8B500BFF8BC08BC9E4670475A
:103C500000008000008000000200000080000000E2
:103C60000103070000000300010302010101030139
:103C70000000070101010501010305010100070022
:103C8000010307010100070125642C003A20256487
:103C90000D0A00009C3C00003C030010CD0C00000D
:103CA000290D0000590D0000690D0000450D0000B0
:103CB00070696E6D6170206D69732D6D61746368DC
:103CC0000070696E6D6170206E6F7420666F756E26
:103CD0006420666F72207065726970686572616CCD
:103CE00000636F756C64206E6F742070696E6F7501
:103CF0007400000011C00920000001400100000014
:103D000042C009200000014002000000FFFFFFFF49
:103D1000FFFFFFFF0000000016C009200000014067
:103D20000100000047C0092000000140020000001F
:103D3000FFFFFFFFFFFFFFFF0000000001C00920A1
:103D400000C009400200000003C0092000C000407C
:103D5000010000000BC009200080094001000000A4
:103D600010C0092000000140010000001AC0092015
:103D700000C009400300000041C0092000000140CC
:103D80000200000049C00920008009400200000034
:103D90009DC0092000C0094003000000FFFFFFFF95
:103DA000FFFFFFFF0000000000C0092000C0094025
:103DB0000200000002C0092000C000400100000015
:103DC0000AC0092000800940010000000FC009203E
:103DD000000001400100000019C0092000C0094096
:103DE0000300000040C00920000001400200000064
:103DF00048C0092000800940020000009CC0092042
:103E000000C0094003000000FFFFFFFFFFFFFFFFAE
:103E1000000000000000000000000000F70E00009D
:103E2000F70E0000690100002D020000090F0000DC
:103E3000150F0000D0FFFFFF000000008901000007
:103E40003F02000017100000E70F000053100000B1
:103E50005310000053100000491000004D100000E6
:103E60005110000057100000E50E0000EB0E00009E
:103E7000F10E0000F90E0000010F0000190F000004
:103E80000D0F000000000000000000000000000016
:103E900000000000ED020000ED020000ED02000055
:103EA000ED020000ED020000ED020000ED02000056
:103EB000ED020000ED020000E50E0000EB0E000038
:103EC000F10E0000E30F0000E50F00003A2570003E
:103ED000772B000000000000000000000000000040
:103EE0000000000017100000E70F00005310000052
:103EF0005310000053100000491000004D10000046
:103F00005110000057100000E50E0000EB0E0000FD
:103F1000F10E0000E30F0000E50F0000ED020000CD
:103F2000ED020000F7100000FB100000031100007C
:103F3000000000000000000075110000C111000029
:103F400000000000000000001B1200001D12000015
:103F50003901000091010000000000000000000095
:103F600079130000A1130000D9120000EF12000025
:103F7000BD12000005130000111300001D13000006
:103F8000331300003F1300004B130000E50E000048
:103F9000EB0E0000F10E0000E30F0000E50F000043
:103FA000571300000000000000000000E1130000B3
:103FB000A5160000D9120000EF1200003D18000005
:103FC00005130000111300001D130000331300003F
:103FD0003F1300004B130000E50E0000EB0E000045
:103FE000F10E0000E30F0000E50F00005713000082
:103FF0004F70657261746F72206E6577206F757493
:10400000206F66206D656D6F72790D0A002F7374D5
:1040100064657272002F737464696E002F73746428
:104020006F75740000000000000000000000000038
:104030000000000000000000000000000000000080
:104040000000000000000000000000000000000070
:104050000000000000000000000000000000000060
:104060000000000000000000000000000000000050
:104070000000000000000000000000000000000040
:1040800000000000D8000010232D302B2000686CA9
:104090004C0065666745464700303132333435366B
:1040A00037383941424344454600303132333435A4
:1040B000363738396162636465660000DA400000B3
:1040C000DD400000E0400000412D46612D6638399A
:1040D00030313233343536375D002B2D003030002F
:1040E0007858004300504F534958002E00002020BC
:1040F0002020202020202028282828282020202098
:104100002020202020202020202020202020881057
:1041100010101010101010101010101010100404B7
:1041200004040404040404041010101010101041BE
:10413000414141414101010101010101010101012F
:1041400001010101010101010110101010101042C4
:1041500042424242420202020202020202020202FF
:1041600002020202020202020210101010200000DD
:10417000000000000000000000000000000000003F
:10418000000000000000000000000000000000002F
:10419000000000000000000000000000000000001F
:1041A000000000000000000000000000000000000F
:1041B00000000000000000000000000000000000FF
:1041C00000000000000000000000000000000000EF
:1041D00000000000000000000000000000000000DF
:1041E00000000000000000000000000000000000CF
:0441F00000000000CB
:1041F4000000000000D8B80568050010D8000010C1
:10420400000000004440000064400000244000001E
:10421400000000000000000000000000000000009A
:10422400000000000000000000000000000000008A
:10423400000000000000000000000000000000007A
:10424400000000000000000000000000000000006A
:10425400000000000000000000000000000000005A
:104264004300000000000000000000000000000007
:10427400000000000000000000000000000000003A
:1042840043000000000000000000000000000000E7
:10429400000000000000000000000000000000001A
:1042A40043000000000000000000000000000000C7
:1042B40000000000000000000000000000000000FA
:1042C40043000000000000000000000000000000A7
:1042D40000000000000000000000000000000000DA
:1042E4004300000000000000000000000000000087
:1042F40000000000000000000000000000000000BA
:104304004300000000000000000000000000000066
:104314000000000000000000000000000000000099
:104324004300000000000000000000000000000046
:104334000000000000000000000000000000000079
:104344001D3C00009535000000000000ED40000019
:10435400EB400000923C0000923C0000923C0000C4
:10436400923C0000923C0000923C0000923C000011
:10437400923C0000923C0000FFFFFFFFFFFFFFFFA5
:10438400FFFFFFFFFFFF00000100415343494900C5
:104394000000000000000000000000000000000019
:1043A40000000000000000000000415343494900A0
:1043B40000000000000000000000000000000000F9
:1043C400000000000000000000000000F1000000F8
:0843D40045020000CD000000CD
:04000003000018558C
:00000001FF
